{
  "address": "0x43E77eC0D2079A046736969391F0b9e7CE3f4A45",
  "abi": [
    {
      "inputs": [],
      "stateMutability": "nonpayable",
      "type": "constructor"
    },
    {
      "anonymous": false,
      "inputs": [
        {
          "indexed": true,
          "internalType": "address",
          "name": "owner",
          "type": "address"
        },
        {
          "indexed": true,
          "internalType": "address",
          "name": "approved",
          "type": "address"
        },
        {
          "indexed": true,
          "internalType": "uint256",
          "name": "tokenId",
          "type": "uint256"
        }
      ],
      "name": "Approval",
      "type": "event"
    },
    {
      "anonymous": false,
      "inputs": [
        {
          "indexed": true,
          "internalType": "address",
          "name": "owner",
          "type": "address"
        },
        {
          "indexed": true,
          "internalType": "address",
          "name": "operator",
          "type": "address"
        },
        {
          "indexed": false,
          "internalType": "bool",
          "name": "approved",
          "type": "bool"
        }
      ],
      "name": "ApprovalForAll",
      "type": "event"
    },
    {
      "anonymous": false,
      "inputs": [
        {
          "indexed": true,
          "internalType": "address",
          "name": "from",
          "type": "address"
        },
        {
          "indexed": true,
          "internalType": "address",
          "name": "to",
          "type": "address"
        },
        {
          "indexed": true,
          "internalType": "uint256",
          "name": "tokenId",
          "type": "uint256"
        }
      ],
      "name": "Transfer",
      "type": "event"
    },
    {
      "inputs": [
        {
          "internalType": "address",
          "name": "to",
          "type": "address"
        },
        {
          "internalType": "uint256",
          "name": "tokenId",
          "type": "uint256"
        }
      ],
      "name": "approve",
      "outputs": [],
      "stateMutability": "nonpayable",
      "type": "function"
    },
    {
      "inputs": [
        {
          "internalType": "address",
          "name": "owner",
          "type": "address"
        }
      ],
      "name": "balanceOf",
      "outputs": [
        {
          "internalType": "uint256",
          "name": "",
          "type": "uint256"
        }
      ],
      "stateMutability": "view",
      "type": "function"
    },
    {
      "inputs": [
        {
          "internalType": "address",
          "name": "",
          "type": "address"
        }
      ],
      "name": "fakeBalance",
      "outputs": [
        {
          "internalType": "uint256",
          "name": "",
          "type": "uint256"
        }
      ],
      "stateMutability": "view",
      "type": "function"
    },
    {
      "inputs": [
        {
          "internalType": "uint256",
          "name": "tokenId",
          "type": "uint256"
        }
      ],
      "name": "getApproved",
      "outputs": [
        {
          "internalType": "address",
          "name": "",
          "type": "address"
        }
      ],
      "stateMutability": "view",
      "type": "function"
    },
    {
      "inputs": [
        {
          "internalType": "uint256",
          "name": "expId",
          "type": "uint256"
        }
      ],
      "name": "getStorageId",
      "outputs": [
        {
          "internalType": "uint256",
          "name": "storageId",
          "type": "uint256"
        }
      ],
      "stateMutability": "pure",
      "type": "function"
    },
    {
      "inputs": [
        {
          "internalType": "uint256",
          "name": "expId",
          "type": "uint256"
        }
      ],
      "name": "getTemplate",
      "outputs": [
        {
          "components": [
            {
              "internalType": "uint256[3]",
              "name": "data",
              "type": "uint256[3]"
            }
          ],
          "internalType": "struct TileLib.Tile",
          "name": "template",
          "type": "tuple"
        },
        {
          "internalType": "uint256[]",
          "name": "landList",
          "type": "uint256[]"
        }
      ],
      "stateMutability": "view",
      "type": "function"
    },
    {
      "inputs": [
        {
          "internalType": "address",
          "name": "owner",
          "type": "address"
        },
        {
          "internalType": "address",
          "name": "operator",
          "type": "address"
        }
      ],
      "name": "isApprovedForAll",
      "outputs": [
        {
          "internalType": "bool",
          "name": "",
          "type": "bool"
        }
      ],
      "stateMutability": "view",
      "type": "function"
    },
    {
      "inputs": [
        {
          "internalType": "address",
          "name": "to",
          "type": "address"
        },
        {
          "internalType": "uint256",
          "name": "tokenId",
          "type": "uint256"
        }
      ],
      "name": "mint",
      "outputs": [],
      "stateMutability": "nonpayable",
      "type": "function"
    },
    {
      "inputs": [],
      "name": "name",
      "outputs": [
        {
          "internalType": "string",
          "name": "",
          "type": "string"
        }
      ],
      "stateMutability": "view",
      "type": "function"
    },
    {
      "inputs": [
        {
          "internalType": "uint256",
          "name": "tokenId",
          "type": "uint256"
        }
      ],
      "name": "ownerOf",
      "outputs": [
        {
          "internalType": "address",
          "name": "",
          "type": "address"
        }
      ],
      "stateMutability": "view",
      "type": "function"
    },
    {
      "inputs": [
        {
          "internalType": "address",
          "name": "from",
          "type": "address"
        },
        {
          "internalType": "address",
          "name": "to",
          "type": "address"
        },
        {
          "internalType": "uint256",
          "name": "tokenId",
          "type": "uint256"
        }
      ],
      "name": "safeTransferFrom",
      "outputs": [],
      "stateMutability": "nonpayable",
      "type": "function"
    },
    {
      "inputs": [
        {
          "internalType": "address",
          "name": "from",
          "type": "address"
        },
        {
          "internalType": "address",
          "name": "to",
          "type": "address"
        },
        {
          "internalType": "uint256",
          "name": "tokenId",
          "type": "uint256"
        },
        {
          "internalType": "bytes",
          "name": "_data",
          "type": "bytes"
        }
      ],
      "name": "safeTransferFrom",
      "outputs": [],
      "stateMutability": "nonpayable",
      "type": "function"
    },
    {
      "inputs": [
        {
          "internalType": "address",
          "name": "operator",
          "type": "address"
        },
        {
          "internalType": "bool",
          "name": "approved",
          "type": "bool"
        }
      ],
      "name": "setApprovalForAll",
      "outputs": [],
      "stateMutability": "nonpayable",
      "type": "function"
    },
    {
      "inputs": [
        {
          "internalType": "address",
          "name": "owner",
          "type": "address"
        },
        {
          "internalType": "uint256",
          "name": "balance",
          "type": "uint256"
        }
      ],
      "name": "setFakeBalance",
      "outputs": [],
      "stateMutability": "nonpayable",
      "type": "function"
    },
    {
      "inputs": [
        {
          "internalType": "uint256",
          "name": "expId",
          "type": "uint256"
        },
        {
          "internalType": "uint256[2][]",
          "name": "coords",
          "type": "uint256[2][]"
        }
      ],
      "name": "setTemplate",
      "outputs": [],
      "stateMutability": "nonpayable",
      "type": "function"
    },
    {
      "inputs": [
        {
          "internalType": "bytes4",
          "name": "interfaceId",
          "type": "bytes4"
        }
      ],
      "name": "supportsInterface",
      "outputs": [
        {
          "internalType": "bool",
          "name": "",
          "type": "bool"
        }
      ],
      "stateMutability": "view",
      "type": "function"
    },
    {
      "inputs": [],
      "name": "symbol",
      "outputs": [
        {
          "internalType": "string",
          "name": "",
          "type": "string"
        }
      ],
      "stateMutability": "view",
      "type": "function"
    },
    {
      "inputs": [],
      "name": "test",
      "outputs": [],
      "stateMutability": "nonpayable",
      "type": "function"
    },
    {
      "inputs": [
        {
          "internalType": "uint256",
          "name": "tokenId",
          "type": "uint256"
        }
      ],
      "name": "tokenURI",
      "outputs": [
        {
          "internalType": "string",
          "name": "",
          "type": "string"
        }
      ],
      "stateMutability": "view",
      "type": "function"
    },
    {
      "inputs": [
        {
          "internalType": "address",
          "name": "from",
          "type": "address"
        },
        {
          "internalType": "address",
          "name": "to",
          "type": "address"
        },
        {
          "internalType": "uint256",
          "name": "tokenId",
          "type": "uint256"
        }
      ],
      "name": "transferFrom",
      "outputs": [],
      "stateMutability": "nonpayable",
      "type": "function"
    }
  ],
  "transactionHash": "0x6a40efb0497872a79522b73cf782bd038e45cacc8526398332085c2fc1efa98b",
  "args": [],
  "numDeployments": 1,
  "solcInputHash": "6b6bb51793ac28176be0d330acf83587",
  "bytecode": "0x60806040523480156200001157600080fd5b50604080518082018252600a815269457870657269656e636560b01b60208083019182528351808501909452600384526204578760ec1b90840152815191929183918391620000639160009162000084565b5080516200007990600190602084019062000084565b505050505062000167565b82805462000092906200012a565b90600052602060002090601f016020900481019282620000b6576000855562000101565b82601f10620000d157805160ff191683800117855562000101565b8280016001018555821562000101579182015b8281111562000101578251825591602001919060010190620000e4565b506200010f92915062000113565b5090565b5b808211156200010f576000815560010162000114565b6002810460018216806200013f57607f821691505b602082108114156200016157634e487b7160e01b600052602260045260246000fd5b50919050565b611e7a80620001776000396000f3fe608060405234801561001057600080fd5b506004361061016c5760003560e01c80636352211e116100cd578063a22cb46511610081578063c87b56dd11610066578063c87b56dd14610318578063e985e9c51461032b578063f8a8fd6d146103675761016c565b8063a22cb465146102f2578063b88d4fde146103055761016c565b8063711cf7b7116100b2578063711cf7b7146102a05780637884fe5d146102c057806395d89b41146102ea5761016c565b80636352211e1461027a57806370a082311461028d5761016c565b806323b872dd1161012457806333454e141161010957806333454e141461024157806340c10f191461025457806342842e0e146102675761016c565b806323b872dd1461020d57806331543cf4146102205761016c565b8063081812fc11610155578063081812fc146101ae578063095ea7b3146101d957806321ab0c71146101ee5761016c565b806301ffc9a71461017157806306fdde0314610199575b600080fd5b61018461017f366004611a40565b61036f565b60405190151581526020015b60405180910390f35b6101a1610456565b6040516101909190611c26565b6101c16101bc366004611a78565b6104e8565b6040516001600160a01b039091168152602001610190565b6101ec6101e7366004611a17565b610593565b005b6101ff6101fc366004611a78565b90565b604051908152602001610190565b6101ec61021b3660046118ea565b6106c5565b61023361022e366004611a78565b61074c565b604051610190929190611c39565b6101ec61024f366004611a90565b610805565b6101ec610262366004611a17565b61099e565b6101ec6102753660046118ea565b6109ac565b6101c1610288366004611a78565b6109c7565b6101ff61029b36600461189e565b610a52565b6101ff6102ae36600461189e565b60066020526000908152604090205481565b6101ec6102ce366004611a17565b6001600160a01b03909116600090815260066020526040902055565b6101a1610a98565b6101ec6103003660046119dd565b610aa7565b6101ec610313366004611925565b610ab2565b6101a1610326366004611a78565b610b40565b6101846103393660046118b8565b6001600160a01b03918216600090815260056020908152604080832093909416825291909152205460ff1690565b6101ec610c36565b60007fffffffff0000000000000000000000000000000000000000000000000000000082167f80ac58cd00000000000000000000000000000000000000000000000000000000148061040257507fffffffff0000000000000000000000000000000000000000000000000000000082167f5b5e139f00000000000000000000000000000000000000000000000000000000145b8061044e57507f01ffc9a7000000000000000000000000000000000000000000000000000000007fffffffff000000000000000000000000000000000000000000000000000000008316145b90505b919050565b60606000805461046590611d6a565b80601f016020809104026020016040519081016040528092919081815260200182805461049190611d6a565b80156104de5780601f106104b3576101008083540402835291602001916104de565b820191906000526020600020905b8154815290600101906020018083116104c157829003601f168201915b5050505050905090565b6000818152600260205260408120546001600160a01b03166105775760405162461bcd60e51b815260206004820152602c60248201527f4552433732313a20617070726f76656420717565727920666f72206e6f6e657860448201527f697374656e7420746f6b656e000000000000000000000000000000000000000060648201526084015b60405180910390fd5b506000908152600460205260409020546001600160a01b031690565b600061059e826109c7565b9050806001600160a01b0316836001600160a01b031614156106285760405162461bcd60e51b815260206004820152602160248201527f4552433732313a20617070726f76616c20746f2063757272656e74206f776e6560448201527f7200000000000000000000000000000000000000000000000000000000000000606482015260840161056e565b336001600160a01b038216148061064457506106448133610339565b6106b65760405162461bcd60e51b815260206004820152603860248201527f4552433732313a20617070726f76652063616c6c6572206973206e6f74206f7760448201527f6e6572206e6f7220617070726f76656420666f7220616c6c0000000000000000606482015260840161056e565b6106c08383610c76565b505050565b6106cf3382610cf1565b6107415760405162461bcd60e51b815260206004820152603160248201527f4552433732313a207472616e736665722063616c6c6572206973206e6f74206f60448201527f776e6572206e6f7220617070726f766564000000000000000000000000000000606482015260840161056e565b6106c0838383610df9565b6107546117e0565b6000828152600760209081526040918290208251608081019384905260609391928392600380850193928592849291830191849182845b81548152602001906001019080831161078b575050505050815250509150808054806020026020016040519081016040528092919081815260200182805480156107f457602002820191906000526020600020905b8154815260200190600101908083116107e0575b505050505090509250925050915091565b600082815260076020526040902061081b6117e0565b600061082a60038401826117f8565b835160005b8181101561097f57600086828151811061085957634e487b7160e01b600052603260045260246000fd5b602002602001015160006002811061088157634e487b7160e01b600052603260045260246000fd5b6020020151905060008783815181106108aa57634e487b7160e01b600052603260045260246000fd5b60200260200101516001600281106108d257634e487b7160e01b600052603260045260246000fd5b6020020151905060006108e761019883611d08565b6108f19084611cdc565b60038901805460018101825560009182526020909120018190559050610918878484610fd3565b97509550856109695760405162461bcd60e51b815260206004820152600e60248201527f7265706561746564206c616e6473000000000000000000000000000000000000604482015260640161056e565b505050808061097790611da5565b91505061082f565b508251839085906109939082906003611816565b505050505050505050565b6109a882826110f0565b5050565b6106c083838360405180602001604052806000815250610ab2565b6000818152600260205260408120546001600160a01b03168061044e5760405162461bcd60e51b815260206004820152602960248201527f4552433732313a206f776e657220717565727920666f72206e6f6e657869737460448201527f656e7420746f6b656e0000000000000000000000000000000000000000000000606482015260840161056e565b6001600160a01b03811660009081526006602052604081205415610a8f57506001600160a01b038116600090815260066020526040902054610451565b61044e8261123f565b60606001805461046590611d6a565b6109a83383836112d9565b610abc3383610cf1565b610b2e5760405162461bcd60e51b815260206004820152603160248201527f4552433732313a207472616e736665722063616c6c6572206973206e6f74206f60448201527f776e6572206e6f7220617070726f766564000000000000000000000000000000606482015260840161056e565b610b3a848484846113c6565b50505050565b6000818152600260205260409020546060906001600160a01b0316610bcd5760405162461bcd60e51b815260206004820152602f60248201527f4552433732314d657461646174613a2055524920717565727920666f72206e6f60448201527f6e6578697374656e7420746f6b656e0000000000000000000000000000000000606482015260840161056e565b6000610be460408051602081019091526000815290565b90506000815111610c045760405180602001604052806000815250610c2f565b80610c0e8461144f565b604051602001610c1f929190611bbb565b6040516020818303038152906040525b9392505050565b610c746040518060400160405280600581526020017f686168616800000000000000000000000000000000000000000000000000000081525061159e565b565b6000818152600460205260409020805473ffffffffffffffffffffffffffffffffffffffff19166001600160a01b0384169081179091558190610cb8826109c7565b6001600160a01b03167f8c5be1e5ebec7d5bd14f71427d1e84f3dd0314c0f7b2291e5b200ac8c7c3b92560405160405180910390a45050565b6000818152600260205260408120546001600160a01b0316610d7b5760405162461bcd60e51b815260206004820152602c60248201527f4552433732313a206f70657261746f7220717565727920666f72206e6f6e657860448201527f697374656e7420746f6b656e0000000000000000000000000000000000000000606482015260840161056e565b6000610d86836109c7565b9050806001600160a01b0316846001600160a01b03161480610dc15750836001600160a01b0316610db6846104e8565b6001600160a01b0316145b80610df157506001600160a01b0380821660009081526005602090815260408083209388168352929052205460ff165b949350505050565b826001600160a01b0316610e0c826109c7565b6001600160a01b031614610e885760405162461bcd60e51b815260206004820152602960248201527f4552433732313a207472616e73666572206f6620746f6b656e2074686174206960448201527f73206e6f74206f776e0000000000000000000000000000000000000000000000606482015260840161056e565b6001600160a01b038216610f035760405162461bcd60e51b8152602060048201526024808201527f4552433732313a207472616e7366657220746f20746865207a65726f2061646460448201527f7265737300000000000000000000000000000000000000000000000000000000606482015260840161056e565b610f0e600082610c76565b6001600160a01b0383166000908152600360205260408120805460019290610f37908490611d27565b90915550506001600160a01b0382166000908152600360205260408120805460019290610f65908490611cdc565b9091555050600081815260026020526040808220805473ffffffffffffffffffffffffffffffffffffffff19166001600160a01b0386811691821790925591518493918716917fddf252ad1be2c89b69c2b068fc378daa952ba7f163c4a11628f55a4df523b3ef91a4505050565b6000610fdd6117e0565b601884108015610fed5750601883105b6110395760405162461bcd60e51b815260206004820152601360248201527f496e76616c696420636f6f7264696e6174657300000000000000000000000000604482015260640161056e565b6000611046600885611cf4565b90506000611055600886611dc0565b611060906018611d08565b61106a9087611cdc565b6001901b905080818860000151846003811061109657634e487b7160e01b600052603260045260246000fd5b60200201511614156110b0576000879350935050506110e8565b8651819083600381106110d357634e487b7160e01b600052603260045260246000fd5b60200201805190911790525060019250859150505b935093915050565b6001600160a01b0382166111465760405162461bcd60e51b815260206004820181905260248201527f4552433732313a206d696e7420746f20746865207a65726f2061646472657373604482015260640161056e565b6000818152600260205260409020546001600160a01b0316156111ab5760405162461bcd60e51b815260206004820152601c60248201527f4552433732313a20746f6b656e20616c7265616479206d696e74656400000000604482015260640161056e565b6001600160a01b03821660009081526003602052604081208054600192906111d4908490611cdc565b9091555050600081815260026020526040808220805473ffffffffffffffffffffffffffffffffffffffff19166001600160a01b03861690811790915590518392907fddf252ad1be2c89b69c2b068fc378daa952ba7f163c4a11628f55a4df523b3ef908290a45050565b60006001600160a01b0382166112bd5760405162461bcd60e51b815260206004820152602a60248201527f4552433732313a2062616c616e636520717565727920666f7220746865207a6560448201527f726f206164647265737300000000000000000000000000000000000000000000606482015260840161056e565b506001600160a01b031660009081526003602052604090205490565b816001600160a01b0316836001600160a01b0316141561133b5760405162461bcd60e51b815260206004820152601960248201527f4552433732313a20617070726f766520746f2063616c6c657200000000000000604482015260640161056e565b6001600160a01b0383811660008181526005602090815260408083209487168084529482529182902080547fffffffffffffffffffffffffffffffffffffffffffffffffffffffffffffff001686151590811790915591519182527f17307eab39ab6107e8899845ad3d59bd9653f200f220920489ca2b5937696c31910160405180910390a3505050565b6113d1848484610df9565b6113dd84848484611612565b610b3a5760405162461bcd60e51b815260206004820152603260248201527f4552433732313a207472616e7366657220746f206e6f6e20455243373231526560448201527f63656976657220696d706c656d656e7465720000000000000000000000000000606482015260840161056e565b606081611490575060408051808201909152600181527f30000000000000000000000000000000000000000000000000000000000000006020820152610451565b8160005b81156114ba57806114a481611da5565b91506114b39050600a83611cf4565b9150611494565b60008167ffffffffffffffff8111156114e357634e487b7160e01b600052604160045260246000fd5b6040519080825280601f01601f19166020018201604052801561150d576020820181803683370190505b5090505b8415610df157611522600183611d27565b915061152f600a86611dc0565b61153a906030611cdc565b60f81b81838151811061155d57634e487b7160e01b600052603260045260246000fd5b60200101907effffffffffffffffffffffffffffffffffffffffffffffffffffffffffffff1916908160001a905350611597600a86611cf4565b9450611511565b61160f816040516024016115b29190611c26565b60408051601f198184030181529190526020810180517bffffffffffffffffffffffffffffffffffffffffffffffffffffffff167f41304fac000000000000000000000000000000000000000000000000000000001790526117bf565b50565b60006001600160a01b0384163b156117b4576040517f150b7a020000000000000000000000000000000000000000000000000000000081526001600160a01b0385169063150b7a029061166f903390899088908890600401611bea565b602060405180830381600087803b15801561168957600080fd5b505af19250505080156116b9575060408051601f3d908101601f191682019092526116b691810190611a5c565b60015b611769573d8080156116e7576040519150601f19603f3d011682016040523d82523d6000602084013e6116ec565b606091505b5080516117615760405162461bcd60e51b815260206004820152603260248201527f4552433732313a207472616e7366657220746f206e6f6e20455243373231526560448201527f63656976657220696d706c656d656e7465720000000000000000000000000000606482015260840161056e565b805181602001fd5b7fffffffff00000000000000000000000000000000000000000000000000000000167f150b7a0200000000000000000000000000000000000000000000000000000000149050610df1565b506001949350505050565b80516a636f6e736f6c652e6c6f67602083016000808483855afa5050505050565b60405180602001604052806117f3611854565b905290565b508054600082559060005260206000209081019061160f9190611872565b8260038101928215611844579160200282015b82811115611844578251825591602001919060010190611829565b50611850929150611872565b5090565b60405180606001604052806003906020820280368337509192915050565b5b808211156118505760008155600101611873565b80356001600160a01b038116811461045157600080fd5b6000602082840312156118af578081fd5b610c2f82611887565b600080604083850312156118ca578081fd5b6118d383611887565b91506118e160208401611887565b90509250929050565b6000806000606084860312156118fe578081fd5b61190784611887565b925061191560208501611887565b9150604084013590509250925092565b6000806000806080858703121561193a578081fd5b61194385611887565b93506020611952818701611887565b935060408601359250606086013567ffffffffffffffff80821115611975578384fd5b818801915088601f830112611988578384fd5b81358181111561199a5761199a611e00565b6119ac84601f19601f84011601611cab565b915080825289848285010111156119c1578485fd5b8084840185840137810190920192909252939692955090935050565b600080604083850312156119ef578182fd5b6119f883611887565b915060208301358015158114611a0c578182fd5b809150509250929050565b60008060408385031215611a29578182fd5b611a3283611887565b946020939093013593505050565b600060208284031215611a51578081fd5b8135610c2f81611e16565b600060208284031215611a6d578081fd5b8151610c2f81611e16565b600060208284031215611a89578081fd5b5035919050565b6000806040808486031215611aa3578283fd5b8335925060208085013567ffffffffffffffff80821115611ac2578485fd5b8187019150601f8881840112611ad6578586fd5b823582811115611ae857611ae8611e00565b611af58586830201611cab565b8181528581019350848601878302860187018c1015611b12578889fd5b8895505b82861015611b7d578b84820112611b2b578889fd5b611b3488611cab565b80828a84018f811115611b45578c8dfd5b8c5b6002811015611b645782358552938b0193918b0191600101611b47565b509188525060019790970196958801959150611b169050565b50809750505050505050509250929050565b60008151808452611ba7816020860160208601611d3e565b601f01601f19169290920160200192915050565b60008351611bcd818460208801611d3e565b835190830190611be1818360208801611d3e565b01949350505050565b60006001600160a01b03808716835280861660208401525083604083015260806060830152611c1c6080830184611b8f565b9695505050505050565b600060208252610c2f6020830184611b8f565b8251600090608083019083835b6003811015611c65578251825260209283019290910190600101611c46565b5050608060608501525083519081905260209060a0840190828601845b82811015611c9e57815184529284019290840190600101611c82565b5091979650505050505050565b604051601f8201601f1916810167ffffffffffffffff81118282101715611cd457611cd4611e00565b604052919050565b60008219821115611cef57611cef611dd4565b500190565b600082611d0357611d03611dea565b500490565b6000816000190483118215151615611d2257611d22611dd4565b500290565b600082821015611d3957611d39611dd4565b500390565b60005b83811015611d59578181015183820152602001611d41565b83811115610b3a5750506000910152565b600281046001821680611d7e57607f821691505b60208210811415611d9f57634e487b7160e01b600052602260045260246000fd5b50919050565b6000600019821415611db957611db9611dd4565b5060010190565b600082611dcf57611dcf611dea565b500690565b634e487b7160e01b600052601160045260246000fd5b634e487b7160e01b600052601260045260246000fd5b634e487b7160e01b600052604160045260246000fd5b7fffffffff000000000000000000000000000000000000000000000000000000008116811461160f57600080fdfea26469706673582212208302b5f9ae0c368eee391c5e716a7e22ef114268e5fe1266f055c31ad1e4e4fd64736f6c63430008020033",
  "devdoc": {
    "kind": "dev",
    "methods": {
      "approve(address,uint256)": {
        "details": "See {IERC721-approve}."
      },
      "balanceOf(address)": {
        "details": "See {IERC721-balanceOf}."
      },
      "getApproved(uint256)": {
        "details": "See {IERC721-getApproved}."
      },
      "isApprovedForAll(address,address)": {
        "details": "See {IERC721-isApprovedForAll}."
      },
      "name()": {
        "details": "See {IERC721Metadata-name}."
      },
      "ownerOf(uint256)": {
        "details": "See {IERC721-ownerOf}."
      },
      "safeTransferFrom(address,address,uint256)": {
        "details": "See {IERC721-safeTransferFrom}."
      },
      "safeTransferFrom(address,address,uint256,bytes)": {
        "details": "See {IERC721-safeTransferFrom}."
      },
      "setApprovalForAll(address,bool)": {
        "details": "See {IERC721-setApprovalForAll}."
      },
      "supportsInterface(bytes4)": {
        "details": "See {IERC165-supportsInterface}."
      },
      "symbol()": {
        "details": "See {IERC721Metadata-symbol}."
      },
      "tokenURI(uint256)": {
        "details": "See {IERC721Metadata-tokenURI}."
      },
      "transferFrom(address,address,uint256)": {
        "details": "See {IERC721-transferFrom}."
      }
    },
    "version": 1
  },
  "userdoc": {
    "kind": "user",
    "methods": {},
    "version": 1
  },
  "storageLayout": {
    "storage": [
      {
        "astId": 3327,
        "contract": "src/solc_0.8/test/MockExperience.sol:MockExperience",
        "label": "_name",
        "offset": 0,
        "slot": "0",
        "type": "t_string_storage"
      },
      {
        "astId": 3329,
        "contract": "src/solc_0.8/test/MockExperience.sol:MockExperience",
        "label": "_symbol",
        "offset": 0,
        "slot": "1",
        "type": "t_string_storage"
      },
      {
        "astId": 3333,
        "contract": "src/solc_0.8/test/MockExperience.sol:MockExperience",
        "label": "_owners",
        "offset": 0,
        "slot": "2",
        "type": "t_mapping(t_uint256,t_address)"
      },
      {
        "astId": 3337,
        "contract": "src/solc_0.8/test/MockExperience.sol:MockExperience",
        "label": "_balances",
        "offset": 0,
        "slot": "3",
        "type": "t_mapping(t_address,t_uint256)"
      },
      {
        "astId": 3341,
        "contract": "src/solc_0.8/test/MockExperience.sol:MockExperience",
        "label": "_tokenApprovals",
        "offset": 0,
        "slot": "4",
        "type": "t_mapping(t_uint256,t_address)"
      },
      {
        "astId": 3347,
        "contract": "src/solc_0.8/test/MockExperience.sol:MockExperience",
        "label": "_operatorApprovals",
        "offset": 0,
        "slot": "5",
        "type": "t_mapping(t_address,t_mapping(t_address,t_bool))"
      },
      {
        "astId": 61569,
        "contract": "src/solc_0.8/test/MockExperience.sol:MockExperience",
        "label": "fakeBalance",
        "offset": 0,
        "slot": "6",
        "type": "t_mapping(t_address,t_uint256)"
      },
      {
        "astId": 62762,
        "contract": "src/solc_0.8/test/MockExperience.sol:MockExperience",
        "label": "experiences",
        "offset": 0,
        "slot": "7",
        "type": "t_mapping(t_uint256,t_struct(Experience)62757_storage)"
      }
    ],
    "types": {
      "t_address": {
        "encoding": "inplace",
        "label": "address",
        "numberOfBytes": "20"
      },
      "t_array(t_uint256)3_storage": {
        "base": "t_uint256",
        "encoding": "inplace",
        "label": "uint256[3]",
        "numberOfBytes": "96"
      },
      "t_array(t_uint256)dyn_storage": {
        "base": "t_uint256",
        "encoding": "dynamic_array",
        "label": "uint256[]",
        "numberOfBytes": "32"
      },
      "t_bool": {
        "encoding": "inplace",
        "label": "bool",
        "numberOfBytes": "1"
      },
      "t_mapping(t_address,t_bool)": {
        "encoding": "mapping",
        "key": "t_address",
        "label": "mapping(address => bool)",
        "numberOfBytes": "32",
        "value": "t_bool"
      },
      "t_mapping(t_address,t_mapping(t_address,t_bool))": {
        "encoding": "mapping",
        "key": "t_address",
        "label": "mapping(address => mapping(address => bool))",
        "numberOfBytes": "32",
        "value": "t_mapping(t_address,t_bool)"
      },
      "t_mapping(t_address,t_uint256)": {
        "encoding": "mapping",
        "key": "t_address",
        "label": "mapping(address => uint256)",
        "numberOfBytes": "32",
        "value": "t_uint256"
      },
      "t_mapping(t_uint256,t_address)": {
        "encoding": "mapping",
        "key": "t_uint256",
        "label": "mapping(uint256 => address)",
        "numberOfBytes": "32",
        "value": "t_address"
      },
      "t_mapping(t_uint256,t_struct(Experience)62757_storage)": {
        "encoding": "mapping",
        "key": "t_uint256",
        "label": "mapping(uint256 => struct MockExperience.Experience)",
        "numberOfBytes": "32",
        "value": "t_struct(Experience)62757_storage"
      },
      "t_string_storage": {
        "encoding": "bytes",
        "label": "string",
        "numberOfBytes": "32"
      },
      "t_struct(Experience)62757_storage": {
        "encoding": "inplace",
        "label": "struct MockExperience.Experience",
        "members": [
          {
            "astId": 62753,
            "contract": "src/solc_0.8/test/MockExperience.sol:MockExperience",
            "label": "tile",
            "offset": 0,
            "slot": "0",
            "type": "t_struct(Tile)44049_storage"
          },
          {
            "astId": 62756,
            "contract": "src/solc_0.8/test/MockExperience.sol:MockExperience",
            "label": "landCoords",
            "offset": 0,
            "slot": "3",
            "type": "t_array(t_uint256)dyn_storage"
          }
        ],
        "numberOfBytes": "128"
      },
      "t_struct(Tile)44049_storage": {
        "encoding": "inplace",
        "label": "struct TileLib.Tile",
        "members": [
          {
            "astId": 44048,
            "contract": "src/solc_0.8/test/MockExperience.sol:MockExperience",
            "label": "data",
            "offset": 0,
            "slot": "0",
            "type": "t_array(t_uint256)3_storage"
          }
        ],
        "numberOfBytes": "96"
      },
      "t_uint256": {
        "encoding": "inplace",
        "label": "uint256",
        "numberOfBytes": "32"
      }
    }
  }
}