{
  "address": "0xE831a22E1b09D2F25dae664BAe2EA45F8e257dd0",
  "abi": [
    {
      "anonymous": false,
      "inputs": [
        {
          "indexed": true,
          "internalType": "address",
          "name": "owner",
          "type": "address"
        },
        {
          "indexed": true,
          "internalType": "address",
          "name": "approved",
          "type": "address"
        },
        {
          "indexed": true,
          "internalType": "uint256",
          "name": "tokenId",
          "type": "uint256"
        }
      ],
      "name": "Approval",
      "type": "event"
    },
    {
      "anonymous": false,
      "inputs": [
        {
          "indexed": true,
          "internalType": "address",
          "name": "owner",
          "type": "address"
        },
        {
          "indexed": true,
          "internalType": "address",
          "name": "operator",
          "type": "address"
        },
        {
          "indexed": false,
          "internalType": "bool",
          "name": "approved",
          "type": "bool"
        }
      ],
      "name": "ApprovalForAll",
      "type": "event"
    },
    {
      "anonymous": false,
      "inputs": [
        {
          "indexed": true,
          "internalType": "address",
          "name": "operator",
          "type": "address"
        },
        {
          "indexed": false,
          "internalType": "string",
          "name": "oldURI",
          "type": "string"
        },
        {
          "indexed": false,
          "internalType": "string",
          "name": "newURI",
          "type": "string"
        }
      ],
      "name": "EstateBaseUrlChanged",
      "type": "event"
    },
    {
      "anonymous": false,
      "inputs": [
        {
          "indexed": true,
          "internalType": "uint256",
          "name": "estateId",
          "type": "uint256"
        },
        {
          "indexed": false,
          "internalType": "address",
          "name": "operator",
          "type": "address"
        },
        {
          "indexed": false,
          "internalType": "address",
          "name": "from",
          "type": "address"
        },
        {
          "components": [
            {
              "components": [
                {
                  "internalType": "uint256[3]",
                  "name": "data",
                  "type": "uint256[3]"
                }
              ],
              "internalType": "struct TileLib.Tile",
              "name": "tile",
              "type": "tuple"
            }
          ],
          "indexed": false,
          "internalType": "struct TileWithCoordLib.TileWithCoord[]",
          "name": "lands",
          "type": "tuple[]"
        }
      ],
      "name": "EstateBridgeBurned",
      "type": "event"
    },
    {
      "anonymous": false,
      "inputs": [
        {
          "indexed": true,
          "internalType": "uint256",
          "name": "estateId",
          "type": "uint256"
        },
        {
          "indexed": false,
          "internalType": "address",
          "name": "operator",
          "type": "address"
        },
        {
          "indexed": false,
          "internalType": "address",
          "name": "to",
          "type": "address"
        },
        {
          "components": [
            {
              "components": [
                {
                  "internalType": "uint256[3]",
                  "name": "data",
                  "type": "uint256[3]"
                }
              ],
              "internalType": "struct TileLib.Tile",
              "name": "tile",
              "type": "tuple"
            }
          ],
          "indexed": false,
          "internalType": "struct TileWithCoordLib.TileWithCoord[]",
          "name": "lands",
          "type": "tuple[]"
        }
      ],
      "name": "EstateBridgeMinted",
      "type": "event"
    },
    {
      "anonymous": false,
      "inputs": [
        {
          "indexed": true,
          "internalType": "address",
          "name": "operator",
          "type": "address"
        },
        {
          "indexed": false,
          "internalType": "address",
          "name": "oldAddress",
          "type": "address"
        },
        {
          "indexed": false,
          "internalType": "address",
          "name": "newAddress",
          "type": "address"
        }
      ],
      "name": "EstateLandTokenChanged",
      "type": "event"
    },
    {
      "anonymous": false,
      "inputs": [
        {
          "indexed": true,
          "internalType": "address",
          "name": "operator",
          "type": "address"
        },
        {
          "indexed": false,
          "internalType": "contract IEstateExperienceRegistry",
          "name": "oldRegistry",
          "type": "address"
        },
        {
          "indexed": false,
          "internalType": "contract IEstateExperienceRegistry",
          "name": "newRegistry",
          "type": "address"
        }
      ],
      "name": "EstateRegistryChanged",
      "type": "event"
    },
    {
      "anonymous": false,
      "inputs": [
        {
          "indexed": true,
          "internalType": "uint256",
          "name": "estateId",
          "type": "uint256"
        },
        {
          "indexed": false,
          "internalType": "address",
          "name": "from",
          "type": "address"
        }
      ],
      "name": "EstateTokenBurned",
      "type": "event"
    },
    {
      "anonymous": false,
      "inputs": [
        {
          "indexed": true,
          "internalType": "uint256",
          "name": "estateId",
          "type": "uint256"
        },
        {
          "indexed": false,
          "internalType": "address",
          "name": "user",
          "type": "address"
        },
        {
          "components": [
            {
              "components": [
                {
                  "internalType": "uint256[3]",
                  "name": "data",
                  "type": "uint256[3]"
                }
              ],
              "internalType": "struct TileLib.Tile",
              "name": "tile",
              "type": "tuple"
            }
          ],
          "indexed": false,
          "internalType": "struct TileWithCoordLib.TileWithCoord[]",
          "name": "lands",
          "type": "tuple[]"
        }
      ],
      "name": "EstateTokenCreated",
      "type": "event"
    },
    {
      "anonymous": false,
      "inputs": [
        {
          "indexed": true,
          "internalType": "uint256",
          "name": "estateId",
          "type": "uint256"
        },
        {
          "indexed": true,
          "internalType": "uint256",
          "name": "newId",
          "type": "uint256"
        },
        {
          "indexed": false,
          "internalType": "address",
          "name": "user",
          "type": "address"
        },
        {
          "components": [
            {
              "components": [
                {
                  "internalType": "uint256[3]",
                  "name": "data",
                  "type": "uint256[3]"
                }
              ],
              "internalType": "struct TileLib.Tile",
              "name": "tile",
              "type": "tuple"
            }
          ],
          "indexed": false,
          "internalType": "struct TileWithCoordLib.TileWithCoord[]",
          "name": "lands",
          "type": "tuple[]"
        }
      ],
      "name": "EstateTokenLandsAdded",
      "type": "event"
    },
    {
      "anonymous": false,
      "inputs": [
        {
          "indexed": true,
          "internalType": "uint256",
          "name": "oldId",
          "type": "uint256"
        },
        {
          "indexed": true,
          "internalType": "uint256",
          "name": "newId",
          "type": "uint256"
        },
        {
          "indexed": false,
          "internalType": "address",
          "name": "user",
          "type": "address"
        },
        {
          "components": [
            {
              "components": [
                {
                  "internalType": "uint256[3]",
                  "name": "data",
                  "type": "uint256[3]"
                }
              ],
              "internalType": "struct TileLib.Tile",
              "name": "tile",
              "type": "tuple"
            }
          ],
          "indexed": false,
          "internalType": "struct TileWithCoordLib.TileWithCoord[]",
          "name": "lands",
          "type": "tuple[]"
        }
      ],
      "name": "EstateTokenUpdated",
      "type": "event"
    },
    {
      "anonymous": false,
      "inputs": [
        {
          "indexed": true,
          "internalType": "bytes32",
          "name": "role",
          "type": "bytes32"
        },
        {
          "indexed": true,
          "internalType": "bytes32",
          "name": "previousAdminRole",
          "type": "bytes32"
        },
        {
          "indexed": true,
          "internalType": "bytes32",
          "name": "newAdminRole",
          "type": "bytes32"
        }
      ],
      "name": "RoleAdminChanged",
      "type": "event"
    },
    {
      "anonymous": false,
      "inputs": [
        {
          "indexed": true,
          "internalType": "bytes32",
          "name": "role",
          "type": "bytes32"
        },
        {
          "indexed": true,
          "internalType": "address",
          "name": "account",
          "type": "address"
        },
        {
          "indexed": true,
          "internalType": "address",
          "name": "sender",
          "type": "address"
        }
      ],
      "name": "RoleGranted",
      "type": "event"
    },
    {
      "anonymous": false,
      "inputs": [
        {
          "indexed": true,
          "internalType": "bytes32",
          "name": "role",
          "type": "bytes32"
        },
        {
          "indexed": true,
          "internalType": "address",
          "name": "account",
          "type": "address"
        },
        {
          "indexed": true,
          "internalType": "address",
          "name": "sender",
          "type": "address"
        }
      ],
      "name": "RoleRevoked",
      "type": "event"
    },
    {
      "anonymous": false,
      "inputs": [
        {
          "indexed": true,
          "internalType": "address",
          "name": "from",
          "type": "address"
        },
        {
          "indexed": true,
          "internalType": "address",
          "name": "to",
          "type": "address"
        },
        {
          "indexed": true,
          "internalType": "uint256",
          "name": "tokenId",
          "type": "uint256"
        }
      ],
      "name": "Transfer",
      "type": "event"
    },
    {
      "inputs": [],
      "name": "ADMIN_ROLE",
      "outputs": [
        {
          "internalType": "bytes32",
          "name": "",
          "type": "bytes32"
        }
      ],
      "stateMutability": "view",
      "type": "function"
    },
    {
      "inputs": [],
      "name": "BURNER_ROLE",
      "outputs": [
        {
          "internalType": "bytes32",
          "name": "",
          "type": "bytes32"
        }
      ],
      "stateMutability": "view",
      "type": "function"
    },
    {
      "inputs": [],
      "name": "DEFAULT_ADMIN_ROLE",
      "outputs": [
        {
          "internalType": "bytes32",
          "name": "",
          "type": "bytes32"
        }
      ],
      "stateMutability": "view",
      "type": "function"
    },
    {
      "inputs": [],
      "name": "MINTER_ROLE",
      "outputs": [
        {
          "internalType": "bytes32",
          "name": "",
          "type": "bytes32"
        }
      ],
      "stateMutability": "view",
      "type": "function"
    },
    {
      "inputs": [
        {
          "internalType": "uint256",
          "name": "oldId",
          "type": "uint256"
        },
        {
          "internalType": "uint256[][3]",
          "name": "landToAdd",
          "type": "uint256[][3]"
        }
      ],
      "name": "addLand",
      "outputs": [
        {
          "internalType": "uint256",
          "name": "",
          "type": "uint256"
        }
      ],
      "stateMutability": "nonpayable",
      "type": "function"
    },
    {
      "inputs": [
        {
          "internalType": "address",
          "name": "to",
          "type": "address"
        },
        {
          "internalType": "uint256",
          "name": "tokenId",
          "type": "uint256"
        }
      ],
      "name": "approve",
      "outputs": [],
      "stateMutability": "nonpayable",
      "type": "function"
    },
    {
      "inputs": [
        {
          "internalType": "address",
          "name": "owner",
          "type": "address"
        }
      ],
      "name": "balanceOf",
      "outputs": [
        {
          "internalType": "uint256",
          "name": "",
          "type": "uint256"
        }
      ],
      "stateMutability": "view",
      "type": "function"
    },
    {
      "inputs": [
        {
          "internalType": "uint256",
          "name": "estateId",
          "type": "uint256"
        },
        {
          "internalType": "uint256[]",
          "name": "expToUnlink",
          "type": "uint256[]"
        },
        {
          "internalType": "uint256[][3]",
          "name": "landToRemove",
          "type": "uint256[][3]"
        }
      ],
      "name": "burn",
      "outputs": [],
      "stateMutability": "nonpayable",
      "type": "function"
    },
    {
      "inputs": [
        {
          "internalType": "address",
          "name": "from",
          "type": "address"
        },
        {
          "internalType": "uint256",
          "name": "estateId",
          "type": "uint256"
        }
      ],
      "name": "burnEstate",
      "outputs": [
        {
          "components": [
            {
              "components": [
                {
                  "internalType": "uint256[3]",
                  "name": "data",
                  "type": "uint256[3]"
                }
              ],
              "internalType": "struct TileLib.Tile",
              "name": "tile",
              "type": "tuple"
            }
          ],
          "internalType": "struct TileWithCoordLib.TileWithCoord[]",
          "name": "tiles",
          "type": "tuple[]"
        }
      ],
      "stateMutability": "nonpayable",
      "type": "function"
    },
    {
      "inputs": [
        {
          "internalType": "uint256",
          "name": "estateId",
          "type": "uint256"
        },
        {
          "components": [
            {
              "components": [
                {
                  "components": [
                    {
                      "internalType": "uint256[3]",
                      "name": "data",
                      "type": "uint256[3]"
                    }
                  ],
                  "internalType": "struct TileLib.Tile",
                  "name": "tile",
                  "type": "tuple"
                }
              ],
              "internalType": "struct TileWithCoordLib.TileWithCoord",
              "name": "topLeft",
              "type": "tuple"
            },
            {
              "components": [
                {
                  "components": [
                    {
                      "internalType": "uint256[3]",
                      "name": "data",
                      "type": "uint256[3]"
                    }
                  ],
                  "internalType": "struct TileLib.Tile",
                  "name": "tile",
                  "type": "tuple"
                }
              ],
              "internalType": "struct TileWithCoordLib.TileWithCoord",
              "name": "topRight",
              "type": "tuple"
            },
            {
              "components": [
                {
                  "components": [
                    {
                      "internalType": "uint256[3]",
                      "name": "data",
                      "type": "uint256[3]"
                    }
                  ],
                  "internalType": "struct TileLib.Tile",
                  "name": "tile",
                  "type": "tuple"
                }
              ],
              "internalType": "struct TileWithCoordLib.TileWithCoord",
              "name": "bottomLeft",
              "type": "tuple"
            },
            {
              "components": [
                {
                  "components": [
                    {
                      "internalType": "uint256[3]",
                      "name": "data",
                      "type": "uint256[3]"
                    }
                  ],
                  "internalType": "struct TileLib.Tile",
                  "name": "tile",
                  "type": "tuple"
                }
              ],
              "internalType": "struct TileWithCoordLib.TileWithCoord",
              "name": "bottomRight",
              "type": "tuple"
            }
          ],
          "internalType": "struct MapLib.TranslateResult",
          "name": "s",
          "type": "tuple"
        }
      ],
      "name": "contain",
      "outputs": [
        {
          "internalType": "bool",
          "name": "",
          "type": "bool"
        }
      ],
      "stateMutability": "view",
      "type": "function"
    },
    {
      "inputs": [],
      "name": "contractURI",
      "outputs": [
        {
          "internalType": "string",
          "name": "",
          "type": "string"
        }
      ],
      "stateMutability": "view",
      "type": "function"
    },
    {
      "inputs": [
        {
          "internalType": "uint256[][3]",
          "name": "landToAdd",
          "type": "uint256[][3]"
        }
      ],
      "name": "create",
      "outputs": [
        {
          "internalType": "uint256",
          "name": "estateId",
          "type": "uint256"
        }
      ],
      "stateMutability": "nonpayable",
      "type": "function"
    },
    {
      "inputs": [
        {
          "internalType": "uint256",
          "name": "tokenId",
          "type": "uint256"
        }
      ],
      "name": "exists",
      "outputs": [
        {
          "internalType": "bool",
          "name": "",
          "type": "bool"
        }
      ],
      "stateMutability": "view",
      "type": "function"
    },
    {
      "inputs": [
        {
          "internalType": "uint256",
          "name": "tokenId",
          "type": "uint256"
        }
      ],
      "name": "getApproved",
      "outputs": [
        {
          "internalType": "address",
          "name": "",
          "type": "address"
        }
      ],
      "stateMutability": "view",
      "type": "function"
    },
    {
      "inputs": [],
      "name": "getChainIndex",
      "outputs": [
        {
          "internalType": "uint256",
          "name": "",
          "type": "uint256"
        }
      ],
      "stateMutability": "view",
      "type": "function"
    },
    {
      "inputs": [
        {
          "internalType": "uint256",
          "name": "estateId",
          "type": "uint256"
        },
        {
          "internalType": "uint256",
          "name": "offset",
          "type": "uint256"
        },
        {
          "internalType": "uint256",
          "name": "limit",
          "type": "uint256"
        }
      ],
      "name": "getLandAt",
      "outputs": [
        {
          "components": [
            {
              "components": [
                {
                  "internalType": "uint256[3]",
                  "name": "data",
                  "type": "uint256[3]"
                }
              ],
              "internalType": "struct TileLib.Tile",
              "name": "tile",
              "type": "tuple"
            }
          ],
          "internalType": "struct TileWithCoordLib.TileWithCoord[]",
          "name": "",
          "type": "tuple[]"
        }
      ],
      "stateMutability": "view",
      "type": "function"
    },
    {
      "inputs": [
        {
          "internalType": "uint256",
          "name": "estateId",
          "type": "uint256"
        }
      ],
      "name": "getLandCount",
      "outputs": [
        {
          "internalType": "uint256",
          "name": "",
          "type": "uint256"
        }
      ],
      "stateMutability": "view",
      "type": "function"
    },
    {
      "inputs": [
        {
          "internalType": "uint256",
          "name": "estateId",
          "type": "uint256"
        }
      ],
      "name": "getLandLength",
      "outputs": [
        {
          "internalType": "uint256",
          "name": "",
          "type": "uint256"
        }
      ],
      "stateMutability": "view",
      "type": "function"
    },
    {
      "inputs": [],
      "name": "getLandToken",
      "outputs": [
        {
          "internalType": "address",
          "name": "",
          "type": "address"
        }
      ],
      "stateMutability": "view",
      "type": "function"
    },
    {
      "inputs": [],
      "name": "getNextId",
      "outputs": [
        {
          "internalType": "uint256",
          "name": "",
          "type": "uint256"
        }
      ],
      "stateMutability": "view",
      "type": "function"
    },
    {
      "inputs": [
        {
          "internalType": "uint256",
          "name": "storageId",
          "type": "uint256"
        }
      ],
      "name": "getOwnerOfStorage",
      "outputs": [
        {
          "internalType": "address",
          "name": "",
          "type": "address"
        }
      ],
      "stateMutability": "view",
      "type": "function"
    },
    {
      "inputs": [],
      "name": "getRegistry",
      "outputs": [
        {
          "internalType": "contract IEstateExperienceRegistry",
          "name": "",
          "type": "address"
        }
      ],
      "stateMutability": "view",
      "type": "function"
    },
    {
      "inputs": [
        {
          "internalType": "bytes32",
          "name": "role",
          "type": "bytes32"
        }
      ],
      "name": "getRoleAdmin",
      "outputs": [
        {
          "internalType": "bytes32",
          "name": "",
          "type": "bytes32"
        }
      ],
      "stateMutability": "view",
      "type": "function"
    },
    {
      "inputs": [
        {
          "internalType": "uint256",
          "name": "estateId",
          "type": "uint256"
        }
      ],
      "name": "getStorageId",
      "outputs": [
        {
          "internalType": "uint256",
          "name": "",
          "type": "uint256"
        }
      ],
      "stateMutability": "pure",
      "type": "function"
    },
    {
      "inputs": [
        {
          "internalType": "bytes32",
          "name": "role",
          "type": "bytes32"
        },
        {
          "internalType": "address",
          "name": "account",
          "type": "address"
        }
      ],
      "name": "grantRole",
      "outputs": [],
      "stateMutability": "nonpayable",
      "type": "function"
    },
    {
      "inputs": [
        {
          "internalType": "bytes32",
          "name": "role",
          "type": "bytes32"
        },
        {
          "internalType": "address",
          "name": "account",
          "type": "address"
        }
      ],
      "name": "hasRole",
      "outputs": [
        {
          "internalType": "bool",
          "name": "",
          "type": "bool"
        }
      ],
      "stateMutability": "view",
      "type": "function"
    },
    {
      "inputs": [
        {
          "internalType": "address",
          "name": "trustedForwarder",
          "type": "address"
        },
        {
          "internalType": "address",
          "name": "admin",
          "type": "address"
        },
        {
          "internalType": "address",
          "name": "landToken_",
          "type": "address"
        },
        {
          "internalType": "uint16",
          "name": "chainIndex_",
          "type": "uint16"
        },
        {
          "internalType": "string",
          "name": "name_",
          "type": "string"
        },
        {
          "internalType": "string",
          "name": "symbol_",
          "type": "string"
        }
      ],
      "name": "initV1",
      "outputs": [],
      "stateMutability": "nonpayable",
      "type": "function"
    },
    {
      "inputs": [
        {
          "internalType": "address",
          "name": "owner",
          "type": "address"
        },
        {
          "internalType": "address",
          "name": "operator",
          "type": "address"
        }
      ],
      "name": "isApprovedForAll",
      "outputs": [
        {
          "internalType": "bool",
          "name": "",
          "type": "bool"
        }
      ],
      "stateMutability": "view",
      "type": "function"
    },
    {
      "inputs": [
        {
          "internalType": "address",
          "name": "forwarder",
          "type": "address"
        }
      ],
      "name": "isTrustedForwarder",
      "outputs": [
        {
          "internalType": "bool",
          "name": "",
          "type": "bool"
        }
      ],
      "stateMutability": "view",
      "type": "function"
    },
    {
      "inputs": [
        {
          "internalType": "address",
          "name": "to",
          "type": "address"
        },
        {
          "components": [
            {
              "components": [
                {
                  "internalType": "uint256[3]",
                  "name": "data",
                  "type": "uint256[3]"
                }
              ],
              "internalType": "struct TileLib.Tile",
              "name": "tile",
              "type": "tuple"
            }
          ],
          "internalType": "struct TileWithCoordLib.TileWithCoord[]",
          "name": "tiles",
          "type": "tuple[]"
        }
      ],
      "name": "mintEstate",
      "outputs": [
        {
          "internalType": "uint256",
          "name": "",
          "type": "uint256"
        }
      ],
      "stateMutability": "nonpayable",
      "type": "function"
    },
    {
      "inputs": [],
      "name": "name",
      "outputs": [
        {
          "internalType": "string",
          "name": "",
          "type": "string"
        }
      ],
      "stateMutability": "view",
      "type": "function"
    },
    {
      "inputs": [
        {
          "internalType": "address",
          "name": "",
          "type": "address"
        },
        {
          "internalType": "address",
          "name": "",
          "type": "address"
        },
        {
          "internalType": "uint256[]",
          "name": "",
          "type": "uint256[]"
        },
        {
          "internalType": "bytes",
          "name": "",
          "type": "bytes"
        }
      ],
      "name": "onERC721BatchReceived",
      "outputs": [
        {
          "internalType": "bytes4",
          "name": "",
          "type": "bytes4"
        }
      ],
      "stateMutability": "view",
      "type": "function"
    },
    {
      "inputs": [
        {
          "internalType": "address",
          "name": "",
          "type": "address"
        },
        {
          "internalType": "address",
          "name": "",
          "type": "address"
        },
        {
          "internalType": "uint256",
          "name": "",
          "type": "uint256"
        },
        {
          "internalType": "bytes",
          "name": "",
          "type": "bytes"
        }
      ],
      "name": "onERC721Received",
      "outputs": [
        {
          "internalType": "bytes4",
          "name": "",
          "type": "bytes4"
        }
      ],
      "stateMutability": "view",
      "type": "function"
    },
    {
      "inputs": [
        {
          "internalType": "uint256",
          "name": "tokenId",
          "type": "uint256"
        }
      ],
      "name": "ownerOf",
      "outputs": [
        {
          "internalType": "address",
          "name": "",
          "type": "address"
        }
      ],
      "stateMutability": "view",
      "type": "function"
    },
    {
      "inputs": [
        {
          "internalType": "bytes32",
          "name": "role",
          "type": "bytes32"
        },
        {
          "internalType": "address",
          "name": "account",
          "type": "address"
        }
      ],
      "name": "renounceRole",
      "outputs": [],
      "stateMutability": "nonpayable",
      "type": "function"
    },
    {
      "inputs": [
        {
          "internalType": "bytes32",
          "name": "role",
          "type": "bytes32"
        },
        {
          "internalType": "address",
          "name": "account",
          "type": "address"
        }
      ],
      "name": "revokeRole",
      "outputs": [],
      "stateMutability": "nonpayable",
      "type": "function"
    },
    {
      "inputs": [
        {
          "internalType": "address",
          "name": "from",
          "type": "address"
        },
        {
          "internalType": "address",
          "name": "to",
          "type": "address"
        },
        {
          "internalType": "uint256",
          "name": "tokenId",
          "type": "uint256"
        }
      ],
      "name": "safeTransferFrom",
      "outputs": [],
      "stateMutability": "nonpayable",
      "type": "function"
    },
    {
      "inputs": [
        {
          "internalType": "address",
          "name": "from",
          "type": "address"
        },
        {
          "internalType": "address",
          "name": "to",
          "type": "address"
        },
        {
          "internalType": "uint256",
          "name": "tokenId",
          "type": "uint256"
        },
        {
          "internalType": "bytes",
          "name": "_data",
          "type": "bytes"
        }
      ],
      "name": "safeTransferFrom",
      "outputs": [],
      "stateMutability": "nonpayable",
      "type": "function"
    },
    {
      "inputs": [
        {
          "internalType": "address",
          "name": "operator",
          "type": "address"
        },
        {
          "internalType": "bool",
          "name": "approved",
          "type": "bool"
        }
      ],
      "name": "setApprovalForAll",
      "outputs": [],
      "stateMutability": "nonpayable",
      "type": "function"
    },
    {
      "inputs": [
        {
          "internalType": "string",
          "name": "baseUri",
          "type": "string"
        }
      ],
      "name": "setBaseURI",
      "outputs": [],
      "stateMutability": "nonpayable",
      "type": "function"
    },
    {
      "inputs": [
        {
          "internalType": "address",
          "name": "landToken",
          "type": "address"
        }
      ],
      "name": "setLandToken",
      "outputs": [],
      "stateMutability": "nonpayable",
      "type": "function"
    },
    {
      "inputs": [
        {
          "internalType": "contract IEstateExperienceRegistry",
          "name": "registry",
          "type": "address"
        }
      ],
      "name": "setRegistry",
      "outputs": [],
      "stateMutability": "nonpayable",
      "type": "function"
    },
    {
      "inputs": [
        {
          "internalType": "address",
          "name": "trustedForwarder",
          "type": "address"
        }
      ],
      "name": "setTrustedForwarder",
      "outputs": [],
      "stateMutability": "nonpayable",
      "type": "function"
    },
    {
      "inputs": [
        {
          "internalType": "bytes4",
          "name": "interfaceId",
          "type": "bytes4"
        }
      ],
      "name": "supportsInterface",
      "outputs": [
        {
          "internalType": "bool",
          "name": "",
          "type": "bool"
        }
      ],
      "stateMutability": "view",
      "type": "function"
    },
    {
      "inputs": [],
      "name": "symbol",
      "outputs": [
        {
          "internalType": "string",
          "name": "",
          "type": "string"
        }
      ],
      "stateMutability": "view",
      "type": "function"
    },
    {
      "inputs": [
        {
          "internalType": "uint256",
          "name": "tokenId",
          "type": "uint256"
        }
      ],
      "name": "tokenURI",
      "outputs": [
        {
          "internalType": "string",
          "name": "",
          "type": "string"
        }
      ],
      "stateMutability": "view",
      "type": "function"
    },
    {
      "inputs": [
        {
          "internalType": "address",
          "name": "from",
          "type": "address"
        },
        {
          "internalType": "address",
          "name": "to",
          "type": "address"
        },
        {
          "internalType": "uint256",
          "name": "tokenId",
          "type": "uint256"
        }
      ],
      "name": "transferFrom",
      "outputs": [],
      "stateMutability": "nonpayable",
      "type": "function"
    },
    {
      "inputs": [
        {
          "internalType": "uint256",
          "name": "oldId",
          "type": "uint256"
        },
        {
          "internalType": "uint256[][3]",
          "name": "landToAdd",
          "type": "uint256[][3]"
        },
        {
          "internalType": "uint256[]",
          "name": "expToUnlink",
          "type": "uint256[]"
        },
        {
          "internalType": "uint256[][3]",
          "name": "landToRemove",
          "type": "uint256[][3]"
        }
      ],
      "name": "update",
      "outputs": [
        {
          "internalType": "uint256",
          "name": "",
          "type": "uint256"
        }
      ],
      "stateMutability": "nonpayable",
      "type": "function"
    }
  ],
  "transactionHash": "0x435547756580b42e7338fd3da738e2f9b9a9d6e73d841b9e196bce512f7e21cf",
  "args": [],
  "numDeployments": 1,
  "solcInputHash": "6b6bb51793ac28176be0d330acf83587",
  "bytecode": "0x608060405234801561001057600080fd5b50615ac880620000216000396000f3fe608060405234801561001057600080fd5b50600436106103205760003560e01c80638bee92e6116101a7578063bc968326116100ee578063d547741f11610097578063e8a3d48511610071578063e8a3d485146107b6578063e985e9c5146107be578063fa83e33a146107fa57610320565b8063d547741f14610788578063da7422281461079b578063e5d7dbd7146107ae57610320565b8063cd17aa41116100c8578063cd17aa411461073b578063d3fec7cf1461074e578063d53913931461076157610320565b8063bc968326146106dd578063c0ae401614610715578063c87b56dd1461072857610320565b8063a217fddf11610150578063a91ee0dc1161012a578063a91ee0dc146106a4578063a9266dde146106b7578063b88d4fde146106ca57610320565b8063a217fddf14610676578063a22cb4651461067e578063a70c47091461069157610320565b806395d89b411161018157806395d89b41146106485780639b64c4fc146106505780639c0d90581461066357610320565b80638bee92e6146105e95780638f3d9daa146105fc57806391d148541461060f57610320565b806342842e0e1161026b5780635ab1bd531161021457806370a08231116101ee57806370a082311461059c57806375b238fc146105af5780637ad237a0146105d657610320565b80635ab1bd531461056e5780636352211e146105765780636c7ecdff1461058957610320565b806355f804b31161024557806355f804b314610519578063572b6c051461052c5780635a09942f1461054e57610320565b806342842e0e146104ba5780634b808c46146104cd5780634f558e791461050657610320565b806321ab0c71116102cd578063282c51f3116102a7578063282c51f31461046d5780632f2ff15d1461049457806336568abe146104a757610320565b806321ab0c711461042457806323b872dd14610437578063248a9ca31461044a57610320565b8063095ea7b3116102fe578063095ea7b31461038d5780630d363f0d146103a2578063150b7a02146103ec57610320565b806301ffc9a71461032557806306fdde031461034d578063081812fc14610362575b600080fd5b610338610333366004614f9b565b61080d565b60405190151581526020015b60405180910390f35b61035561086e565b6040516103449190615634565b610375610370366004614f5f565b610901565b6040516001600160a01b039091168152602001610344565b6103a061039b366004614dc3565b6109ac565b005b7ef52b0807fdece1f767ee6f74b46926674002b92e5176c0b1fbc1c6a045384b54700100000000000000000000000000000000900463ffffffff165b604051908152602001610344565b61040b6103fa366004614be6565b630a85bd0160e11b95945050505050565b6040516001600160e01b03199091168152602001610344565b6103de610432366004614f5f565b610af0565b6103a0610445366004614ba6565b610afb565b6103de610458366004614f5f565b60009081526065602052604090206001015490565b6103de7f3c11d16cbaffd01df69ce1c404f6340ee057498f5f00246190ea54220576a84881565b6103a06104a2366004614f77565b610b89565b6103a06104b5366004614f77565b610bb6565b6103a06104c8366004614ba6565b610c52565b61040b6104db366004614b14565b7f4b808c46000000000000000000000000000000000000000000000000000000009695505050505050565b610338610514366004614f5f565b610c6d565b6103a0610527366004614fd3565b610c8c565b61033861053a366004614a03565b60c9546001600160a01b0390811691161490565b61056161055c3660046151fa565b610e2a565b6040516103449190615621565b610375610ef0565b610375610584366004614f5f565b610f23565b6103de610597366004615070565b610fae565b6103de6105aa366004614a03565b611348565b6103de7fa49807205ce4d355092ef5a8a18f56e8913cf4a201fbe287825b095693c2177581565b6103de6105e4366004614d13565b6113e2565b6103386105f7366004615174565b611543565b61056161060a366004614dc3565b6115fb565b61033861061d366004614f77565b60009182526065602090815260408084206001600160a01b0393909316845291905290205460ff1690565b6103556118cc565b6103de61065e366004614f5f565b6118db565b6103de610671366004614dee565b611986565b6103de600081565b6103a061068c366004614d96565b611b99565b6103a061069f366004615104565b611bab565b6103a06106b2366004614a03565b611d68565b6103de6106c5366004614f5f565b611ec3565b6103a06106d8366004614c57565b611f22565b7ef52b0807fdece1f767ee6f74b46926674002b92e5176c0b1fbc1c6a045384b546fffffffffffffffffffffffffffffffff166103de565b6103de61072336600461502b565b611fb7565b610355610736366004614f5f565b61240d565b6103a0610749366004614a03565b6124f5565b61037561075c366004614f5f565b612647565b6103de7f9f2df0fed2c77648de5860a4cc508cd0818c85b8b8a1ab4ceeef8d981c8956a681565b6103a0610796366004614f77565b61265b565b6103a06107a9366004614a03565b612683565b610375612716565b61035561273d565b6103386107cc366004614a1f565b6001600160a01b039182166000908152609c6020908152604080832093909416825291909152205460ff1690565b6103a0610808366004614a57565b612790565b60006001600160e01b03198216630a85bd0160e11b148061085757506001600160e01b031982167f5e8bf64400000000000000000000000000000000000000000000000000000000145b806108665750610866826128f8565b90505b919050565b60606097805461087d90615983565b80601f01602080910402602001604051908101604052809291908181526020018280546108a990615983565b80156108f65780601f106108cb576101008083540402835291602001916108f6565b820191906000526020600020905b8154815290600101906020018083116108d957829003601f168201915b505050505090505b90565b6000818152609960205260408120546001600160a01b03166109905760405162461bcd60e51b815260206004820152602c60248201527f4552433732313a20617070726f76656420717565727920666f72206e6f6e657860448201527f697374656e7420746f6b656e000000000000000000000000000000000000000060648201526084015b60405180910390fd5b506000908152609b60205260409020546001600160a01b031690565b60006109b782610f23565b9050806001600160a01b0316836001600160a01b03161415610a415760405162461bcd60e51b815260206004820152602160248201527f4552433732313a20617070726f76616c20746f2063757272656e74206f776e6560448201527f72000000000000000000000000000000000000000000000000000000000000006064820152608401610987565b806001600160a01b0316610a53612912565b6001600160a01b03161480610a6f5750610a6f816107cc612912565b610ae15760405162461bcd60e51b815260206004820152603860248201527f4552433732313a20617070726f76652063616c6c6572206973206e6f74206f7760448201527f6e6572206e6f7220617070726f76656420666f7220616c6c00000000000000006064820152608401610987565b610aeb8383612921565b505050565b60006108668261299c565b610b0c610b06612912565b826129ca565b610b7e5760405162461bcd60e51b815260206004820152603160248201527f4552433732313a207472616e736665722063616c6c6572206973206e6f74206f60448201527f776e6572206e6f7220617070726f7665640000000000000000000000000000006064820152608401610987565b610aeb838383612ad2565b600082815260656020526040902060010154610bac81610ba7612912565b612cac565b610aeb8383612d2c565b610bbe612912565b6001600160a01b0316816001600160a01b031614610c445760405162461bcd60e51b815260206004820152602f60248201527f416363657373436f6e74726f6c3a2063616e206f6e6c792072656e6f756e636560448201527f20726f6c657320666f722073656c6600000000000000000000000000000000006064820152608401610987565b610c4e8282612dcf565b5050565b610aeb83838360405180602001604052806000815250611f22565b6000818152609960205260408120546001600160a01b03161515610866565b610cb87fa49807205ce4d355092ef5a8a18f56e8913cf4a201fbe287825b095693c2177561061d612912565b610cf05760405162461bcd60e51b81526020600482015260096024820152683737ba1030b236b4b760b91b6044820152606401610987565b60007ef52b0807fdece1f767ee6f74b46926674002b92e5176c0b1fbc1c6a045384a6002018054610d2090615983565b80601f0160208091040260200160405190810160405280929190818152602001828054610d4c90615983565b8015610d995780601f10610d6e57610100808354040283529160200191610d99565b820191906000526020600020905b815481529060010190602001808311610d7c57829003601f168201915b505050505090508282610dc87ef52b0807fdece1f767ee6f74b46926674002b92e5176c0b1fbc1c6a045384a90565b6002019190610dd892919061479a565b50610de1612912565b6001600160a01b03167fcad0ef056b20aa50414ef503ee13c75ff786ba9317d7f8a4379a9892310c9338828585604051610e1d93929190615647565b60405180910390a2505050565b6060610e3584612e70565b6040517f11c7db8e00000000000000000000000000000000000000000000000000000000815260019091016004820152602481018490526044810183905273f23B8c9debCdCEa2a40E81c3f6d786987069D40d906311c7db8e9060640160006040518083038186803b158015610eaa57600080fd5b505af4158015610ebe573d6000803e3d6000fd5b505050506040513d6000823e601f3d908101601f19168201604052610ee69190810190614e21565b90505b9392505050565b60007f72bb9cd2f41a3eb637a87b61a3cb3e6bf6772f1a5774103c4fbec1f2038e34df5b546001600160a01b0316905090565b6000818152609960205260408120546001600160a01b0316806108665760405162461bcd60e51b815260206004820152602960248201527f4552433732313a206f776e657220717565727920666f72206e6f6e657869737460448201527f656e7420746f6b656e00000000000000000000000000000000000000000000006064820152608401610987565b6000610fc1610fbb612912565b876129ca565b61100d5760405162461bcd60e51b815260206004820181905260248201527f63616c6c6572206973206e6f74206f776e6572206e6f7220617070726f7665646044820152606401610987565b6000611019868061572e565b905011806110325750600061102e838061572e565b9050115b8061103c57508215155b6110885760405162461bcd60e51b815260206004820152601160248201527f6e6f7468696e6720746f207570646174650000000000000000000000000000006044820152606401610987565b600061109387612e70565b90506110a7816110a1612912565b88612eb1565b6110bb816110b3612912565b858888613167565b6040517f5a20ec7200000000000000000000000000000000000000000000000000000000815260018201600482015273f23B8c9debCdCEa2a40E81c3f6d786987069D40d90635a20ec729060240160206040518083038186803b15801561112157600080fd5b505af4158015611135573d6000803e3d6000fd5b505050506040513d601f19601f820116820180604052508101906111599190614f43565b156111a65760405162461bcd60e51b815260206004820152601660248201527f6573746174652063616e6e6f7420626520656d707479000000000000000000006044820152606401610987565b6040516331884dd560e21b815260018201600482015273f23B8c9debCdCEa2a40E81c3f6d786987069D40d9063c62137549060240160206040518083038186803b1580156111f357600080fd5b505af4158015611207573d6000803e3d6000fd5b505050506040513d601f19601f8201168201806040525081019061122b9190614f43565b6112665760405162461bcd60e51b815260206004820152600c60248201526b1b9bdd0818591a9858d95b9d60a21b6044820152606401610987565b8054611271906134b8565b808255877f9d558f479216a061e3c0dd35693fdc4904a085e0ec5582272591dda3f9ab27c461129e612912565b604051636429e7ff60e11b815260018601600482015273f23B8c9debCdCEa2a40E81c3f6d786987069D40d9063c853cffe9060240160006040518083038186803b1580156112eb57600080fd5b505af41580156112ff573d6000803e3d6000fd5b505050506040513d6000823e601f3d908101601f191682016040526113279190810190614e21565b604051611335929190615550565b60405180910390a3549695505050505050565b60006001600160a01b0382166113c65760405162461bcd60e51b815260206004820152602a60248201527f4552433732313a2062616c616e636520717565727920666f7220746865207a6560448201527f726f2061646472657373000000000000000000000000000000000000000000006064820152608401610987565b506001600160a01b03166000908152609a602052604090205490565b60006114107f9f2df0fed2c77648de5860a4cc508cd0818c85b8b8a1ab4ceeef8d981c8956a661061d612912565b61145c5760405162461bcd60e51b815260206004820152600e60248201527f6e6f7420617574686f72697a65640000000000000000000000000000000000006044820152606401610987565b6000611467856134eb565b6040517fa1b4c2bc00000000000000000000000000000000000000000000000000000000815290915073f23B8c9debCdCEa2a40E81c3f6d786987069D40d9063a1b4c2bc906114c19060018501908890889060040161568c565b60006040518083038186803b1580156114d957600080fd5b505af41580156114ed573d6000803e3d6000fd5b5050505080600001547f8ba5d7096a6e37fd8a143e486dbc3dc12dc25159042fca9431af78475768d5d961151f612912565b878787604051611532949392919061541c565b60405180910390a254949350505050565b600061154e83612e70565b6040517ff5fd439d00000000000000000000000000000000000000000000000000000000815273f23B8c9debCdCEa2a40E81c3f6d786987069D40d9163f5fd439d916115a2916001019086906004016156d3565b60206040518083038186803b1580156115ba57600080fd5b505af41580156115ce573d6000803e3d6000fd5b505050506040513d601f19601f820116820180604052508101906115f29190614f43565b90505b92915050565b60606116297f3c11d16cbaffd01df69ce1c404f6340ee057498f5f00246190ea54220576a84861061d612912565b6116755760405162461bcd60e51b815260206004820152600e60248201527f6e6f7420617574686f72697a65640000000000000000000000000000000000006044820152606401610987565b61167f83836129ca565b6116cb5760405162461bcd60e51b815260206004820181905260248201527f63616c6c6572206973206e6f74206f776e6572206e6f7220617070726f7665646044820152606401610987565b60006116d683612e70565b604051636429e7ff60e11b815260018201600482015290915073f23B8c9debCdCEa2a40E81c3f6d786987069D40d9063c853cffe9060240160006040518083038186803b15801561172657600080fd5b505af415801561173a573d6000803e3d6000fd5b505050506040513d6000823e601f3d908101601f191682016040526117629190810190614e21565b7f72bb9cd2f41a3eb637a87b61a3cb3e6bf6772f1a5774103c4fbec1f2038e34df549092506001600160a01b03168015611878576040517fad51dacb0000000000000000000000000000000000000000000000000000000081526001600160a01b0382169063ad51dacb906117db908690600401615621565b60206040518083038186803b1580156117f357600080fd5b505afa158015611807573d6000803e3d6000fd5b505050506040513d601f19601f8201168201806040525081019061182b9190614f43565b156118785760405162461bcd60e51b815260206004820152601160248201527f6d75737420756e6c696e6b2066697273740000000000000000000000000000006044820152606401610987565b611881826135d5565b837fa95f078511bfff5e18ae1876d396070153217e28e9939b24ee2b407bea5c93da6118ab612912565b87866040516118bc93929190615475565b60405180910390a2505092915050565b60606098805461087d90615983565b60006118e682612e70565b6040517fac775cf80000000000000000000000000000000000000000000000000000000081526001909101600482015273f23B8c9debCdCEa2a40E81c3f6d786987069D40d9063ac775cf8906024015b60206040518083038186803b15801561194e57600080fd5b505af4158015611962573d6000803e3d6000fd5b505050506040513d601f19601f820116820180604052508101906108669190615013565b600080611999611994612912565b6134eb565b905060006119a7848061572e565b9050116119f65760405162461bcd60e51b815260206004820152600e60248201527f6e6f7468696e6720746f206164640000000000000000000000000000000000006044820152606401610987565b611a0881611a02612912565b85612eb1565b6040516331884dd560e21b815260018201600482015273f23B8c9debCdCEa2a40E81c3f6d786987069D40d9063c62137549060240160206040518083038186803b158015611a5557600080fd5b505af4158015611a69573d6000803e3d6000fd5b505050506040513d601f19601f82011682018060405250810190611a8d9190614f43565b611ac85760405162461bcd60e51b815260206004820152600c60248201526b1b9bdd0818591a9858d95b9d60a21b6044820152606401610987565b80547f1fdc5a6efe117110d3a653439a0b1fedc9258a17c8b2477c5c7586accb26d289611af3612912565b604051636429e7ff60e11b815260018501600482015273f23B8c9debCdCEa2a40E81c3f6d786987069D40d9063c853cffe9060240160006040518083038186803b158015611b4057600080fd5b505af4158015611b54573d6000803e3d6000fd5b505050506040513d6000823e601f3d908101601f19168201604052611b7c9190810190614e21565b604051611b8a929190615550565b60405180910390a25492915050565b610c4e611ba4612912565b83836136c5565b611bbc611bb6612912565b856129ca565b611c085760405162461bcd60e51b815260206004820181905260248201527f63616c6c6572206973206e6f74206f776e6572206e6f7220617070726f7665646044820152606401610987565b6000611c1385612e70565b9050611c2981611c21612912565b848787613167565b6040517f5a20ec7200000000000000000000000000000000000000000000000000000000815260018201600482015273f23B8c9debCdCEa2a40E81c3f6d786987069D40d90635a20ec729060240160206040518083038186803b158015611c8f57600080fd5b505af4158015611ca3573d6000803e3d6000fd5b505050506040513d601f19601f82011682018060405250810190611cc79190614f43565b611d135760405162461bcd60e51b815260206004820152600d60248201527f6d6170206e6f7420656d707479000000000000000000000000000000000000006044820152606401610987565b611d1c816135d5565b847fc16ce9c4d0002876fc4c9679fc409385f51b8d3659a3b307d9a35931081bcc3f611d46612912565b6040516001600160a01b03909116815260200160405180910390a25050505050565b611d947fa49807205ce4d355092ef5a8a18f56e8913cf4a201fbe287825b095693c2177561061d612912565b611dcc5760405162461bcd60e51b81526020600482015260096024820152683737ba1030b236b4b760b91b6044820152606401610987565b6001600160a01b038116611e225760405162461bcd60e51b815260206004820152600f60248201527f696e76616c6964206164647265737300000000000000000000000000000000006044820152606401610987565b7f72bb9cd2f41a3eb637a87b61a3cb3e6bf6772f1a5774103c4fbec1f2038e34df80546001600160a01b0383811673ffffffffffffffffffffffffffffffffffffffff1983161790925516611e75612912565b604080516001600160a01b038481168252858116602083015292909216917f814a095c46e008854bbfd092e4981c02e2e623d3ba415d78ff58b5900956c16491015b60405180910390a25050565b6000611ece82612e70565b6040517f7c2c51480000000000000000000000000000000000000000000000000000000081526001909101600482015273f23B8c9debCdCEa2a40E81c3f6d786987069D40d90637c2c514890602401611936565b611f33611f2d612912565b836129ca565b611fa55760405162461bcd60e51b815260206004820152603160248201527f4552433732313a207472616e736665722063616c6c6572206973206e6f74206f60448201527f776e6572206e6f7220617070726f7665640000000000000000000000000000006064820152608401610987565b611fb184848484613794565b50505050565b6000611fca611fc4612912565b846129ca565b6120165760405162461bcd60e51b815260206004820181905260248201527f63616c6c6572206973206e6f74206f776e6572206e6f7220617070726f7665646044820152606401610987565b6000612022838061572e565b9050116120715760405162461bcd60e51b815260206004820152600e60248201527f6e6f7468696e6720746f206164640000000000000000000000000000000000006044820152606401610987565b600061207c84612e70565b9050612088838061572e565b9050600114156122625773f23B8c9debCdCEa2a40E81c3f6d786987069D40d638addfdc4600183016120bd602087018761572e565b60008181106120dc57634e487b7160e01b600052603260045260246000fd5b905060200201358660026003811061210457634e487b7160e01b600052603260045260246000fd5b602002810190612114919061572e565b600081811061213357634e487b7160e01b600052603260045260246000fd5b905060200201358760006003811061215b57634e487b7160e01b600052603260045260246000fd5b60200281019061216b919061572e565b600081811061218a57634e487b7160e01b600052603260045260246000fd5b905060200201356040518563ffffffff1660e01b81526004016121c6949392919093845260208401929092526040830152606082015260800190565b60206040518083038186803b1580156121de57600080fd5b505af41580156121f2573d6000803e3d6000fd5b505050506040513d601f19601f820116820180604052508101906122169190614f43565b6122515760405162461bcd60e51b815260206004820152600c60248201526b1b9bdd0818591a9858d95b9d60a21b6044820152606401610987565b61225d81611a02612912565b61232e565b61226e81611a02612912565b6040516331884dd560e21b815260018201600482015273f23B8c9debCdCEa2a40E81c3f6d786987069D40d9063c62137549060240160206040518083038186803b1580156122bb57600080fd5b505af41580156122cf573d6000803e3d6000fd5b505050506040513d601f19601f820116820180604052508101906122f39190614f43565b61232e5760405162461bcd60e51b815260206004820152600c60248201526b1b9bdd0818591a9858d95b9d60a21b6044820152606401610987565b8054612339906134b8565b808255847f412391f5f3bd0705db9b0ab9939daa3ba27c2e72ff1f3e171425cc00406ac58a612366612912565b604051636429e7ff60e11b815260018601600482015273f23B8c9debCdCEa2a40E81c3f6d786987069D40d9063c853cffe9060240160006040518083038186803b1580156123b357600080fd5b505af41580156123c7573d6000803e3d6000fd5b505050506040513d6000823e601f3d908101601f191682016040526123ef9190810190614e21565b6040516123fd929190615550565b60405180910390a3549392505050565b6000818152609960205260409020546060906001600160a01b031661249a5760405162461bcd60e51b815260206004820152602f60248201527f4552433732314d657461646174613a2055524920717565727920666f72206e6f60448201527f6e6578697374656e7420746f6b656e00000000000000000000000000000000006064820152608401610987565b60006124a461381d565b905060008151116124c45760405180602001604052806000815250610ee9565b806124ce8461384d565b6040516020016124df92919061532b565b6040516020818303038152906040529392505050565b6125217fa49807205ce4d355092ef5a8a18f56e8913cf4a201fbe287825b095693c2177561061d612912565b6125595760405162461bcd60e51b81526020600482015260096024820152683737ba1030b236b4b760b91b6044820152606401610987565b6001600160a01b0381166125af5760405162461bcd60e51b815260206004820152600f60248201527f696e76616c6964206164647265737300000000000000000000000000000000006044820152606401610987565b7ef52b0807fdece1f767ee6f74b46926674002b92e5176c0b1fbc1c6a045384a80546001600160a01b0383811673ffffffffffffffffffffffffffffffffffffffff1983161790925516612601612912565b604080516001600160a01b038481168252858116602083015292909216917f43348694b30dafadd67997415d04baa9eed18579262b5bd26256362b89b575c29101611eb7565b600061086661265583612e70565b54610f23565b60008281526065602052604090206001015461267981610ba7612912565b610aeb8383612dcf565b6126af7fa49807205ce4d355092ef5a8a18f56e8913cf4a201fbe287825b095693c2177561061d612912565b6126e75760405162461bcd60e51b81526020600482015260096024820152683737ba1030b236b4b760b91b6044820152606401610987565b60c9805473ffffffffffffffffffffffffffffffffffffffff19166001600160a01b0392909216919091179055565b60007ef52b0807fdece1f767ee6f74b46926674002b92e5176c0b1fbc1c6a045384a610f14565b6060600061274961381d565b90506000815111612769576040518060200160405280600081525061278a565b8060405160200161277a919061535a565b6040516020818303038152906040525b91505090565b600054610100900460ff166127ab5760005460ff16156127af565b303b155b6128215760405162461bcd60e51b815260206004820152602e60248201527f496e697469616c697a61626c653a20636f6e747261637420697320616c72656160448201527f647920696e697469616c697a65640000000000000000000000000000000000006064820152608401610987565b600054610100900460ff1615801561284c576000805460ff1961ff0019909116610100171660011790555b6128558961399c565b6128c885858080601f01602080910402602001604051908101604052809392919081815260200183838082843760009201919091525050604080516020601f89018190048102820181019092528781529250879150869081908401838280828437600092019190915250613a0792505050565b6128d188613a99565b6128db8787613b12565b80156128ed576000805461ff00191690555b505050505050505050565b600061290382613c2e565b80610866575061086682613c9b565b600061291c613d02565b905090565b6000818152609b60205260409020805473ffffffffffffffffffffffffffffffffffffffff19166001600160a01b038416908117909155819061296382610f23565b6001600160a01b03167f8c5be1e5ebec7d5bd14f71427d1e84f3dd0314c0f7b2291e5b200ac8c7c3b92560405160405180910390a45050565b60006129aa60606002615839565b6129b660606002615839565b6129c090846157df565b610866919061590a565b6000818152609960205260408120546001600160a01b0316612a545760405162461bcd60e51b815260206004820152602c60248201527f4552433732313a206f70657261746f7220717565727920666f72206e6f6e657860448201527f697374656e7420746f6b656e00000000000000000000000000000000000000006064820152608401610987565b6000612a5f83610f23565b9050806001600160a01b0316846001600160a01b03161480612a9a5750836001600160a01b0316612a8f84610901565b6001600160a01b0316145b80612aca57506001600160a01b038082166000908152609c602090815260408083209388168352929052205460ff165b949350505050565b826001600160a01b0316612ae582610f23565b6001600160a01b031614612b615760405162461bcd60e51b815260206004820152602960248201527f4552433732313a207472616e73666572206f6620746f6b656e2074686174206960448201527f73206e6f74206f776e00000000000000000000000000000000000000000000006064820152608401610987565b6001600160a01b038216612bdc5760405162461bcd60e51b8152602060048201526024808201527f4552433732313a207472616e7366657220746f20746865207a65726f2061646460448201527f72657373000000000000000000000000000000000000000000000000000000006064820152608401610987565b612be7600082612921565b6001600160a01b0383166000908152609a60205260408120805460019290612c10908490615929565b90915550506001600160a01b0382166000908152609a60205260408120805460019290612c3e9084906157c7565b9091555050600081815260996020526040808220805473ffffffffffffffffffffffffffffffffffffffff19166001600160a01b0386811691821790925591518493918716917fddf252ad1be2c89b69c2b068fc378daa952ba7f163c4a11628f55a4df523b3ef91a4505050565b60008281526065602090815260408083206001600160a01b038516845290915290205460ff16610c4e57612cea816001600160a01b03166014613d4c565b612cf5836020613d4c565b604051602001612d0692919061539b565b60408051601f198184030181529082905262461bcd60e51b825261098791600401615634565b60008281526065602090815260408083206001600160a01b038516845290915290205460ff16610c4e5760008281526065602090815260408083206001600160a01b03851684529091529020805460ff19166001179055612d8b612912565b6001600160a01b0316816001600160a01b0316837f2f8788117e7eff1d82e926ec794901d17c78024a50270940304540a733656f0d60405160405180910390a45050565b60008281526065602090815260408083206001600160a01b038516845290915290205460ff1615610c4e5760008281526065602090815260408083206001600160a01b03851684529091529020805460ff19169055612e2c612912565b6001600160a01b0316816001600160a01b0316837ff6391f5c32d9c69d2a47ea670b442974b53935d1edc7fd64eb21e047a839171b60405160405180910390a45050565b60007ef52b0807fdece1f767ee6f74b46926674002b92e5176c0b1fbc1c6a045384d81612e9c8461299c565b81526020019081526020016000209050919050565b6000612ebd828061572e565b9150612ece9050602083018361572e565b905081148015612eeb5750612ee6604083018361572e565b905081145b612f375760405162461bcd60e51b815260206004820152600c60248201527f696e76616c6964206461746100000000000000000000000000000000000000006044820152606401610987565b60005b818110156130b65773f23B8c9debCdCEa2a40E81c3f6d786987069D40d63f9b9fec660018701612f6d602087018761572e565b85818110612f8b57634e487b7160e01b600052603260045260246000fd5b9050602002013586600260038110612fb357634e487b7160e01b600052603260045260246000fd5b602002810190612fc3919061572e565b86818110612fe157634e487b7160e01b600052603260045260246000fd5b905060200201358760006003811061300957634e487b7160e01b600052603260045260246000fd5b602002810190613019919061572e565b8781811061303757634e487b7160e01b600052603260045260246000fd5b905060200201356040518563ffffffff1660e01b8152600401613073949392919093845260208401929092526040830152606082015260800190565b60006040518083038186803b15801561308b57600080fd5b505af415801561309f573d6000803e3d6000fd5b5050505080806130ae906159e8565b915050612f3a565b507ef52b0807fdece1f767ee6f74b46926674002b92e5176c0b1fbc1c6a045384a546001600160a01b031663eaa5e06784306130f2868061572e565b6130ff602089018961572e565b61310c60408b018b61572e565b6040518963ffffffff1660e01b815260040161312f9897969594939291906154a1565b600060405180830381600087803b15801561314957600080fd5b505af115801561315d573d6000803e3d6000fd5b5050505050505050565b6000613173848061572e565b91506131849050602085018561572e565b9050811480156131a1575061319c604085018561572e565b905081145b6131ed5760405162461bcd60e51b815260206004820152601160248201527f696e76616c6964207175616420646174610000000000000000000000000000006044820152606401610987565b7f72bb9cd2f41a3eb637a87b61a3cb3e6bf6772f1a5774103c4fbec1f2038e34df546001600160a01b0316801561337b576040517f12202d0a0000000000000000000000000000000000000000000000000000000081526001600160a01b038216906312202d0a9061326790899088908890600401615572565b600060405180830381600087803b15801561328157600080fd5b505af1158015613295573d6000803e3d6000fd5b50506040517f3cbe39970000000000000000000000000000000000000000000000000000000081526001600160a01b0384169250633cbe399791506132de908890600401615595565b60206040518083038186803b1580156132f657600080fd5b505afa15801561330a573d6000803e3d6000fd5b505050506040513d601f19601f8201168201806040525081019061332e9190614f43565b1561337b5760405162461bcd60e51b815260206004820152601160248201527f6d75737420756e6c696e6b2066697273740000000000000000000000000000006044820152606401610987565b7ef52b0807fdece1f767ee6f74b46926674002b92e5176c0b1fbc1c6a045384a546001600160a01b03166001880160005b848110156134ac5761349a8983856133c48c8061572e565b868181106133e257634e487b7160e01b600052603260045260246000fd5b905060200201358c60016003811061340a57634e487b7160e01b600052603260045260246000fd5b60200281019061341a919061572e565b8781811061343857634e487b7160e01b600052603260045260246000fd5b905060200201358d60026003811061346057634e487b7160e01b600052603260045260246000fd5b602002810190613470919061572e565b8881811061348e57634e487b7160e01b600052603260045260246000fd5b90506020020135613fbb565b806134a4816159e8565b9150506133ac565b50505050505050505050565b6000806134c483610f23565b90506134cf8361434a565b6134d8836143f2565b92506134e4818461441f565b5090919050565b6000806135b57ef52b0807fdece1f767ee6f74b46926674002b92e5176c0b1fbc1c6a045384a6001018054600090613534906fffffffffffffffffffffffffffffffff166159b8565b91906101000a8154816fffffffffffffffffffffffffffffffff02191690836fffffffffffffffffffffffffffffffff160217905561358f7ef52b0807fdece1f767ee6f74b46926674002b92e5176c0b1fbc1c6a045384a90565b600190810154700100000000000000000000000000000000900463ffffffff169061456e565b90506135c081612e70565b81815591506135cf838261441f565b50919050565b6040517f590ec2a600000000000000000000000000000000000000000000000000000000815260018201600482015273f23B8c9debCdCEa2a40E81c3f6d786987069D40d9063590ec2a69060240160006040518083038186803b15801561363b57600080fd5b505af415801561364f573d6000803e3d6000fd5b5050506001820190506000613664828261481e565b505080547ef52b0807fdece1f767ee6f74b46926674002b92e5176c0b1fbc1c6a045384d60006136938361299c565b8152602081019190915260400160009081208181559060018201816136b8828261481e565b50505050610c4e8161434a565b816001600160a01b0316836001600160a01b031614156137275760405162461bcd60e51b815260206004820152601960248201527f4552433732313a20617070726f766520746f2063616c6c6572000000000000006044820152606401610987565b6001600160a01b038381166000818152609c6020908152604080832094871680845294825291829020805460ff191686151590811790915591519182527f17307eab39ab6107e8899845ad3d59bd9653f200f220920489ca2b5937696c31910160405180910390a3505050565b61379f848484612ad2565b6137ab848484846145d7565b611fb15760405162461bcd60e51b815260206004820152603260248201527f4552433732313a207472616e7366657220746f206e6f6e20455243373231526560448201527f63656976657220696d706c656d656e74657200000000000000000000000000006064820152608401610987565b60607ef52b0807fdece1f767ee6f74b46926674002b92e5176c0b1fbc1c6a045384a600201805461087d90615983565b60608161388e575060408051808201909152600181527f30000000000000000000000000000000000000000000000000000000000000006020820152610869565b8160005b81156138b857806138a2816159e8565b91506138b19050600a836157df565b9150613892565b60008167ffffffffffffffff8111156138e157634e487b7160e01b600052604160045260246000fd5b6040519080825280601f01601f19166020018201604052801561390b576020820181803683370190505b5090505b8415612aca57613920600183615929565b915061392d600a86615a03565b6139389060306157c7565b60f81b81838151811061395b57634e487b7160e01b600052603260045260246000fd5b60200101907effffffffffffffffffffffffffffffffffffffffffffffffffffffffffffff1916908160001a905350613995600a866157df565b945061390f565b600054610100900460ff166126e75760405162461bcd60e51b815260206004820152602b60248201527f496e697469616c697a61626c653a20636f6e7472616374206973206e6f74206960448201526a6e697469616c697a696e6760a81b6064820152608401610987565b600054610100900460ff16613a725760405162461bcd60e51b815260206004820152602b60248201527f496e697469616c697a61626c653a20636f6e7472616374206973206e6f74206960448201526a6e697469616c697a696e6760a81b6064820152608401610987565b8151613a8590609790602085019061483f565b508051610aeb90609890602084019061483f565b600054610100900460ff16613b045760405162461bcd60e51b815260206004820152602b60248201527f496e697469616c697a61626c653a20636f6e7472616374206973206e6f74206960448201526a6e697469616c697a696e6760a81b6064820152608401610987565b613b0f600082614741565b50565b600054610100900460ff16613b7d5760405162461bcd60e51b815260206004820152602b60248201527f496e697469616c697a61626c653a20636f6e7472616374206973206e6f74206960448201526a6e697469616c697a696e6760a81b6064820152608401610987565b7ef52b0807fdece1f767ee6f74b46926674002b92e5176c0b1fbc1c6a045384a805473ffffffffffffffffffffffffffffffffffffffff19166001600160a01b0393909316929092179091557ef52b0807fdece1f767ee6f74b46926674002b92e5176c0b1fbc1c6a045384b80547fffffffffffffffffffffffff00000000ffffffffffffffffffffffffffffffff1661ffff90921670010000000000000000000000000000000002919091179055565b60006001600160e01b031982167f80ac58cd00000000000000000000000000000000000000000000000000000000148061290357506001600160e01b031982167f5b5e139f0000000000000000000000000000000000000000000000000000000014806108665750610866825b60006001600160e01b031982167f7965db0b00000000000000000000000000000000000000000000000000000000148061086657507f01ffc9a7000000000000000000000000000000000000000000000000000000006001600160e01b0319831614610866565b60c9546000906001600160a01b0316331415613d4557507fffffffffffffffffffffffffffffffffffffffffffffffffffffffffffffffec36013560601c6108fe565b50336108fe565b60606000613d5b83600261590a565b613d669060026157c7565b67ffffffffffffffff811115613d8c57634e487b7160e01b600052604160045260246000fd5b6040519080825280601f01601f191660200182016040528015613db6576020820181803683370190505b5090507f300000000000000000000000000000000000000000000000000000000000000081600081518110613dfb57634e487b7160e01b600052603260045260246000fd5b60200101907effffffffffffffffffffffffffffffffffffffffffffffffffffffffffffff1916908160001a9053507f780000000000000000000000000000000000000000000000000000000000000081600181518110613e6c57634e487b7160e01b600052603260045260246000fd5b60200101907effffffffffffffffffffffffffffffffffffffffffffffffffffffffffffff1916908160001a9053506000613ea884600261590a565b613eb39060016157c7565b90505b6001811115613f6c577f303132333435363738396162636465660000000000000000000000000000000085600f1660108110613f0257634e487b7160e01b600052603260045260246000fd5b1a60f81b828281518110613f2657634e487b7160e01b600052603260045260246000fd5b60200101907effffffffffffffffffffffffffffffffffffffffffffffffffffffffffffff1916908160001a90535060049490941c93613f658161596c565b9050613eb6565b5083156115f25760405162461bcd60e51b815260206004820181905260248201527f537472696e67733a20686578206c656e67746820696e73756666696369656e746044820152606401610987565b6040517f515004380000000000000000000000000000000000000000000000000000000081526004810186905260248101839052604481018290526064810184905273f23B8c9debCdCEa2a40E81c3f6d786987069D40d9063515004389060840160206040518083038186803b15801561403457600080fd5b505af4158015614048573d6000803e3d6000fd5b505050506040513d601f19601f8201168201806040525081019061406c9190614f43565b6140b85760405162461bcd60e51b815260206004820152600c60248201527f71756164206d697373696e6700000000000000000000000000000000000000006044820152606401610987565b6040517fe8485b070000000000000000000000000000000000000000000000000000000081526004810186905260248101839052604481018290526064810184905273f23B8c9debCdCEa2a40E81c3f6d786987069D40d9063e8485b079060840160206040518083038186803b15801561413157600080fd5b505af4158015614145573d6000803e3d6000fd5b505050506040513d601f19601f820116820180604052508101906141699190614f43565b506040517f55064d850000000000000000000000000000000000000000000000000000000081526004810184905260248101839052604481018290526001600160a01b038516906355064d859060640160206040518083038186803b1580156141d157600080fd5b505afa1580156141e5573d6000803e3d6000fd5b505050506040513d601f19601f820116820180604052508101906142099190614f43565b6142a9576040517f6e1e3bbf0000000000000000000000000000000000000000000000000000000081526001600160a01b03878116600483015260248201859052604482018490526064820183905260a06084830152600060a4830152851690636e1e3bbf9060c401600060405180830381600087803b15801561428c57600080fd5b505af11580156142a0573d6000803e3d6000fd5b50505050614342565b6040517f38bb305a0000000000000000000000000000000000000000000000000000000081523060048201526001600160a01b03878116602483015260448201859052606482018490526084820183905260c060a4830152600060c48301528516906338bb305a9060e401600060405180830381600087803b15801561432e57600080fd5b505af11580156134ac573d6000803e3d6000fd5b505050505050565b600061435582610f23565b9050614362600083612921565b6001600160a01b0381166000908152609a6020526040812080546001929061438b908490615929565b9091555050600082815260996020526040808220805473ffffffffffffffffffffffffffffffffffffffff19169055518391906001600160a01b038416907fddf252ad1be2c89b69c2b068fc378daa952ba7f163c4a11628f55a4df523b3ef908390a45050565b6000806000806144018561474b565b9194509250600101905061441683838361456e565b95945050505050565b6001600160a01b0382166144755760405162461bcd60e51b815260206004820181905260248201527f4552433732313a206d696e7420746f20746865207a65726f20616464726573736044820152606401610987565b6000818152609960205260409020546001600160a01b0316156144da5760405162461bcd60e51b815260206004820152601c60248201527f4552433732313a20746f6b656e20616c7265616479206d696e746564000000006044820152606401610987565b6001600160a01b0382166000908152609a602052604081208054600192906145039084906157c7565b9091555050600081815260996020526040808220805473ffffffffffffffffffffffffffffffffffffffff19166001600160a01b03861690811790915590518392907fddf252ad1be2c89b69c2b068fc378daa952ba7f163c4a11628f55a4df523b3ef908290a45050565b60006bffffffffffffffffffffffff821661458b60606002615839565b61459b9063ffffffff861661590a565b6145a760806002615839565b6145c3906fffffffffffffffffffffffffffffffff881661590a565b6145cd91906157c7565b610ee691906157c7565b60006001600160a01b0384163b1561473657836001600160a01b031663150b7a02614600612912565b8786866040518563ffffffff1660e01b81526004016146229493929190615514565b602060405180830381600087803b15801561463c57600080fd5b505af192505050801561466c575060408051601f3d908101601f1916820190925261466991810190614fb7565b60015b61471c573d80801561469a576040519150601f19603f3d011682016040523d82523d6000602084013e61469f565b606091505b5080516147145760405162461bcd60e51b815260206004820152603260248201527f4552433732313a207472616e7366657220746f206e6f6e20455243373231526560448201527f63656976657220696d706c656d656e74657200000000000000000000000000006064820152608401610987565b805181602001fd5b6001600160e01b031916630a85bd0160e11b149050612aca565b506001949350505050565b610c4e8282612d2c565b6000808061475b60806002615839565b61476590856157df565b61477160606002615839565b61477b90866157df565b67ffffffffffffffff919091169561ffff918216959091169350915050565b8280546147a690615983565b90600052602060002090601f0160209004810192826147c8576000855561480e565b82601f106147e15782800160ff1982351617855561480e565b8280016001018555821561480e579182015b8281111561480e5782358255916020019190600101906147f3565b5061481a9291506148b3565b5090565b5080546000825560030290600052602060002090810190613b0f91906148c8565b82805461484b90615983565b90600052602060002090601f01602090048101928261486d576000855561480e565b82601f1061488657805160ff191683800117855561480e565b8280016001018555821561480e579182015b8281111561480e578251825591602001919060010190614898565b5b8082111561481a57600081556001016148b4565b8082111561481a5760008082556001820181905560028201556003016148c8565b80606081018310156115f557600080fd5b60008083601f84011261490b578182fd5b50813567ffffffffffffffff811115614922578182fd5b602083019150836020808302850101111561493c57600080fd5b9250929050565b60008083601f840112614954578182fd5b50813567ffffffffffffffff81111561496b578182fd5b60208301915083602082850101111561493c57600080fd5b600060608284031215614994578081fd5b602061499f81615775565b91506149aa81615775565b84601f8501126149b957600080fd5b6149c36060615775565b8085876060880111156149d557600080fd5b60005b60038110156149f5578135845292850192908501906001016149d8565b505082525082525092915050565b600060208284031215614a14578081fd5b81356115f281615a59565b60008060408385031215614a31578081fd5b8235614a3c81615a59565b91506020830135614a4c81615a59565b809150509250929050565b60008060008060008060008060c0898b031215614a72578384fd5b8835614a7d81615a59565b97506020890135614a8d81615a59565b96506040890135614a9d81615a59565b9550606089013561ffff81168114614ab3578485fd5b9450608089013567ffffffffffffffff80821115614acf578586fd5b614adb8c838d01614943565b909650945060a08b0135915080821115614af3578384fd5b50614b008b828c01614943565b999c989b5096995094979396929594505050565b60008060008060008060808789031215614b2c578384fd5b8635614b3781615a59565b95506020870135614b4781615a59565b9450604087013567ffffffffffffffff80821115614b63578586fd5b614b6f8a838b016148fa565b90965094506060890135915080821115614b87578384fd5b50614b9489828a01614943565b979a9699509497509295939492505050565b600080600060608486031215614bba578081fd5b8335614bc581615a59565b92506020840135614bd581615a59565b929592945050506040919091013590565b600080600080600060808688031215614bfd578283fd5b8535614c0881615a59565b94506020860135614c1881615a59565b935060408601359250606086013567ffffffffffffffff811115614c3a578182fd5b614c4688828901614943565b969995985093965092949392505050565b60008060008060808587031215614c6c578182fd5b8435614c7781615a59565b9350602085810135614c8881615a59565b935060408601359250606086013567ffffffffffffffff80821115614cab578384fd5b818801915088601f830112614cbe578384fd5b813581811115614cd057614cd0615a43565b614ce284601f19601f84011601615775565b91508082528984828501011115614cf7578485fd5b8084840185840137810190920192909252939692955090935050565b600080600060408486031215614d27578081fd5b8335614d3281615a59565b9250602084013567ffffffffffffffff80821115614d4e578283fd5b818601915086601f830112614d61578283fd5b813581811115614d6f578384fd5b876020606083028501011115614d83578384fd5b6020830194508093505050509250925092565b60008060408385031215614da8578182fd5b8235614db381615a59565b91506020830135614a4c81615a6e565b60008060408385031215614dd5578182fd5b8235614de081615a59565b946020939093013593505050565b600060208284031215614dff578081fd5b813567ffffffffffffffff811115614e15578182fd5b612aca848285016148e9565b60006020808385031215614e33578182fd5b825167ffffffffffffffff80821115614e4a578384fd5b818501915085601f830112614e5d578384fd5b815181811115614e6f57614e6f615a43565b614e7c8485830201615775565b81815284810192508385016060808402860187018a1015614e9b578788fd5b8795505b83861015614f355780828b031215614eb5578788fd5b614ebe87615775565b614ec788615775565b8b601f850112614ed557898afd5b614ee7614ee260036157a6565b615775565b80858587018f811115614ef8578d8efd5b8d5b6003811015614f175782518552938d0193918d0191600101614efa565b50918452509183525090865260019690960195948701949150614e9f565b509098975050505050505050565b600060208284031215614f54578081fd5b81516115f281615a6e565b600060208284031215614f70578081fd5b5035919050565b60008060408385031215614f89578182fd5b823591506020830135614a4c81615a59565b600060208284031215614fac578081fd5b81356115f281615a7c565b600060208284031215614fc8578081fd5b81516115f281615a7c565b60008060208385031215614fe5578182fd5b823567ffffffffffffffff811115614ffb578283fd5b61500785828601614943565b90969095509350505050565b600060208284031215615024578081fd5b5051919050565b6000806040838503121561503d578182fd5b82359150602083013567ffffffffffffffff81111561505a578182fd5b615066858286016148e9565b9150509250929050565b600080600080600060808688031215615087578283fd5b85359450602086013567ffffffffffffffff808211156150a5578485fd5b6150b189838a016148e9565b955060408801359150808211156150c6578485fd5b6150d289838a016148fa565b909550935060608801359150808211156150ea578283fd5b506150f7888289016148e9565b9150509295509295909350565b60008060008060608587031215615119578182fd5b84359350602085013567ffffffffffffffff80821115615137578384fd5b615143888389016148fa565b9095509350604087013591508082111561515b578283fd5b50615168878288016148e9565b91505092959194509250565b6000808284036101a0811215615188578283fd5b83359250610180601f198201121561519e578182fd5b506151a96080615775565b6151b68560208601614983565b81526151c58560808601614983565b60208201526151d78560e08601614983565b60408201526151ea856101408601614983565b6060820152809150509250929050565b60008060006060848603121561520e578081fd5b505081359360208301359350604090920135919050565b6000815180845260208085019450808401835b8381101561527a578151515187865b600381101561526457825182529185019190850190600101615247565b5050506060969096019590820190600101615238565b509495945050505050565b60008284527f07ffffffffffffffffffffffffffffffffffffffffffffffffffffffffffffff8311156152b6578081fd5b6020830280836020870137939093016020019283525090919050565b600081518084526152ea816020860160208601615940565b601f01601f19169290920160200192915050565b8051518260005b6003811015615324578251825260209283019290910190600101615305565b5050505050565b6000835161533d818460208801615940565b835190830190615351818360208801615940565b01949350505050565b6000825161536c818460208701615940565b7f706f6c79676f6e5f6573746174652e6a736f6e00000000000000000000000000920191825250601301919050565b60007f416363657373436f6e74726f6c3a206163636f756e7420000000000000000000825283516153d3816017850160208801615940565b7f206973206d697373696e6720726f6c65200000000000000000000000000000006017918401918201528351615410816028840160208801615940565b01602801949350505050565b6001600160a01b038581168252841660208201526060604082018190528181018390526000908460808401835b8681101561546857838383379083018481529183019190600101615449565b5098975050505050505050565b60006001600160a01b038086168352808516602084015250606060408301526144166060830184615225565b60006001600160a01b03808b168352808a1660208401525060c060408301526154ce60c08301888a615285565b82810360608401526154e1818789615285565b905082810360808401526154f6818587615285565b83810360a09094019390935250815260200198975050505050505050565b60006001600160a01b0380871683528086166020840152508360408301526080606083015261554660808301846152d2565b9695505050505050565b60006001600160a01b038416825260406020830152610ee66040830184615225565b60006001600160a01b038516825260406020830152614416604083018486615285565b60208082526000906080830183820185845b600381101561561557601f198785030183528135601e198936030181126155cc578687fd5b8801803567ffffffffffffffff8111156155e4578788fd5b86810236038a13156155f4578788fd5b6156018682898501615285565b9550505091840191908401906001016155a7565b50919695505050505050565b6000602082526115f26020830184615225565b6000602082526115f260208301846152d2565b60006040825261565a60408301866152d2565b82810360208401528381528385602083013781602085830101526020601f19601f860116820101915050949350505050565b83815260406020820181905281018290526000606080830185835b868110156156c6578382843791830184815291908301906001016156a7565b5090979650505050505050565b60006101a0820190508382526156ed6020830184516152fe565b60208301516156ff60808401826152fe565b50604083015161571260e08401826152fe565b5060608301516157266101408401826152fe565b509392505050565b6000808335601e19843603018112615744578283fd5b83018035915067ffffffffffffffff82111561575e578283fd5b602090810192508102360382131561493c57600080fd5b604051601f8201601f1916810167ffffffffffffffff8111828210171561579e5761579e615a43565b604052919050565b600067ffffffffffffffff8211156157c0576157c0615a43565b5060200290565b600082198211156157da576157da615a17565b500190565b6000826157ee576157ee615a2d565b500490565b80825b60018086116158055750615830565b81870482111561581757615817615a17565b8086161561582457918102915b9490941c9380026157f6565b94509492505050565b60006115f260001960ff85168460008261585557506001610ee9565b8161586257506000610ee9565b81600181146158785760028114615882576158af565b6001915050610ee9565b60ff84111561589357615893615a17565b6001841b9150848211156158a9576158a9615a17565b50610ee9565b5060208310610133831016604e8410600b84101617156158e2575081810a838111156158dd576158dd615a17565b610ee9565b6158ef84848460016157f3565b80860482111561590157615901615a17565b02949350505050565b600081600019048311821515161561592457615924615a17565b500290565b60008282101561593b5761593b615a17565b500390565b60005b8381101561595b578181015183820152602001615943565b83811115611fb15750506000910152565b60008161597b5761597b615a17565b506000190190565b60028104600182168061599757607f821691505b602082108114156135cf57634e487b7160e01b600052602260045260246000fd5b60006fffffffffffffffffffffffffffffffff808316818114156159de576159de615a17565b6001019392505050565b60006000198214156159fc576159fc615a17565b5060010190565b600082615a1257615a12615a2d565b500690565b634e487b7160e01b600052601160045260246000fd5b634e487b7160e01b600052601260045260246000fd5b634e487b7160e01b600052604160045260246000fd5b6001600160a01b0381168114613b0f57600080fd5b8015158114613b0f57600080fd5b6001600160e01b031981168114613b0f57600080fdfea264697066735822122045d4f3036f308dd259ea56f42dfd5b9be89ec658fccc12d4df6205f8989dc00a64736f6c63430008020033",
  "deployedBytecode": "0x608060405234801561001057600080fd5b50600436106103205760003560e01c80638bee92e6116101a7578063bc968326116100ee578063d547741f11610097578063e8a3d48511610071578063e8a3d485146107b6578063e985e9c5146107be578063fa83e33a146107fa57610320565b8063d547741f14610788578063da7422281461079b578063e5d7dbd7146107ae57610320565b8063cd17aa41116100c8578063cd17aa411461073b578063d3fec7cf1461074e578063d53913931461076157610320565b8063bc968326146106dd578063c0ae401614610715578063c87b56dd1461072857610320565b8063a217fddf11610150578063a91ee0dc1161012a578063a91ee0dc146106a4578063a9266dde146106b7578063b88d4fde146106ca57610320565b8063a217fddf14610676578063a22cb4651461067e578063a70c47091461069157610320565b806395d89b411161018157806395d89b41146106485780639b64c4fc146106505780639c0d90581461066357610320565b80638bee92e6146105e95780638f3d9daa146105fc57806391d148541461060f57610320565b806342842e0e1161026b5780635ab1bd531161021457806370a08231116101ee57806370a082311461059c57806375b238fc146105af5780637ad237a0146105d657610320565b80635ab1bd531461056e5780636352211e146105765780636c7ecdff1461058957610320565b806355f804b31161024557806355f804b314610519578063572b6c051461052c5780635a09942f1461054e57610320565b806342842e0e146104ba5780634b808c46146104cd5780634f558e791461050657610320565b806321ab0c71116102cd578063282c51f3116102a7578063282c51f31461046d5780632f2ff15d1461049457806336568abe146104a757610320565b806321ab0c711461042457806323b872dd14610437578063248a9ca31461044a57610320565b8063095ea7b3116102fe578063095ea7b31461038d5780630d363f0d146103a2578063150b7a02146103ec57610320565b806301ffc9a71461032557806306fdde031461034d578063081812fc14610362575b600080fd5b610338610333366004614f9b565b61080d565b60405190151581526020015b60405180910390f35b61035561086e565b6040516103449190615634565b610375610370366004614f5f565b610901565b6040516001600160a01b039091168152602001610344565b6103a061039b366004614dc3565b6109ac565b005b7ef52b0807fdece1f767ee6f74b46926674002b92e5176c0b1fbc1c6a045384b54700100000000000000000000000000000000900463ffffffff165b604051908152602001610344565b61040b6103fa366004614be6565b630a85bd0160e11b95945050505050565b6040516001600160e01b03199091168152602001610344565b6103de610432366004614f5f565b610af0565b6103a0610445366004614ba6565b610afb565b6103de610458366004614f5f565b60009081526065602052604090206001015490565b6103de7f3c11d16cbaffd01df69ce1c404f6340ee057498f5f00246190ea54220576a84881565b6103a06104a2366004614f77565b610b89565b6103a06104b5366004614f77565b610bb6565b6103a06104c8366004614ba6565b610c52565b61040b6104db366004614b14565b7f4b808c46000000000000000000000000000000000000000000000000000000009695505050505050565b610338610514366004614f5f565b610c6d565b6103a0610527366004614fd3565b610c8c565b61033861053a366004614a03565b60c9546001600160a01b0390811691161490565b61056161055c3660046151fa565b610e2a565b6040516103449190615621565b610375610ef0565b610375610584366004614f5f565b610f23565b6103de610597366004615070565b610fae565b6103de6105aa366004614a03565b611348565b6103de7fa49807205ce4d355092ef5a8a18f56e8913cf4a201fbe287825b095693c2177581565b6103de6105e4366004614d13565b6113e2565b6103386105f7366004615174565b611543565b61056161060a366004614dc3565b6115fb565b61033861061d366004614f77565b60009182526065602090815260408084206001600160a01b0393909316845291905290205460ff1690565b6103556118cc565b6103de61065e366004614f5f565b6118db565b6103de610671366004614dee565b611986565b6103de600081565b6103a061068c366004614d96565b611b99565b6103a061069f366004615104565b611bab565b6103a06106b2366004614a03565b611d68565b6103de6106c5366004614f5f565b611ec3565b6103a06106d8366004614c57565b611f22565b7ef52b0807fdece1f767ee6f74b46926674002b92e5176c0b1fbc1c6a045384b546fffffffffffffffffffffffffffffffff166103de565b6103de61072336600461502b565b611fb7565b610355610736366004614f5f565b61240d565b6103a0610749366004614a03565b6124f5565b61037561075c366004614f5f565b612647565b6103de7f9f2df0fed2c77648de5860a4cc508cd0818c85b8b8a1ab4ceeef8d981c8956a681565b6103a0610796366004614f77565b61265b565b6103a06107a9366004614a03565b612683565b610375612716565b61035561273d565b6103386107cc366004614a1f565b6001600160a01b039182166000908152609c6020908152604080832093909416825291909152205460ff1690565b6103a0610808366004614a57565b612790565b60006001600160e01b03198216630a85bd0160e11b148061085757506001600160e01b031982167f5e8bf64400000000000000000000000000000000000000000000000000000000145b806108665750610866826128f8565b90505b919050565b60606097805461087d90615983565b80601f01602080910402602001604051908101604052809291908181526020018280546108a990615983565b80156108f65780601f106108cb576101008083540402835291602001916108f6565b820191906000526020600020905b8154815290600101906020018083116108d957829003601f168201915b505050505090505b90565b6000818152609960205260408120546001600160a01b03166109905760405162461bcd60e51b815260206004820152602c60248201527f4552433732313a20617070726f76656420717565727920666f72206e6f6e657860448201527f697374656e7420746f6b656e000000000000000000000000000000000000000060648201526084015b60405180910390fd5b506000908152609b60205260409020546001600160a01b031690565b60006109b782610f23565b9050806001600160a01b0316836001600160a01b03161415610a415760405162461bcd60e51b815260206004820152602160248201527f4552433732313a20617070726f76616c20746f2063757272656e74206f776e6560448201527f72000000000000000000000000000000000000000000000000000000000000006064820152608401610987565b806001600160a01b0316610a53612912565b6001600160a01b03161480610a6f5750610a6f816107cc612912565b610ae15760405162461bcd60e51b815260206004820152603860248201527f4552433732313a20617070726f76652063616c6c6572206973206e6f74206f7760448201527f6e6572206e6f7220617070726f76656420666f7220616c6c00000000000000006064820152608401610987565b610aeb8383612921565b505050565b60006108668261299c565b610b0c610b06612912565b826129ca565b610b7e5760405162461bcd60e51b815260206004820152603160248201527f4552433732313a207472616e736665722063616c6c6572206973206e6f74206f60448201527f776e6572206e6f7220617070726f7665640000000000000000000000000000006064820152608401610987565b610aeb838383612ad2565b600082815260656020526040902060010154610bac81610ba7612912565b612cac565b610aeb8383612d2c565b610bbe612912565b6001600160a01b0316816001600160a01b031614610c445760405162461bcd60e51b815260206004820152602f60248201527f416363657373436f6e74726f6c3a2063616e206f6e6c792072656e6f756e636560448201527f20726f6c657320666f722073656c6600000000000000000000000000000000006064820152608401610987565b610c4e8282612dcf565b5050565b610aeb83838360405180602001604052806000815250611f22565b6000818152609960205260408120546001600160a01b03161515610866565b610cb87fa49807205ce4d355092ef5a8a18f56e8913cf4a201fbe287825b095693c2177561061d612912565b610cf05760405162461bcd60e51b81526020600482015260096024820152683737ba1030b236b4b760b91b6044820152606401610987565b60007ef52b0807fdece1f767ee6f74b46926674002b92e5176c0b1fbc1c6a045384a6002018054610d2090615983565b80601f0160208091040260200160405190810160405280929190818152602001828054610d4c90615983565b8015610d995780601f10610d6e57610100808354040283529160200191610d99565b820191906000526020600020905b815481529060010190602001808311610d7c57829003601f168201915b505050505090508282610dc87ef52b0807fdece1f767ee6f74b46926674002b92e5176c0b1fbc1c6a045384a90565b6002019190610dd892919061479a565b50610de1612912565b6001600160a01b03167fcad0ef056b20aa50414ef503ee13c75ff786ba9317d7f8a4379a9892310c9338828585604051610e1d93929190615647565b60405180910390a2505050565b6060610e3584612e70565b6040517f11c7db8e00000000000000000000000000000000000000000000000000000000815260019091016004820152602481018490526044810183905273__$c8b13b5401e105a03ccb2d5c98950fab3b$__906311c7db8e9060640160006040518083038186803b158015610eaa57600080fd5b505af4158015610ebe573d6000803e3d6000fd5b505050506040513d6000823e601f3d908101601f19168201604052610ee69190810190614e21565b90505b9392505050565b60007f72bb9cd2f41a3eb637a87b61a3cb3e6bf6772f1a5774103c4fbec1f2038e34df5b546001600160a01b0316905090565b6000818152609960205260408120546001600160a01b0316806108665760405162461bcd60e51b815260206004820152602960248201527f4552433732313a206f776e657220717565727920666f72206e6f6e657869737460448201527f656e7420746f6b656e00000000000000000000000000000000000000000000006064820152608401610987565b6000610fc1610fbb612912565b876129ca565b61100d5760405162461bcd60e51b815260206004820181905260248201527f63616c6c6572206973206e6f74206f776e6572206e6f7220617070726f7665646044820152606401610987565b6000611019868061572e565b905011806110325750600061102e838061572e565b9050115b8061103c57508215155b6110885760405162461bcd60e51b815260206004820152601160248201527f6e6f7468696e6720746f207570646174650000000000000000000000000000006044820152606401610987565b600061109387612e70565b90506110a7816110a1612912565b88612eb1565b6110bb816110b3612912565b858888613167565b6040517f5a20ec7200000000000000000000000000000000000000000000000000000000815260018201600482015273__$c8b13b5401e105a03ccb2d5c98950fab3b$__90635a20ec729060240160206040518083038186803b15801561112157600080fd5b505af4158015611135573d6000803e3d6000fd5b505050506040513d601f19601f820116820180604052508101906111599190614f43565b156111a65760405162461bcd60e51b815260206004820152601660248201527f6573746174652063616e6e6f7420626520656d707479000000000000000000006044820152606401610987565b6040516331884dd560e21b815260018201600482015273__$c8b13b5401e105a03ccb2d5c98950fab3b$__9063c62137549060240160206040518083038186803b1580156111f357600080fd5b505af4158015611207573d6000803e3d6000fd5b505050506040513d601f19601f8201168201806040525081019061122b9190614f43565b6112665760405162461bcd60e51b815260206004820152600c60248201526b1b9bdd0818591a9858d95b9d60a21b6044820152606401610987565b8054611271906134b8565b808255877f9d558f479216a061e3c0dd35693fdc4904a085e0ec5582272591dda3f9ab27c461129e612912565b604051636429e7ff60e11b815260018601600482015273__$c8b13b5401e105a03ccb2d5c98950fab3b$__9063c853cffe9060240160006040518083038186803b1580156112eb57600080fd5b505af41580156112ff573d6000803e3d6000fd5b505050506040513d6000823e601f3d908101601f191682016040526113279190810190614e21565b604051611335929190615550565b60405180910390a3549695505050505050565b60006001600160a01b0382166113c65760405162461bcd60e51b815260206004820152602a60248201527f4552433732313a2062616c616e636520717565727920666f7220746865207a6560448201527f726f2061646472657373000000000000000000000000000000000000000000006064820152608401610987565b506001600160a01b03166000908152609a602052604090205490565b60006114107f9f2df0fed2c77648de5860a4cc508cd0818c85b8b8a1ab4ceeef8d981c8956a661061d612912565b61145c5760405162461bcd60e51b815260206004820152600e60248201527f6e6f7420617574686f72697a65640000000000000000000000000000000000006044820152606401610987565b6000611467856134eb565b6040517fa1b4c2bc00000000000000000000000000000000000000000000000000000000815290915073__$c8b13b5401e105a03ccb2d5c98950fab3b$__9063a1b4c2bc906114c19060018501908890889060040161568c565b60006040518083038186803b1580156114d957600080fd5b505af41580156114ed573d6000803e3d6000fd5b5050505080600001547f8ba5d7096a6e37fd8a143e486dbc3dc12dc25159042fca9431af78475768d5d961151f612912565b878787604051611532949392919061541c565b60405180910390a254949350505050565b600061154e83612e70565b6040517ff5fd439d00000000000000000000000000000000000000000000000000000000815273__$c8b13b5401e105a03ccb2d5c98950fab3b$__9163f5fd439d916115a2916001019086906004016156d3565b60206040518083038186803b1580156115ba57600080fd5b505af41580156115ce573d6000803e3d6000fd5b505050506040513d601f19601f820116820180604052508101906115f29190614f43565b90505b92915050565b60606116297f3c11d16cbaffd01df69ce1c404f6340ee057498f5f00246190ea54220576a84861061d612912565b6116755760405162461bcd60e51b815260206004820152600e60248201527f6e6f7420617574686f72697a65640000000000000000000000000000000000006044820152606401610987565b61167f83836129ca565b6116cb5760405162461bcd60e51b815260206004820181905260248201527f63616c6c6572206973206e6f74206f776e6572206e6f7220617070726f7665646044820152606401610987565b60006116d683612e70565b604051636429e7ff60e11b815260018201600482015290915073__$c8b13b5401e105a03ccb2d5c98950fab3b$__9063c853cffe9060240160006040518083038186803b15801561172657600080fd5b505af415801561173a573d6000803e3d6000fd5b505050506040513d6000823e601f3d908101601f191682016040526117629190810190614e21565b7f72bb9cd2f41a3eb637a87b61a3cb3e6bf6772f1a5774103c4fbec1f2038e34df549092506001600160a01b03168015611878576040517fad51dacb0000000000000000000000000000000000000000000000000000000081526001600160a01b0382169063ad51dacb906117db908690600401615621565b60206040518083038186803b1580156117f357600080fd5b505afa158015611807573d6000803e3d6000fd5b505050506040513d601f19601f8201168201806040525081019061182b9190614f43565b156118785760405162461bcd60e51b815260206004820152601160248201527f6d75737420756e6c696e6b2066697273740000000000000000000000000000006044820152606401610987565b611881826135d5565b837fa95f078511bfff5e18ae1876d396070153217e28e9939b24ee2b407bea5c93da6118ab612912565b87866040516118bc93929190615475565b60405180910390a2505092915050565b60606098805461087d90615983565b60006118e682612e70565b6040517fac775cf80000000000000000000000000000000000000000000000000000000081526001909101600482015273__$c8b13b5401e105a03ccb2d5c98950fab3b$__9063ac775cf8906024015b60206040518083038186803b15801561194e57600080fd5b505af4158015611962573d6000803e3d6000fd5b505050506040513d601f19601f820116820180604052508101906108669190615013565b600080611999611994612912565b6134eb565b905060006119a7848061572e565b9050116119f65760405162461bcd60e51b815260206004820152600e60248201527f6e6f7468696e6720746f206164640000000000000000000000000000000000006044820152606401610987565b611a0881611a02612912565b85612eb1565b6040516331884dd560e21b815260018201600482015273__$c8b13b5401e105a03ccb2d5c98950fab3b$__9063c62137549060240160206040518083038186803b158015611a5557600080fd5b505af4158015611a69573d6000803e3d6000fd5b505050506040513d601f19601f82011682018060405250810190611a8d9190614f43565b611ac85760405162461bcd60e51b815260206004820152600c60248201526b1b9bdd0818591a9858d95b9d60a21b6044820152606401610987565b80547f1fdc5a6efe117110d3a653439a0b1fedc9258a17c8b2477c5c7586accb26d289611af3612912565b604051636429e7ff60e11b815260018501600482015273__$c8b13b5401e105a03ccb2d5c98950fab3b$__9063c853cffe9060240160006040518083038186803b158015611b4057600080fd5b505af4158015611b54573d6000803e3d6000fd5b505050506040513d6000823e601f3d908101601f19168201604052611b7c9190810190614e21565b604051611b8a929190615550565b60405180910390a25492915050565b610c4e611ba4612912565b83836136c5565b611bbc611bb6612912565b856129ca565b611c085760405162461bcd60e51b815260206004820181905260248201527f63616c6c6572206973206e6f74206f776e6572206e6f7220617070726f7665646044820152606401610987565b6000611c1385612e70565b9050611c2981611c21612912565b848787613167565b6040517f5a20ec7200000000000000000000000000000000000000000000000000000000815260018201600482015273__$c8b13b5401e105a03ccb2d5c98950fab3b$__90635a20ec729060240160206040518083038186803b158015611c8f57600080fd5b505af4158015611ca3573d6000803e3d6000fd5b505050506040513d601f19601f82011682018060405250810190611cc79190614f43565b611d135760405162461bcd60e51b815260206004820152600d60248201527f6d6170206e6f7420656d707479000000000000000000000000000000000000006044820152606401610987565b611d1c816135d5565b847fc16ce9c4d0002876fc4c9679fc409385f51b8d3659a3b307d9a35931081bcc3f611d46612912565b6040516001600160a01b03909116815260200160405180910390a25050505050565b611d947fa49807205ce4d355092ef5a8a18f56e8913cf4a201fbe287825b095693c2177561061d612912565b611dcc5760405162461bcd60e51b81526020600482015260096024820152683737ba1030b236b4b760b91b6044820152606401610987565b6001600160a01b038116611e225760405162461bcd60e51b815260206004820152600f60248201527f696e76616c6964206164647265737300000000000000000000000000000000006044820152606401610987565b7f72bb9cd2f41a3eb637a87b61a3cb3e6bf6772f1a5774103c4fbec1f2038e34df80546001600160a01b0383811673ffffffffffffffffffffffffffffffffffffffff1983161790925516611e75612912565b604080516001600160a01b038481168252858116602083015292909216917f814a095c46e008854bbfd092e4981c02e2e623d3ba415d78ff58b5900956c16491015b60405180910390a25050565b6000611ece82612e70565b6040517f7c2c51480000000000000000000000000000000000000000000000000000000081526001909101600482015273__$c8b13b5401e105a03ccb2d5c98950fab3b$__90637c2c514890602401611936565b611f33611f2d612912565b836129ca565b611fa55760405162461bcd60e51b815260206004820152603160248201527f4552433732313a207472616e736665722063616c6c6572206973206e6f74206f60448201527f776e6572206e6f7220617070726f7665640000000000000000000000000000006064820152608401610987565b611fb184848484613794565b50505050565b6000611fca611fc4612912565b846129ca565b6120165760405162461bcd60e51b815260206004820181905260248201527f63616c6c6572206973206e6f74206f776e6572206e6f7220617070726f7665646044820152606401610987565b6000612022838061572e565b9050116120715760405162461bcd60e51b815260206004820152600e60248201527f6e6f7468696e6720746f206164640000000000000000000000000000000000006044820152606401610987565b600061207c84612e70565b9050612088838061572e565b9050600114156122625773__$c8b13b5401e105a03ccb2d5c98950fab3b$__638addfdc4600183016120bd602087018761572e565b60008181106120dc57634e487b7160e01b600052603260045260246000fd5b905060200201358660026003811061210457634e487b7160e01b600052603260045260246000fd5b602002810190612114919061572e565b600081811061213357634e487b7160e01b600052603260045260246000fd5b905060200201358760006003811061215b57634e487b7160e01b600052603260045260246000fd5b60200281019061216b919061572e565b600081811061218a57634e487b7160e01b600052603260045260246000fd5b905060200201356040518563ffffffff1660e01b81526004016121c6949392919093845260208401929092526040830152606082015260800190565b60206040518083038186803b1580156121de57600080fd5b505af41580156121f2573d6000803e3d6000fd5b505050506040513d601f19601f820116820180604052508101906122169190614f43565b6122515760405162461bcd60e51b815260206004820152600c60248201526b1b9bdd0818591a9858d95b9d60a21b6044820152606401610987565b61225d81611a02612912565b61232e565b61226e81611a02612912565b6040516331884dd560e21b815260018201600482015273__$c8b13b5401e105a03ccb2d5c98950fab3b$__9063c62137549060240160206040518083038186803b1580156122bb57600080fd5b505af41580156122cf573d6000803e3d6000fd5b505050506040513d601f19601f820116820180604052508101906122f39190614f43565b61232e5760405162461bcd60e51b815260206004820152600c60248201526b1b9bdd0818591a9858d95b9d60a21b6044820152606401610987565b8054612339906134b8565b808255847f412391f5f3bd0705db9b0ab9939daa3ba27c2e72ff1f3e171425cc00406ac58a612366612912565b604051636429e7ff60e11b815260018601600482015273__$c8b13b5401e105a03ccb2d5c98950fab3b$__9063c853cffe9060240160006040518083038186803b1580156123b357600080fd5b505af41580156123c7573d6000803e3d6000fd5b505050506040513d6000823e601f3d908101601f191682016040526123ef9190810190614e21565b6040516123fd929190615550565b60405180910390a3549392505050565b6000818152609960205260409020546060906001600160a01b031661249a5760405162461bcd60e51b815260206004820152602f60248201527f4552433732314d657461646174613a2055524920717565727920666f72206e6f60448201527f6e6578697374656e7420746f6b656e00000000000000000000000000000000006064820152608401610987565b60006124a461381d565b905060008151116124c45760405180602001604052806000815250610ee9565b806124ce8461384d565b6040516020016124df92919061532b565b6040516020818303038152906040529392505050565b6125217fa49807205ce4d355092ef5a8a18f56e8913cf4a201fbe287825b095693c2177561061d612912565b6125595760405162461bcd60e51b81526020600482015260096024820152683737ba1030b236b4b760b91b6044820152606401610987565b6001600160a01b0381166125af5760405162461bcd60e51b815260206004820152600f60248201527f696e76616c6964206164647265737300000000000000000000000000000000006044820152606401610987565b7ef52b0807fdece1f767ee6f74b46926674002b92e5176c0b1fbc1c6a045384a80546001600160a01b0383811673ffffffffffffffffffffffffffffffffffffffff1983161790925516612601612912565b604080516001600160a01b038481168252858116602083015292909216917f43348694b30dafadd67997415d04baa9eed18579262b5bd26256362b89b575c29101611eb7565b600061086661265583612e70565b54610f23565b60008281526065602052604090206001015461267981610ba7612912565b610aeb8383612dcf565b6126af7fa49807205ce4d355092ef5a8a18f56e8913cf4a201fbe287825b095693c2177561061d612912565b6126e75760405162461bcd60e51b81526020600482015260096024820152683737ba1030b236b4b760b91b6044820152606401610987565b60c9805473ffffffffffffffffffffffffffffffffffffffff19166001600160a01b0392909216919091179055565b60007ef52b0807fdece1f767ee6f74b46926674002b92e5176c0b1fbc1c6a045384a610f14565b6060600061274961381d565b90506000815111612769576040518060200160405280600081525061278a565b8060405160200161277a919061535a565b6040516020818303038152906040525b91505090565b600054610100900460ff166127ab5760005460ff16156127af565b303b155b6128215760405162461bcd60e51b815260206004820152602e60248201527f496e697469616c697a61626c653a20636f6e747261637420697320616c72656160448201527f647920696e697469616c697a65640000000000000000000000000000000000006064820152608401610987565b600054610100900460ff1615801561284c576000805460ff1961ff0019909116610100171660011790555b6128558961399c565b6128c885858080601f01602080910402602001604051908101604052809392919081815260200183838082843760009201919091525050604080516020601f89018190048102820181019092528781529250879150869081908401838280828437600092019190915250613a0792505050565b6128d188613a99565b6128db8787613b12565b80156128ed576000805461ff00191690555b505050505050505050565b600061290382613c2e565b80610866575061086682613c9b565b600061291c613d02565b905090565b6000818152609b60205260409020805473ffffffffffffffffffffffffffffffffffffffff19166001600160a01b038416908117909155819061296382610f23565b6001600160a01b03167f8c5be1e5ebec7d5bd14f71427d1e84f3dd0314c0f7b2291e5b200ac8c7c3b92560405160405180910390a45050565b60006129aa60606002615839565b6129b660606002615839565b6129c090846157df565b610866919061590a565b6000818152609960205260408120546001600160a01b0316612a545760405162461bcd60e51b815260206004820152602c60248201527f4552433732313a206f70657261746f7220717565727920666f72206e6f6e657860448201527f697374656e7420746f6b656e00000000000000000000000000000000000000006064820152608401610987565b6000612a5f83610f23565b9050806001600160a01b0316846001600160a01b03161480612a9a5750836001600160a01b0316612a8f84610901565b6001600160a01b0316145b80612aca57506001600160a01b038082166000908152609c602090815260408083209388168352929052205460ff165b949350505050565b826001600160a01b0316612ae582610f23565b6001600160a01b031614612b615760405162461bcd60e51b815260206004820152602960248201527f4552433732313a207472616e73666572206f6620746f6b656e2074686174206960448201527f73206e6f74206f776e00000000000000000000000000000000000000000000006064820152608401610987565b6001600160a01b038216612bdc5760405162461bcd60e51b8152602060048201526024808201527f4552433732313a207472616e7366657220746f20746865207a65726f2061646460448201527f72657373000000000000000000000000000000000000000000000000000000006064820152608401610987565b612be7600082612921565b6001600160a01b0383166000908152609a60205260408120805460019290612c10908490615929565b90915550506001600160a01b0382166000908152609a60205260408120805460019290612c3e9084906157c7565b9091555050600081815260996020526040808220805473ffffffffffffffffffffffffffffffffffffffff19166001600160a01b0386811691821790925591518493918716917fddf252ad1be2c89b69c2b068fc378daa952ba7f163c4a11628f55a4df523b3ef91a4505050565b60008281526065602090815260408083206001600160a01b038516845290915290205460ff16610c4e57612cea816001600160a01b03166014613d4c565b612cf5836020613d4c565b604051602001612d0692919061539b565b60408051601f198184030181529082905262461bcd60e51b825261098791600401615634565b60008281526065602090815260408083206001600160a01b038516845290915290205460ff16610c4e5760008281526065602090815260408083206001600160a01b03851684529091529020805460ff19166001179055612d8b612912565b6001600160a01b0316816001600160a01b0316837f2f8788117e7eff1d82e926ec794901d17c78024a50270940304540a733656f0d60405160405180910390a45050565b60008281526065602090815260408083206001600160a01b038516845290915290205460ff1615610c4e5760008281526065602090815260408083206001600160a01b03851684529091529020805460ff19169055612e2c612912565b6001600160a01b0316816001600160a01b0316837ff6391f5c32d9c69d2a47ea670b442974b53935d1edc7fd64eb21e047a839171b60405160405180910390a45050565b60007ef52b0807fdece1f767ee6f74b46926674002b92e5176c0b1fbc1c6a045384d81612e9c8461299c565b81526020019081526020016000209050919050565b6000612ebd828061572e565b9150612ece9050602083018361572e565b905081148015612eeb5750612ee6604083018361572e565b905081145b612f375760405162461bcd60e51b815260206004820152600c60248201527f696e76616c6964206461746100000000000000000000000000000000000000006044820152606401610987565b60005b818110156130b65773__$c8b13b5401e105a03ccb2d5c98950fab3b$__63f9b9fec660018701612f6d602087018761572e565b85818110612f8b57634e487b7160e01b600052603260045260246000fd5b9050602002013586600260038110612fb357634e487b7160e01b600052603260045260246000fd5b602002810190612fc3919061572e565b86818110612fe157634e487b7160e01b600052603260045260246000fd5b905060200201358760006003811061300957634e487b7160e01b600052603260045260246000fd5b602002810190613019919061572e565b8781811061303757634e487b7160e01b600052603260045260246000fd5b905060200201356040518563ffffffff1660e01b8152600401613073949392919093845260208401929092526040830152606082015260800190565b60006040518083038186803b15801561308b57600080fd5b505af415801561309f573d6000803e3d6000fd5b5050505080806130ae906159e8565b915050612f3a565b507ef52b0807fdece1f767ee6f74b46926674002b92e5176c0b1fbc1c6a045384a546001600160a01b031663eaa5e06784306130f2868061572e565b6130ff602089018961572e565b61310c60408b018b61572e565b6040518963ffffffff1660e01b815260040161312f9897969594939291906154a1565b600060405180830381600087803b15801561314957600080fd5b505af115801561315d573d6000803e3d6000fd5b5050505050505050565b6000613173848061572e565b91506131849050602085018561572e565b9050811480156131a1575061319c604085018561572e565b905081145b6131ed5760405162461bcd60e51b815260206004820152601160248201527f696e76616c6964207175616420646174610000000000000000000000000000006044820152606401610987565b7f72bb9cd2f41a3eb637a87b61a3cb3e6bf6772f1a5774103c4fbec1f2038e34df546001600160a01b0316801561337b576040517f12202d0a0000000000000000000000000000000000000000000000000000000081526001600160a01b038216906312202d0a9061326790899088908890600401615572565b600060405180830381600087803b15801561328157600080fd5b505af1158015613295573d6000803e3d6000fd5b50506040517f3cbe39970000000000000000000000000000000000000000000000000000000081526001600160a01b0384169250633cbe399791506132de908890600401615595565b60206040518083038186803b1580156132f657600080fd5b505afa15801561330a573d6000803e3d6000fd5b505050506040513d601f19601f8201168201806040525081019061332e9190614f43565b1561337b5760405162461bcd60e51b815260206004820152601160248201527f6d75737420756e6c696e6b2066697273740000000000000000000000000000006044820152606401610987565b7ef52b0807fdece1f767ee6f74b46926674002b92e5176c0b1fbc1c6a045384a546001600160a01b03166001880160005b848110156134ac5761349a8983856133c48c8061572e565b868181106133e257634e487b7160e01b600052603260045260246000fd5b905060200201358c60016003811061340a57634e487b7160e01b600052603260045260246000fd5b60200281019061341a919061572e565b8781811061343857634e487b7160e01b600052603260045260246000fd5b905060200201358d60026003811061346057634e487b7160e01b600052603260045260246000fd5b602002810190613470919061572e565b8881811061348e57634e487b7160e01b600052603260045260246000fd5b90506020020135613fbb565b806134a4816159e8565b9150506133ac565b50505050505050505050565b6000806134c483610f23565b90506134cf8361434a565b6134d8836143f2565b92506134e4818461441f565b5090919050565b6000806135b57ef52b0807fdece1f767ee6f74b46926674002b92e5176c0b1fbc1c6a045384a6001018054600090613534906fffffffffffffffffffffffffffffffff166159b8565b91906101000a8154816fffffffffffffffffffffffffffffffff02191690836fffffffffffffffffffffffffffffffff160217905561358f7ef52b0807fdece1f767ee6f74b46926674002b92e5176c0b1fbc1c6a045384a90565b600190810154700100000000000000000000000000000000900463ffffffff169061456e565b90506135c081612e70565b81815591506135cf838261441f565b50919050565b6040517f590ec2a600000000000000000000000000000000000000000000000000000000815260018201600482015273__$c8b13b5401e105a03ccb2d5c98950fab3b$__9063590ec2a69060240160006040518083038186803b15801561363b57600080fd5b505af415801561364f573d6000803e3d6000fd5b5050506001820190506000613664828261481e565b505080547ef52b0807fdece1f767ee6f74b46926674002b92e5176c0b1fbc1c6a045384d60006136938361299c565b8152602081019190915260400160009081208181559060018201816136b8828261481e565b50505050610c4e8161434a565b816001600160a01b0316836001600160a01b031614156137275760405162461bcd60e51b815260206004820152601960248201527f4552433732313a20617070726f766520746f2063616c6c6572000000000000006044820152606401610987565b6001600160a01b038381166000818152609c6020908152604080832094871680845294825291829020805460ff191686151590811790915591519182527f17307eab39ab6107e8899845ad3d59bd9653f200f220920489ca2b5937696c31910160405180910390a3505050565b61379f848484612ad2565b6137ab848484846145d7565b611fb15760405162461bcd60e51b815260206004820152603260248201527f4552433732313a207472616e7366657220746f206e6f6e20455243373231526560448201527f63656976657220696d706c656d656e74657200000000000000000000000000006064820152608401610987565b60607ef52b0807fdece1f767ee6f74b46926674002b92e5176c0b1fbc1c6a045384a600201805461087d90615983565b60608161388e575060408051808201909152600181527f30000000000000000000000000000000000000000000000000000000000000006020820152610869565b8160005b81156138b857806138a2816159e8565b91506138b19050600a836157df565b9150613892565b60008167ffffffffffffffff8111156138e157634e487b7160e01b600052604160045260246000fd5b6040519080825280601f01601f19166020018201604052801561390b576020820181803683370190505b5090505b8415612aca57613920600183615929565b915061392d600a86615a03565b6139389060306157c7565b60f81b81838151811061395b57634e487b7160e01b600052603260045260246000fd5b60200101907effffffffffffffffffffffffffffffffffffffffffffffffffffffffffffff1916908160001a905350613995600a866157df565b945061390f565b600054610100900460ff166126e75760405162461bcd60e51b815260206004820152602b60248201527f496e697469616c697a61626c653a20636f6e7472616374206973206e6f74206960448201526a6e697469616c697a696e6760a81b6064820152608401610987565b600054610100900460ff16613a725760405162461bcd60e51b815260206004820152602b60248201527f496e697469616c697a61626c653a20636f6e7472616374206973206e6f74206960448201526a6e697469616c697a696e6760a81b6064820152608401610987565b8151613a8590609790602085019061483f565b508051610aeb90609890602084019061483f565b600054610100900460ff16613b045760405162461bcd60e51b815260206004820152602b60248201527f496e697469616c697a61626c653a20636f6e7472616374206973206e6f74206960448201526a6e697469616c697a696e6760a81b6064820152608401610987565b613b0f600082614741565b50565b600054610100900460ff16613b7d5760405162461bcd60e51b815260206004820152602b60248201527f496e697469616c697a61626c653a20636f6e7472616374206973206e6f74206960448201526a6e697469616c697a696e6760a81b6064820152608401610987565b7ef52b0807fdece1f767ee6f74b46926674002b92e5176c0b1fbc1c6a045384a805473ffffffffffffffffffffffffffffffffffffffff19166001600160a01b0393909316929092179091557ef52b0807fdece1f767ee6f74b46926674002b92e5176c0b1fbc1c6a045384b80547fffffffffffffffffffffffff00000000ffffffffffffffffffffffffffffffff1661ffff90921670010000000000000000000000000000000002919091179055565b60006001600160e01b031982167f80ac58cd00000000000000000000000000000000000000000000000000000000148061290357506001600160e01b031982167f5b5e139f0000000000000000000000000000000000000000000000000000000014806108665750610866825b60006001600160e01b031982167f7965db0b00000000000000000000000000000000000000000000000000000000148061086657507f01ffc9a7000000000000000000000000000000000000000000000000000000006001600160e01b0319831614610866565b60c9546000906001600160a01b0316331415613d4557507fffffffffffffffffffffffffffffffffffffffffffffffffffffffffffffffec36013560601c6108fe565b50336108fe565b60606000613d5b83600261590a565b613d669060026157c7565b67ffffffffffffffff811115613d8c57634e487b7160e01b600052604160045260246000fd5b6040519080825280601f01601f191660200182016040528015613db6576020820181803683370190505b5090507f300000000000000000000000000000000000000000000000000000000000000081600081518110613dfb57634e487b7160e01b600052603260045260246000fd5b60200101907effffffffffffffffffffffffffffffffffffffffffffffffffffffffffffff1916908160001a9053507f780000000000000000000000000000000000000000000000000000000000000081600181518110613e6c57634e487b7160e01b600052603260045260246000fd5b60200101907effffffffffffffffffffffffffffffffffffffffffffffffffffffffffffff1916908160001a9053506000613ea884600261590a565b613eb39060016157c7565b90505b6001811115613f6c577f303132333435363738396162636465660000000000000000000000000000000085600f1660108110613f0257634e487b7160e01b600052603260045260246000fd5b1a60f81b828281518110613f2657634e487b7160e01b600052603260045260246000fd5b60200101907effffffffffffffffffffffffffffffffffffffffffffffffffffffffffffff1916908160001a90535060049490941c93613f658161596c565b9050613eb6565b5083156115f25760405162461bcd60e51b815260206004820181905260248201527f537472696e67733a20686578206c656e67746820696e73756666696369656e746044820152606401610987565b6040517f515004380000000000000000000000000000000000000000000000000000000081526004810186905260248101839052604481018290526064810184905273__$c8b13b5401e105a03ccb2d5c98950fab3b$__9063515004389060840160206040518083038186803b15801561403457600080fd5b505af4158015614048573d6000803e3d6000fd5b505050506040513d601f19601f8201168201806040525081019061406c9190614f43565b6140b85760405162461bcd60e51b815260206004820152600c60248201527f71756164206d697373696e6700000000000000000000000000000000000000006044820152606401610987565b6040517fe8485b070000000000000000000000000000000000000000000000000000000081526004810186905260248101839052604481018290526064810184905273__$c8b13b5401e105a03ccb2d5c98950fab3b$__9063e8485b079060840160206040518083038186803b15801561413157600080fd5b505af4158015614145573d6000803e3d6000fd5b505050506040513d601f19601f820116820180604052508101906141699190614f43565b506040517f55064d850000000000000000000000000000000000000000000000000000000081526004810184905260248101839052604481018290526001600160a01b038516906355064d859060640160206040518083038186803b1580156141d157600080fd5b505afa1580156141e5573d6000803e3d6000fd5b505050506040513d601f19601f820116820180604052508101906142099190614f43565b6142a9576040517f6e1e3bbf0000000000000000000000000000000000000000000000000000000081526001600160a01b03878116600483015260248201859052604482018490526064820183905260a06084830152600060a4830152851690636e1e3bbf9060c401600060405180830381600087803b15801561428c57600080fd5b505af11580156142a0573d6000803e3d6000fd5b50505050614342565b6040517f38bb305a0000000000000000000000000000000000000000000000000000000081523060048201526001600160a01b03878116602483015260448201859052606482018490526084820183905260c060a4830152600060c48301528516906338bb305a9060e401600060405180830381600087803b15801561432e57600080fd5b505af11580156134ac573d6000803e3d6000fd5b505050505050565b600061435582610f23565b9050614362600083612921565b6001600160a01b0381166000908152609a6020526040812080546001929061438b908490615929565b9091555050600082815260996020526040808220805473ffffffffffffffffffffffffffffffffffffffff19169055518391906001600160a01b038416907fddf252ad1be2c89b69c2b068fc378daa952ba7f163c4a11628f55a4df523b3ef908390a45050565b6000806000806144018561474b565b9194509250600101905061441683838361456e565b95945050505050565b6001600160a01b0382166144755760405162461bcd60e51b815260206004820181905260248201527f4552433732313a206d696e7420746f20746865207a65726f20616464726573736044820152606401610987565b6000818152609960205260409020546001600160a01b0316156144da5760405162461bcd60e51b815260206004820152601c60248201527f4552433732313a20746f6b656e20616c7265616479206d696e746564000000006044820152606401610987565b6001600160a01b0382166000908152609a602052604081208054600192906145039084906157c7565b9091555050600081815260996020526040808220805473ffffffffffffffffffffffffffffffffffffffff19166001600160a01b03861690811790915590518392907fddf252ad1be2c89b69c2b068fc378daa952ba7f163c4a11628f55a4df523b3ef908290a45050565b60006bffffffffffffffffffffffff821661458b60606002615839565b61459b9063ffffffff861661590a565b6145a760806002615839565b6145c3906fffffffffffffffffffffffffffffffff881661590a565b6145cd91906157c7565b610ee691906157c7565b60006001600160a01b0384163b1561473657836001600160a01b031663150b7a02614600612912565b8786866040518563ffffffff1660e01b81526004016146229493929190615514565b602060405180830381600087803b15801561463c57600080fd5b505af192505050801561466c575060408051601f3d908101601f1916820190925261466991810190614fb7565b60015b61471c573d80801561469a576040519150601f19603f3d011682016040523d82523d6000602084013e61469f565b606091505b5080516147145760405162461bcd60e51b815260206004820152603260248201527f4552433732313a207472616e7366657220746f206e6f6e20455243373231526560448201527f63656976657220696d706c656d656e74657200000000000000000000000000006064820152608401610987565b805181602001fd5b6001600160e01b031916630a85bd0160e11b149050612aca565b506001949350505050565b610c4e8282612d2c565b6000808061475b60806002615839565b61476590856157df565b61477160606002615839565b61477b90866157df565b67ffffffffffffffff919091169561ffff918216959091169350915050565b8280546147a690615983565b90600052602060002090601f0160209004810192826147c8576000855561480e565b82601f106147e15782800160ff1982351617855561480e565b8280016001018555821561480e579182015b8281111561480e5782358255916020019190600101906147f3565b5061481a9291506148b3565b5090565b5080546000825560030290600052602060002090810190613b0f91906148c8565b82805461484b90615983565b90600052602060002090601f01602090048101928261486d576000855561480e565b82601f1061488657805160ff191683800117855561480e565b8280016001018555821561480e579182015b8281111561480e578251825591602001919060010190614898565b5b8082111561481a57600081556001016148b4565b8082111561481a5760008082556001820181905560028201556003016148c8565b80606081018310156115f557600080fd5b60008083601f84011261490b578182fd5b50813567ffffffffffffffff811115614922578182fd5b602083019150836020808302850101111561493c57600080fd5b9250929050565b60008083601f840112614954578182fd5b50813567ffffffffffffffff81111561496b578182fd5b60208301915083602082850101111561493c57600080fd5b600060608284031215614994578081fd5b602061499f81615775565b91506149aa81615775565b84601f8501126149b957600080fd5b6149c36060615775565b8085876060880111156149d557600080fd5b60005b60038110156149f5578135845292850192908501906001016149d8565b505082525082525092915050565b600060208284031215614a14578081fd5b81356115f281615a59565b60008060408385031215614a31578081fd5b8235614a3c81615a59565b91506020830135614a4c81615a59565b809150509250929050565b60008060008060008060008060c0898b031215614a72578384fd5b8835614a7d81615a59565b97506020890135614a8d81615a59565b96506040890135614a9d81615a59565b9550606089013561ffff81168114614ab3578485fd5b9450608089013567ffffffffffffffff80821115614acf578586fd5b614adb8c838d01614943565b909650945060a08b0135915080821115614af3578384fd5b50614b008b828c01614943565b999c989b5096995094979396929594505050565b60008060008060008060808789031215614b2c578384fd5b8635614b3781615a59565b95506020870135614b4781615a59565b9450604087013567ffffffffffffffff80821115614b63578586fd5b614b6f8a838b016148fa565b90965094506060890135915080821115614b87578384fd5b50614b9489828a01614943565b979a9699509497509295939492505050565b600080600060608486031215614bba578081fd5b8335614bc581615a59565b92506020840135614bd581615a59565b929592945050506040919091013590565b600080600080600060808688031215614bfd578283fd5b8535614c0881615a59565b94506020860135614c1881615a59565b935060408601359250606086013567ffffffffffffffff811115614c3a578182fd5b614c4688828901614943565b969995985093965092949392505050565b60008060008060808587031215614c6c578182fd5b8435614c7781615a59565b9350602085810135614c8881615a59565b935060408601359250606086013567ffffffffffffffff80821115614cab578384fd5b818801915088601f830112614cbe578384fd5b813581811115614cd057614cd0615a43565b614ce284601f19601f84011601615775565b91508082528984828501011115614cf7578485fd5b8084840185840137810190920192909252939692955090935050565b600080600060408486031215614d27578081fd5b8335614d3281615a59565b9250602084013567ffffffffffffffff80821115614d4e578283fd5b818601915086601f830112614d61578283fd5b813581811115614d6f578384fd5b876020606083028501011115614d83578384fd5b6020830194508093505050509250925092565b60008060408385031215614da8578182fd5b8235614db381615a59565b91506020830135614a4c81615a6e565b60008060408385031215614dd5578182fd5b8235614de081615a59565b946020939093013593505050565b600060208284031215614dff578081fd5b813567ffffffffffffffff811115614e15578182fd5b612aca848285016148e9565b60006020808385031215614e33578182fd5b825167ffffffffffffffff80821115614e4a578384fd5b818501915085601f830112614e5d578384fd5b815181811115614e6f57614e6f615a43565b614e7c8485830201615775565b81815284810192508385016060808402860187018a1015614e9b578788fd5b8795505b83861015614f355780828b031215614eb5578788fd5b614ebe87615775565b614ec788615775565b8b601f850112614ed557898afd5b614ee7614ee260036157a6565b615775565b80858587018f811115614ef8578d8efd5b8d5b6003811015614f175782518552938d0193918d0191600101614efa565b50918452509183525090865260019690960195948701949150614e9f565b509098975050505050505050565b600060208284031215614f54578081fd5b81516115f281615a6e565b600060208284031215614f70578081fd5b5035919050565b60008060408385031215614f89578182fd5b823591506020830135614a4c81615a59565b600060208284031215614fac578081fd5b81356115f281615a7c565b600060208284031215614fc8578081fd5b81516115f281615a7c565b60008060208385031215614fe5578182fd5b823567ffffffffffffffff811115614ffb578283fd5b61500785828601614943565b90969095509350505050565b600060208284031215615024578081fd5b5051919050565b6000806040838503121561503d578182fd5b82359150602083013567ffffffffffffffff81111561505a578182fd5b615066858286016148e9565b9150509250929050565b600080600080600060808688031215615087578283fd5b85359450602086013567ffffffffffffffff808211156150a5578485fd5b6150b189838a016148e9565b955060408801359150808211156150c6578485fd5b6150d289838a016148fa565b909550935060608801359150808211156150ea578283fd5b506150f7888289016148e9565b9150509295509295909350565b60008060008060608587031215615119578182fd5b84359350602085013567ffffffffffffffff80821115615137578384fd5b615143888389016148fa565b9095509350604087013591508082111561515b578283fd5b50615168878288016148e9565b91505092959194509250565b6000808284036101a0811215615188578283fd5b83359250610180601f198201121561519e578182fd5b506151a96080615775565b6151b68560208601614983565b81526151c58560808601614983565b60208201526151d78560e08601614983565b60408201526151ea856101408601614983565b6060820152809150509250929050565b60008060006060848603121561520e578081fd5b505081359360208301359350604090920135919050565b6000815180845260208085019450808401835b8381101561527a578151515187865b600381101561526457825182529185019190850190600101615247565b5050506060969096019590820190600101615238565b509495945050505050565b60008284527f07ffffffffffffffffffffffffffffffffffffffffffffffffffffffffffffff8311156152b6578081fd5b6020830280836020870137939093016020019283525090919050565b600081518084526152ea816020860160208601615940565b601f01601f19169290920160200192915050565b8051518260005b6003811015615324578251825260209283019290910190600101615305565b5050505050565b6000835161533d818460208801615940565b835190830190615351818360208801615940565b01949350505050565b6000825161536c818460208701615940565b7f706f6c79676f6e5f6573746174652e6a736f6e00000000000000000000000000920191825250601301919050565b60007f416363657373436f6e74726f6c3a206163636f756e7420000000000000000000825283516153d3816017850160208801615940565b7f206973206d697373696e6720726f6c65200000000000000000000000000000006017918401918201528351615410816028840160208801615940565b01602801949350505050565b6001600160a01b038581168252841660208201526060604082018190528181018390526000908460808401835b8681101561546857838383379083018481529183019190600101615449565b5098975050505050505050565b60006001600160a01b038086168352808516602084015250606060408301526144166060830184615225565b60006001600160a01b03808b168352808a1660208401525060c060408301526154ce60c08301888a615285565b82810360608401526154e1818789615285565b905082810360808401526154f6818587615285565b83810360a09094019390935250815260200198975050505050505050565b60006001600160a01b0380871683528086166020840152508360408301526080606083015261554660808301846152d2565b9695505050505050565b60006001600160a01b038416825260406020830152610ee66040830184615225565b60006001600160a01b038516825260406020830152614416604083018486615285565b60208082526000906080830183820185845b600381101561561557601f198785030183528135601e198936030181126155cc578687fd5b8801803567ffffffffffffffff8111156155e4578788fd5b86810236038a13156155f4578788fd5b6156018682898501615285565b9550505091840191908401906001016155a7565b50919695505050505050565b6000602082526115f26020830184615225565b6000602082526115f260208301846152d2565b60006040825261565a60408301866152d2565b82810360208401528381528385602083013781602085830101526020601f19601f860116820101915050949350505050565b83815260406020820181905281018290526000606080830185835b868110156156c6578382843791830184815291908301906001016156a7565b5090979650505050505050565b60006101a0820190508382526156ed6020830184516152fe565b60208301516156ff60808401826152fe565b50604083015161571260e08401826152fe565b5060608301516157266101408401826152fe565b509392505050565b6000808335601e19843603018112615744578283fd5b83018035915067ffffffffffffffff82111561575e578283fd5b602090810192508102360382131561493c57600080fd5b604051601f8201601f1916810167ffffffffffffffff8111828210171561579e5761579e615a43565b604052919050565b600067ffffffffffffffff8211156157c0576157c0615a43565b5060200290565b600082198211156157da576157da615a17565b500190565b6000826157ee576157ee615a2d565b500490565b80825b60018086116158055750615830565b81870482111561581757615817615a17565b8086161561582457918102915b9490941c9380026157f6565b94509492505050565b60006115f260001960ff85168460008261585557506001610ee9565b8161586257506000610ee9565b81600181146158785760028114615882576158af565b6001915050610ee9565b60ff84111561589357615893615a17565b6001841b9150848211156158a9576158a9615a17565b50610ee9565b5060208310610133831016604e8410600b84101617156158e2575081810a838111156158dd576158dd615a17565b610ee9565b6158ef84848460016157f3565b80860482111561590157615901615a17565b02949350505050565b600081600019048311821515161561592457615924615a17565b500290565b60008282101561593b5761593b615a17565b500390565b60005b8381101561595b578181015183820152602001615943565b83811115611fb15750506000910152565b60008161597b5761597b615a17565b506000190190565b60028104600182168061599757607f821691505b602082108114156135cf57634e487b7160e01b600052602260045260246000fd5b60006fffffffffffffffffffffffffffffffff808316818114156159de576159de615a17565b6001019392505050565b60006000198214156159fc576159fc615a17565b5060010190565b600082615a1257615a12615a2d565b500690565b634e487b7160e01b600052601160045260246000fd5b634e487b7160e01b600052601260045260246000fd5b634e487b7160e01b600052604160045260246000fd5b6001600160a01b0381168114613b0f57600080fd5b8015158114613b0f57600080fd5b6001600160e01b031981168114613b0f57600080fdfea264697066735822122045d4f3036f308dd259ea56f42dfd5b9be89ec658fccc12d4df6205f8989dc00a64736f6c63430008020033",
  "libraries": {
    "MapLib": "0xf23B8c9debCdCEa2a40E81c3f6d786987069D40d"
  },
  "devdoc": {
    "events": {
      "EstateRegistryChanged(address,address,address)": {
        "details": "Emitted when the registry is changed",
        "params": {
          "newRegistry": "new address of the registry",
          "oldRegistry": "old address of the registry",
          "operator": "The msg sender"
        }
      }
    },
    "kind": "dev",
    "methods": {
      "addLand(uint256,uint256[][3])": {
        "params": {
          "landToAdd": "The set of quads to add.",
          "oldId": "the estate id that will be updated"
        },
        "returns": {
          "_0": "estateId the new estate Id"
        }
      },
      "approve(address,uint256)": {
        "details": "See {IERC721-approve}."
      },
      "balanceOf(address)": {
        "details": "See {IERC721-balanceOf}."
      },
      "burn(uint256,uint256[],uint256[][3])": {
        "details": "to be able to remove lands they must be completely unlinked from any experience (in the registry)to be able to burn an estate it must be empty",
        "params": {
          "estateId": "the estate id that will be updated",
          "expToUnlink": "experiences to unlink",
          "landToRemove": "The set of quads to remove."
        }
      },
      "burnEstate(address,uint256)": {
        "details": "to be able to bridge an estate all the lands must be unlinked (we don't have a registry on L1)",
        "params": {
          "estateId": "the id of the estate token",
          "from": "user that is trying to use the bridge"
        },
        "returns": {
          "tiles": "the list of tiles (aka lands) to add to the estate"
        }
      },
      "contain(uint256,(((uint256[3])),((uint256[3])),((uint256[3])),((uint256[3]))))": {
        "params": {
          "estateId": "the estate id",
          "s": "displaced template"
        },
        "returns": {
          "_0": "true if the estate contain all the lands of the displaced template"
        }
      },
      "contractURI()": {
        "details": "See https://docs.opensea.io/docs/contract-level-metadata",
        "returns": {
          "_0": "the metadata url for the whole contract"
        }
      },
      "create(uint256[][3])": {
        "params": {
          "landToAdd": "The set of quads to add."
        },
        "returns": {
          "estateId": "the estate Id created"
        }
      },
      "exists(uint256)": {
        "details": "Tokens can be managed by their owner or approved accounts via {approve} or {setApprovalForAll}.Tokens start existing when they are minted (`mint`), and stop existing when they are burned (`burn`)."
      },
      "getApproved(uint256)": {
        "details": "See {IERC721-getApproved}."
      },
      "getChainIndex()": {
        "returns": {
          "_0": "chain index"
        }
      },
      "getLandAt(uint256,uint256,uint256)": {
        "params": {
          "estateId": "the estate id",
          "limit": "amount of entries to get (pagination)",
          "offset": "an amount of entries to skip in the array (pagination)"
        },
        "returns": {
          "_0": "an array of tiles describing the map of lands"
        }
      },
      "getLandCount(uint256)": {
        "params": {
          "estateId": "the estate id"
        },
        "returns": {
          "_0": "the amount of lands inside the estate"
        }
      },
      "getLandLength(uint256)": {
        "params": {
          "estateId": "the estate id"
        },
        "returns": {
          "_0": "the length of the tile map"
        }
      },
      "getLandToken()": {
        "returns": {
          "_0": "land token contract address"
        }
      },
      "getNextId()": {
        "returns": {
          "_0": "next id"
        }
      },
      "getOwnerOfStorage(uint256)": {
        "params": {
          "storageId": "the storage id for an estate"
        },
        "returns": {
          "_0": "owner address"
        }
      },
      "getRegistry()": {
        "returns": {
          "_0": "registry the registry contract address"
        }
      },
      "getRoleAdmin(bytes32)": {
        "details": "Returns the admin role that controls `role`. See {grantRole} and {revokeRole}. To change a role's admin, use {_setRoleAdmin}."
      },
      "getStorageId(uint256)": {
        "params": {
          "estateId": "the estate id"
        },
        "returns": {
          "_0": "the storage Id"
        }
      },
      "grantRole(bytes32,address)": {
        "details": "Grants `role` to `account`. If `account` had not been already granted `role`, emits a {RoleGranted} event. Requirements: - the caller must have ``role``'s admin role."
      },
      "hasRole(bytes32,address)": {
        "details": "Returns `true` if `account` has been granted `role`."
      },
      "initV1(address,address,address,uint16,string,string)": {
        "params": {
          "admin": "initial admin role that can grant or revoke other roles",
          "chainIndex_": "the chain index for example: 0:mainnet, 1:polygon, etc",
          "landToken_": "the address of the land token contract",
          "name_": "name of the token",
          "symbol_": "symbol of the token",
          "trustedForwarder": "address of the meta tx trustedForwarder"
        }
      },
      "isApprovedForAll(address,address)": {
        "details": "See {IERC721-isApprovedForAll}."
      },
      "mintEstate(address,((uint256[3]))[])": {
        "params": {
          "tiles": "the list of tiles (aka lands) to add to the estate",
          "to": "user that will get the new minted Estate"
        },
        "returns": {
          "_0": "the estate Id created"
        }
      },
      "name()": {
        "details": "See {IERC721Metadata-name}."
      },
      "ownerOf(uint256)": {
        "details": "See {IERC721-ownerOf}."
      },
      "renounceRole(bytes32,address)": {
        "details": "Revokes `role` from the calling account. Roles are often managed via {grantRole} and {revokeRole}: this function's purpose is to provide a mechanism for accounts to lose their privileges if they are compromised (such as when a trusted device is misplaced). If the calling account had been revoked `role`, emits a {RoleRevoked} event. Requirements: - the caller must be `account`."
      },
      "revokeRole(bytes32,address)": {
        "details": "Revokes `role` from `account`. If `account` had been granted `role`, emits a {RoleRevoked} event. Requirements: - the caller must have ``role``'s admin role."
      },
      "safeTransferFrom(address,address,uint256)": {
        "details": "See {IERC721-safeTransferFrom}."
      },
      "safeTransferFrom(address,address,uint256,bytes)": {
        "details": "See {IERC721-safeTransferFrom}."
      },
      "setApprovalForAll(address,bool)": {
        "details": "See {IERC721-setApprovalForAll}."
      },
      "setBaseURI(string)": {
        "params": {
          "baseUri": "the base uri of the metadata url"
        }
      },
      "setLandToken(address)": {
        "params": {
          "landToken": "the new address of the land contract"
        }
      },
      "setRegistry(address)": {
        "params": {
          "registry": "the registry contract address"
        }
      },
      "setTrustedForwarder(address)": {
        "params": {
          "trustedForwarder": "address of the meta tx trustedForwarder"
        }
      },
      "supportsInterface(bytes4)": {
        "params": {
          "interfaceId": "The id of the interface."
        },
        "returns": {
          "_0": "Whether the interface is supported."
        }
      },
      "symbol()": {
        "details": "See {IERC721Metadata-symbol}."
      },
      "tokenURI(uint256)": {
        "details": "See {IERC721Metadata-tokenURI}."
      },
      "transferFrom(address,address,uint256)": {
        "details": "See {IERC721-transferFrom}."
      },
      "update(uint256,uint256[][3],uint256[],uint256[][3])": {
        "details": "to be able to remove lands they must be completely unlinked from any experience (in the registry)",
        "params": {
          "expToUnlink": "experiences to unlink",
          "landToAdd": "The set of quads to add.",
          "landToRemove": "The set of quads to remove.",
          "oldId": "the estate id that will be updated"
        },
        "returns": {
          "_0": "estateId the new estate Id"
        }
      }
    },
    "version": 1
  },
  "userdoc": {
    "kind": "user",
    "methods": {
      "addLand(uint256,uint256[][3])": {
        "notice": "Add the given quads (aka lands) to an Estate."
      },
      "burn(uint256,uint256[],uint256[][3])": {
        "notice": "burn an estate"
      },
      "burnEstate(address,uint256)": {
        "notice": "completely burn an estate (Used by the bridge)"
      },
      "contain(uint256,(((uint256[3])),((uint256[3])),((uint256[3])),((uint256[3]))))": {
        "notice": "check if the estate contains certain displaced template (used by the registry)"
      },
      "create(uint256[][3])": {
        "notice": "Create a new estate token adding the given quads (aka lands)."
      },
      "exists(uint256)": {
        "notice": "Returns whether `tokenId` exists."
      },
      "getChainIndex()": {
        "notice": "return the chain index"
      },
      "getLandAt(uint256,uint256,uint256)": {
        "notice": "return an array of tiles describing the map of lands for a given estate"
      },
      "getLandCount(uint256)": {
        "notice": "return the amount of lands inside the estate"
      },
      "getLandLength(uint256)": {
        "notice": "return the amount of tiles that describe the land map inside a given estate"
      },
      "getLandToken()": {
        "notice": "return the address of the land token contract"
      },
      "getNextId()": {
        "notice": "return the id of the next estate token"
      },
      "getOwnerOfStorage(uint256)": {
        "notice": "return owner of the estateId ignoring version rotations (used by the registry)"
      },
      "getRegistry()": {
        "notice": "get the registry contract address"
      },
      "getStorageId(uint256)": {
        "notice": "given and estateId return the part that doesn't change when the version is incremented"
      },
      "initV1(address,address,address,uint16,string,string)": {
        "notice": "initialization"
      },
      "mintEstate(address,((uint256[3]))[])": {
        "notice": "create a new estate from scratch (Used by the bridge)"
      },
      "onERC721BatchReceived(address,address,uint256[],bytes)": {
        "notice": "this is necessary to be able to receive land"
      },
      "onERC721Received(address,address,uint256,bytes)": {
        "notice": "this is necessary to be able to receive land"
      },
      "setBaseURI(string)": {
        "notice": "change the base uri of the metadata url"
      },
      "setLandToken(address)": {
        "notice": "change the address of the land contract"
      },
      "setRegistry(address)": {
        "notice": "set the registry contract address"
      },
      "setTrustedForwarder(address)": {
        "notice": "set the trusted forwarder (used by the admin in case of misconfiguration)"
      },
      "supportsInterface(bytes4)": {
        "notice": "Check if the contract supports an interface."
      },
      "update(uint256,uint256[][3],uint256[],uint256[][3])": {
        "notice": "update an estate adding and removing lands, and unlinking experiences in one step"
      }
    },
    "version": 1
  },
  "storageLayout": {
    "storage": [
      {
        "astId": 7579,
        "contract": "src/solc_0.8/polygon/child/estate/PolygonEstateTokenV1.sol:PolygonEstateTokenV1",
        "label": "_initialized",
        "offset": 0,
        "slot": "0",
        "type": "t_bool"
      },
      {
        "astId": 7582,
        "contract": "src/solc_0.8/polygon/child/estate/PolygonEstateTokenV1.sol:PolygonEstateTokenV1",
        "label": "_initializing",
        "offset": 1,
        "slot": "0",
        "type": "t_bool"
      },
      {
        "astId": 9544,
        "contract": "src/solc_0.8/polygon/child/estate/PolygonEstateTokenV1.sol:PolygonEstateTokenV1",
        "label": "__gap",
        "offset": 0,
        "slot": "1",
        "type": "t_array(t_uint256)50_storage"
      },
      {
        "astId": 10332,
        "contract": "src/solc_0.8/polygon/child/estate/PolygonEstateTokenV1.sol:PolygonEstateTokenV1",
        "label": "__gap",
        "offset": 0,
        "slot": "51",
        "type": "t_array(t_uint256)50_storage"
      },
      {
        "astId": 7085,
        "contract": "src/solc_0.8/polygon/child/estate/PolygonEstateTokenV1.sol:PolygonEstateTokenV1",
        "label": "_roles",
        "offset": 0,
        "slot": "101",
        "type": "t_mapping(t_bytes32,t_struct(RoleData)7080_storage)"
      },
      {
        "astId": 7372,
        "contract": "src/solc_0.8/polygon/child/estate/PolygonEstateTokenV1.sol:PolygonEstateTokenV1",
        "label": "__gap",
        "offset": 0,
        "slot": "102",
        "type": "t_array(t_uint256)49_storage"
      },
      {
        "astId": 7866,
        "contract": "src/solc_0.8/polygon/child/estate/PolygonEstateTokenV1.sol:PolygonEstateTokenV1",
        "label": "_name",
        "offset": 0,
        "slot": "151",
        "type": "t_string_storage"
      },
      {
        "astId": 7868,
        "contract": "src/solc_0.8/polygon/child/estate/PolygonEstateTokenV1.sol:PolygonEstateTokenV1",
        "label": "_symbol",
        "offset": 0,
        "slot": "152",
        "type": "t_string_storage"
      },
      {
        "astId": 7872,
        "contract": "src/solc_0.8/polygon/child/estate/PolygonEstateTokenV1.sol:PolygonEstateTokenV1",
        "label": "_owners",
        "offset": 0,
        "slot": "153",
        "type": "t_mapping(t_uint256,t_address)"
      },
      {
        "astId": 7876,
        "contract": "src/solc_0.8/polygon/child/estate/PolygonEstateTokenV1.sol:PolygonEstateTokenV1",
        "label": "_balances",
        "offset": 0,
        "slot": "154",
        "type": "t_mapping(t_address,t_uint256)"
      },
      {
        "astId": 7880,
        "contract": "src/solc_0.8/polygon/child/estate/PolygonEstateTokenV1.sol:PolygonEstateTokenV1",
        "label": "_tokenApprovals",
        "offset": 0,
        "slot": "155",
        "type": "t_mapping(t_uint256,t_address)"
      },
      {
        "astId": 7886,
        "contract": "src/solc_0.8/polygon/child/estate/PolygonEstateTokenV1.sol:PolygonEstateTokenV1",
        "label": "_operatorApprovals",
        "offset": 0,
        "slot": "156",
        "type": "t_mapping(t_address,t_mapping(t_address,t_bool))"
      },
      {
        "astId": 8697,
        "contract": "src/solc_0.8/polygon/child/estate/PolygonEstateTokenV1.sol:PolygonEstateTokenV1",
        "label": "__gap",
        "offset": 0,
        "slot": "157",
        "type": "t_array(t_uint256)44_storage"
      },
      {
        "astId": 36751,
        "contract": "src/solc_0.8/polygon/child/estate/PolygonEstateTokenV1.sol:PolygonEstateTokenV1",
        "label": "_trustedForwarder",
        "offset": 0,
        "slot": "201",
        "type": "t_address"
      },
      {
        "astId": 36840,
        "contract": "src/solc_0.8/polygon/child/estate/PolygonEstateTokenV1.sol:PolygonEstateTokenV1",
        "label": "__gap",
        "offset": 0,
        "slot": "202",
        "type": "t_array(t_uint256)49_storage"
      },
      {
        "astId": 50122,
        "contract": "src/solc_0.8/polygon/child/estate/PolygonEstateTokenV1.sol:PolygonEstateTokenV1",
        "label": "__preGap",
        "offset": 0,
        "slot": "251",
        "type": "t_array(t_uint256)50_storage"
      },
      {
        "astId": 51069,
        "contract": "src/solc_0.8/polygon/child/estate/PolygonEstateTokenV1.sol:PolygonEstateTokenV1",
        "label": "__posGap",
        "offset": 0,
        "slot": "301",
        "type": "t_array(t_uint256)50_storage"
      }
    ],
    "types": {
      "t_address": {
        "encoding": "inplace",
        "label": "address",
        "numberOfBytes": "20"
      },
      "t_array(t_uint256)44_storage": {
        "base": "t_uint256",
        "encoding": "inplace",
        "label": "uint256[44]",
        "numberOfBytes": "1408"
      },
      "t_array(t_uint256)49_storage": {
        "base": "t_uint256",
        "encoding": "inplace",
        "label": "uint256[49]",
        "numberOfBytes": "1568"
      },
      "t_array(t_uint256)50_storage": {
        "base": "t_uint256",
        "encoding": "inplace",
        "label": "uint256[50]",
        "numberOfBytes": "1600"
      },
      "t_bool": {
        "encoding": "inplace",
        "label": "bool",
        "numberOfBytes": "1"
      },
      "t_bytes32": {
        "encoding": "inplace",
        "label": "bytes32",
        "numberOfBytes": "32"
      },
      "t_mapping(t_address,t_bool)": {
        "encoding": "mapping",
        "key": "t_address",
        "label": "mapping(address => bool)",
        "numberOfBytes": "32",
        "value": "t_bool"
      },
      "t_mapping(t_address,t_mapping(t_address,t_bool))": {
        "encoding": "mapping",
        "key": "t_address",
        "label": "mapping(address => mapping(address => bool))",
        "numberOfBytes": "32",
        "value": "t_mapping(t_address,t_bool)"
      },
      "t_mapping(t_address,t_uint256)": {
        "encoding": "mapping",
        "key": "t_address",
        "label": "mapping(address => uint256)",
        "numberOfBytes": "32",
        "value": "t_uint256"
      },
      "t_mapping(t_bytes32,t_struct(RoleData)7080_storage)": {
        "encoding": "mapping",
        "key": "t_bytes32",
        "label": "mapping(bytes32 => struct AccessControlUpgradeable.RoleData)",
        "numberOfBytes": "32",
        "value": "t_struct(RoleData)7080_storage"
      },
      "t_mapping(t_uint256,t_address)": {
        "encoding": "mapping",
        "key": "t_uint256",
        "label": "mapping(uint256 => address)",
        "numberOfBytes": "32",
        "value": "t_address"
      },
      "t_string_storage": {
        "encoding": "bytes",
        "label": "string",
        "numberOfBytes": "32"
      },
      "t_struct(RoleData)7080_storage": {
        "encoding": "inplace",
        "label": "struct AccessControlUpgradeable.RoleData",
        "members": [
          {
            "astId": 7077,
            "contract": "src/solc_0.8/polygon/child/estate/PolygonEstateTokenV1.sol:PolygonEstateTokenV1",
            "label": "members",
            "offset": 0,
            "slot": "0",
            "type": "t_mapping(t_address,t_bool)"
          },
          {
            "astId": 7079,
            "contract": "src/solc_0.8/polygon/child/estate/PolygonEstateTokenV1.sol:PolygonEstateTokenV1",
            "label": "adminRole",
            "offset": 0,
            "slot": "1",
            "type": "t_bytes32"
          }
        ],
        "numberOfBytes": "64"
      },
      "t_uint256": {
        "encoding": "inplace",
        "label": "uint256",
        "numberOfBytes": "32"
      }
    }
  }
}