{
  "address": "0xec552B17995198A0e71E9198D047B5Ec42710359",
  "abi": [
    {
      "inputs": [
        {
          "internalType": "contract IEstateToken",
          "name": "_estateToken",
          "type": "address"
        },
        {
          "internalType": "contract IExperienceToken",
          "name": "_experienceToken",
          "type": "address"
        },
        {
          "internalType": "contract IERC721",
          "name": "_landToken",
          "type": "address"
        }
      ],
      "stateMutability": "nonpayable",
      "type": "constructor"
    },
    {
      "inputs": [
        {
          "internalType": "address",
          "name": "from",
          "type": "address"
        },
        {
          "internalType": "uint256[]",
          "name": "expIdsToUnlink",
          "type": "uint256[]"
        }
      ],
      "name": "batchUnLinkFrom",
      "outputs": [],
      "stateMutability": "nonpayable",
      "type": "function"
    },
    {
      "inputs": [],
      "name": "estateToken",
      "outputs": [
        {
          "internalType": "contract IEstateToken",
          "name": "",
          "type": "address"
        }
      ],
      "stateMutability": "view",
      "type": "function"
    },
    {
      "inputs": [],
      "name": "experienceToken",
      "outputs": [
        {
          "internalType": "contract IExperienceToken",
          "name": "",
          "type": "address"
        }
      ],
      "stateMutability": "view",
      "type": "function"
    },
    {
      "inputs": [
        {
          "internalType": "uint256",
          "name": "expId",
          "type": "uint256"
        }
      ],
      "name": "isLinked",
      "outputs": [
        {
          "internalType": "bool",
          "name": "",
          "type": "bool"
        }
      ],
      "stateMutability": "view",
      "type": "function"
    },
    {
      "inputs": [
        {
          "internalType": "uint256[][3]",
          "name": "quads",
          "type": "uint256[][3]"
        }
      ],
      "name": "isLinked",
      "outputs": [
        {
          "internalType": "bool",
          "name": "",
          "type": "bool"
        }
      ],
      "stateMutability": "view",
      "type": "function"
    },
    {
      "inputs": [
        {
          "components": [
            {
              "components": [
                {
                  "internalType": "uint256[3]",
                  "name": "data",
                  "type": "uint256[3]"
                }
              ],
              "internalType": "struct TileLib.Tile",
              "name": "tile",
              "type": "tuple"
            }
          ],
          "internalType": "struct TileWithCoordLib.TileWithCoord[]",
          "name": "tiles",
          "type": "tuple[]"
        }
      ],
      "name": "isLinked",
      "outputs": [
        {
          "internalType": "bool",
          "name": "",
          "type": "bool"
        }
      ],
      "stateMutability": "view",
      "type": "function"
    },
    {
      "inputs": [],
      "name": "landToken",
      "outputs": [
        {
          "internalType": "contract IERC721",
          "name": "",
          "type": "address"
        }
      ],
      "stateMutability": "view",
      "type": "function"
    },
    {
      "inputs": [
        {
          "internalType": "uint256",
          "name": "estateId",
          "type": "uint256"
        },
        {
          "internalType": "uint256",
          "name": "expId",
          "type": "uint256"
        },
        {
          "internalType": "uint256",
          "name": "x",
          "type": "uint256"
        },
        {
          "internalType": "uint256",
          "name": "y",
          "type": "uint256"
        }
      ],
      "name": "link",
      "outputs": [],
      "stateMutability": "nonpayable",
      "type": "function"
    },
    {
      "inputs": [
        {
          "internalType": "uint256",
          "name": "expId",
          "type": "uint256"
        },
        {
          "internalType": "uint256",
          "name": "x",
          "type": "uint256"
        },
        {
          "internalType": "uint256",
          "name": "y",
          "type": "uint256"
        }
      ],
      "name": "linkSingle",
      "outputs": [],
      "stateMutability": "nonpayable",
      "type": "function"
    },
    {
      "inputs": [
        {
          "internalType": "uint256[]",
          "name": "expIdsToUnlink",
          "type": "uint256[]"
        },
        {
          "components": [
            {
              "internalType": "uint256",
              "name": "estateId",
              "type": "uint256"
            },
            {
              "internalType": "uint256",
              "name": "expId",
              "type": "uint256"
            },
            {
              "internalType": "uint256",
              "name": "x",
              "type": "uint256"
            },
            {
              "internalType": "uint256",
              "name": "y",
              "type": "uint256"
            }
          ],
          "internalType": "struct ExperienceEstateRegistry.RelinkData[]",
          "name": "expToLink",
          "type": "tuple[]"
        }
      ],
      "name": "relink",
      "outputs": [],
      "stateMutability": "nonpayable",
      "type": "function"
    },
    {
      "inputs": [
        {
          "internalType": "uint256",
          "name": "expId",
          "type": "uint256"
        }
      ],
      "name": "unLink",
      "outputs": [],
      "stateMutability": "nonpayable",
      "type": "function"
    }
  ],
  "transactionHash": "0xa9437e77d38766c00de6b5ed5d8451e673a11bb32961d998eccefd8de59c395f",
  "args": [
    "0x376698f160E16978f2Cc0339ff72887923E5F3a1",
    "0x43E77eC0D2079A046736969391F0b9e7CE3f4A45",
    "0x9d305a42A3975Ee4c1C57555BeD5919889DCE63F"
  ],
  "numDeployments": 1,
  "solcInputHash": "6b6bb51793ac28176be0d330acf83587",
  "bytecode": "0x60806040523480156200001157600080fd5b506040516200220238038062002202833981016040819052620000349162000075565b600080546001600160a01b03199081166001600160a01b039485161790915560018054821694841694909417909355600280549093169116179055620000e1565b6000806000606084860312156200008a578283fd5b83516200009781620000c8565b6020850151909350620000aa81620000c8565b6040850151909250620000bd81620000c8565b809150509250925092565b6001600160a01b0381168114620000de57600080fd5b50565b61211180620000f16000396000f3fe608060405234801561001057600080fd5b50600436106100c95760003560e01c8063ad51dacb11610081578063cb1ada7c1161005b578063cb1ada7c14610195578063d6c6cfde146101a8578063e67af1b1146101bb576100c9565b8063ad51dacb1461015c578063b44468fb1461016f578063c396d7b414610182576100c9565b80631a07585d116100b25780631a07585d146100f657806320a23e34146101265780633cbe399714610149576100c9565b8063108487fc146100ce57806312202d0a146100e3575b600080fd5b6100e16100dc366004611b03565b6101ce565b005b6100e16100f1366004611a08565b610248565b600054610109906001600160a01b031681565b6040516001600160a01b0390911681526020015b60405180910390f35b610139610134366004611cc7565b6102b7565b604051901515815260200161011d565b610139610157366004611a5b565b61034e565b61013961016a366004611a93565b610515565b600254610109906001600160a01b031681565b6100e1610190366004611cf7565b6105c3565b6100e16101a3366004611cc7565b6105d0565b6100e16101b6366004611d22565b6105dd565b600154610109906001600160a01b031681565b6101d93384846105ef565b805160005b8181101561024157600083828151811061020857634e487b7160e01b600052603260045260246000fd5b6020026020010151905061022e816000015182602001518360400151846060015161063d565b508061023981612055565b9150506101de565b5050505050565b6001546001600160a01b031633146102a75760405162461bcd60e51b815260206004820152601c60248201527f63616e2062652063616c6c6564206f6e6c79206279206573746174650000000060448201526064015b60405180910390fd5b6102b28383836105ef565b505050565b600080546040516321ab0c7160e01b81526004810184905282916001600160a01b0316906321ab0c719060240160206040518083038186803b1580156102fc57600080fd5b505afa158015610310573d6000803e3d6000fd5b505050506040513d601f19601f820116820180604052508101906103349190611cdf565b60009081526003602052604090205415159150505b919050565b60008061035b8380611e0e565b9050905060005b8181101561050b5773f23B8c9debCdCEa2a40E81c3f6d786987069D40d6372ba788860046103936020880188611e0e565b858181106103b157634e487b7160e01b600052603260045260246000fd5b90506020020135876002600381106103d957634e487b7160e01b600052603260045260246000fd5b6020028101906103e99190611e0e565b8681811061040757634e487b7160e01b600052603260045260246000fd5b905060200201358860006003811061042f57634e487b7160e01b600052603260045260246000fd5b60200281019061043f9190611e0e565b8781811061045d57634e487b7160e01b600052603260045260246000fd5b905060200201356040518563ffffffff1660e01b8152600401610499949392919093845260208401929092526040830152606082015260800190565b60206040518083038186803b1580156104b157600080fd5b505af41580156104c5573d6000803e3d6000fd5b505050506040513d601f19601f820116820180604052508101906104e99190611bfb565b156104f957600192505050610349565b8061050381612055565b915050610362565b5060009392505050565b6040517fcca0f3b700000000000000000000000000000000000000000000000000000000815260009073f23B8c9debCdCEa2a40E81c3f6d786987069D40d9063cca0f3b79061056c90600490879087908301611d79565b60206040518083038186803b15801561058457600080fd5b505af4158015610598573d6000803e3d6000fd5b505050506040513d601f19601f820116820180604052508101906105bc9190611bfb565b9392505050565b6102b2600084848461063d565b6105da3382610f27565b50565b6105e98484848461063d565b50505050565b8060005b818110156102415761062b8585858481811061061f57634e487b7160e01b600052603260045260246000fd5b90506020020135610f27565b8061063581612055565b9150506105f3565b600080546040516321ab0c7160e01b8152600481018690526001600160a01b03909116906321ab0c719060240160206040518083038186803b15801561068257600080fd5b505afa158015610696573d6000803e3d6000fd5b505050506040513d601f19601f820116820180604052508101906106ba9190611cdf565b600080546040517f31543cf400000000000000000000000000000000000000000000000000000000815260048101849052929350909182916001600160a01b0316906331543cf49060240160006040518083038186803b15801561071d57600080fd5b505afa158015610731573d6000803e3d6000fd5b505050506040513d6000823e601f3d908101601f191682016040526107599190810190611c1b565b9150915060008151116107ae5760405162461bcd60e51b815260206004820152600e60248201527f656d7074792074656d706c617465000000000000000000000000000000000000604482015260640161029e565b600083815260036020526040902080541561080b5760405162461bcd60e51b815260206004820152601260248201527f45787020616c726561647920696e207573650000000000000000000000000000604482015260640161029e565b87610b435781516001146108615760405162461bcd60e51b815260206004820152601a60248201527f6d75737420626520646f6e6520696e7369646520657374617465000000000000604482015260640161029e565b600061086f86610198612008565b878460008151811061089157634e487b7160e01b600052603260045260246000fd5b60200260200101516108a39190611ec8565b6108ad9190611ec8565b905060006108bd61019883612070565b905060006108cd61019884611ee0565b9050336002546040517f6352211e000000000000000000000000000000000000000000000000000000008152600481018690526001600160a01b039283169290911690636352211e9060240160206040518083038186803b15801561093157600080fd5b505afa158015610945573d6000803e3d6000fd5b505050506040513d601f19601f8201168201806040525081019061096991906119ec565b6001600160a01b0316146109ae5760405162461bcd60e51b815260206004820152600c60248201526b34b73b30b634b2103ab9b2b960a11b604482015260640161029e565b6040517f3362c7cd000000000000000000000000000000000000000000000000000000008152600480820152602481018390526044810182905273f23B8c9debCdCEa2a40E81c3f6d786987069D40d90633362c7cd9060640160206040518083038186803b158015610a1f57600080fd5b505af4158015610a33573d6000803e3d6000fd5b505050506040513d601f19601f82011682018060405250810190610a579190611bfb565b15610aa45760405162461bcd60e51b815260206004820152600e60248201527f616c7265616479206c696e6b6564000000000000000000000000000000000000604482015260640161029e565b6040517ff9b9fec600000000000000000000000000000000000000000000000000000000815260048082015260248101839052604481018290526001606482015273f23B8c9debCdCEa2a40E81c3f6d786987069D40d9063f9b9fec69060840160006040518083038186803b158015610b1c57600080fd5b505af4158015610b30573d6000803e3d6000fd5b5050505050600183019190915550610f11565b336001546040517fd3fec7cf000000000000000000000000000000000000000000000000000000008152600481018b90526001600160a01b03928316929091169063d3fec7cf9060240160206040518083038186803b158015610ba557600080fd5b505afa158015610bb9573d6000803e3d6000fd5b505050506040513d601f19601f82011682018060405250810190610bdd91906119ec565b6001600160a01b031614610c225760405162461bcd60e51b815260206004820152600c60248201526b34b73b30b634b2103ab9b2b960a11b604482015260640161029e565b6000610c2f848888611358565b6040517f552a98a500000000000000000000000000000000000000000000000000000000815290915073f23B8c9debCdCEa2a40E81c3f6d786987069D40d9063552a98a590610c849060049085908201611db3565b60206040518083038186803b158015610c9c57600080fd5b505af4158015610cb0573d6000803e3d6000fd5b505050506040513d601f19601f82011682018060405250810190610cd49190611bfb565b15610d215760405162461bcd60e51b815260206004820152600e60248201527f616c7265616479206c696e6b6564000000000000000000000000000000000000604482015260640161029e565b6040517f74527bfb00000000000000000000000000000000000000000000000000000000815273f23B8c9debCdCEa2a40E81c3f6d786987069D40d906374527bfb90610d739060049085908201611db3565b60006040518083038186803b158015610d8b57600080fd5b505af4158015610d9f573d6000803e3d6000fd5b50506001546040517f8bee92e60000000000000000000000000000000000000000000000000000000081526001600160a01b039091169250638bee92e69150610dee908c908590600401611db3565b60206040518083038186803b158015610e0657600080fd5b505afa158015610e1a573d6000803e3d6000fd5b505050506040513d601f19601f82011682018060405250810190610e3e9190611bfb565b610e8a5760405162461bcd60e51b815260206004820152600f60248201527f6e6f7420656e6f756768206c616e640000000000000000000000000000000000604482015260640161029e565b6040517f74527bfb00000000000000000000000000000000000000000000000000000000815273f23B8c9debCdCEa2a40E81c3f6d786987069D40d906374527bfb90610edf9060028601908590600401611db3565b60006040518083038186803b158015610ef757600080fd5b505af4158015610f0b573d6000803e3d6000fd5b50505050505b610f1c886001611ec8565b905550505050505050565b600080546040516321ab0c7160e01b8152600481018490526001600160a01b03909116906321ab0c719060240160206040518083038186803b158015610f6c57600080fd5b505afa158015610f80573d6000803e3d6000fd5b505050506040513d601f19601f82011682018060405250810190610fa49190611cdf565b60008181526003602052604090208054919250906110045760405162461bcd60e51b815260206004820152601260248201527f756e6b6e6f776e20657870657269656e63650000000000000000000000000000604482015260640161029e565b8054600114156111c95760018101546002546040517f6352211e000000000000000000000000000000000000000000000000000000008152600481018390526001600160a01b03878116921690636352211e9060240160206040518083038186803b15801561107257600080fd5b505afa158015611086573d6000803e3d6000fd5b505050506040513d601f19601f820116820180604052508101906110aa91906119ec565b6001600160a01b0316146110ef5760405162461bcd60e51b815260206004820152600c60248201526b34b73b30b634b2103ab9b2b960a11b604482015260640161029e565b60006110fd61019883612070565b9050600061110d61019884611ee0565b6040517fe8485b0700000000000000000000000000000000000000000000000000000000815260048082015260248101849052604481018290526001606482015290915073f23B8c9debCdCEa2a40E81c3f6d786987069D40d9063e8485b079060840160206040518083038186803b15801561118857600080fd5b505af415801561119c573d6000803e3d6000fd5b505050506040513d601f19601f820116820180604052508101906111c09190611bfb565b50505050611326565b6001805482546001600160a01b038088169392169163d3fec7cf916111ee9190612027565b6040518263ffffffff1660e01b815260040161120c91815260200190565b60206040518083038186803b15801561122457600080fd5b505afa158015611238573d6000803e3d6000fd5b505050506040513d601f19601f8201168201806040525081019061125c91906119ec565b6001600160a01b0316146112a15760405162461bcd60e51b815260206004820152600c60248201526b34b73b30b634b2103ab9b2b960a11b604482015260640161029e565b6040517fca26a6ad00000000000000000000000000000000000000000000000000000000815260048082015260028201602482015273f23B8c9debCdCEa2a40E81c3f6d786987069D40d9063ca26a6ad9060440160006040518083038186803b15801561130d57600080fd5b505af4158015611321573d6000803e3d6000fd5b505050505b60008281526003602052604081208181556001810182905590600282018161134e8282611854565b5050505050505050565b611360611875565b600080611384611371601887612070565b61137c601887612070565b88919061145b565b9150915060405180608001604052806113d48787866000600681106113b957634e487b7160e01b600052603260045260246000fd5b602002015187600160200201518860025b6020020151611772565b81526020016113f96113e7886018611ec8565b845160208601518991908760026113ca565b815260200161141f8761140d886018611ec8565b606087015160808801518860056113ca565b815260200161144f611432886018611ec8565b61143d886018611ec8565b606086015160808701518760056113ca565b90529695505050505050565b6114636118b4565b61146b6118b4565b84515162ffffff851c601881901b17603081901b17606081901b17908116851b835285516020908101518216861b9084015285516040908101518216861b908401528415611524576114d58177ffffffffffffffffffffffffffffffffffffffffffffffff612027565b90506114e2856018612027565b8651518216901c82526114f6856018612027565b8651602090810151831690911c90830152611512856018612027565b8651604090810151831690911c908301525b6000611531600886612070565b61153c906018612008565b9050600061154b600887611ee0565b9050600161155a8360c0612027565b611565906002611f3a565b61156f9190612027565b6115919077ffffffffffffffffffffffffffffffffffffffffffffffff612027565b925060055b818111156116f0576115a98360c0612027565b848760016115b78686612027565b6115c19190612027565b600681106115df57634e487b7160e01b600052603260045260246000fd5b602002015116901c83876115f38585612027565b6006811061161157634e487b7160e01b600052603260045260246000fd5b6020020151901b1786826006811061163957634e487b7160e01b600052603260045260246000fd5b60200201526116498360c0612027565b848660016116578686612027565b6116619190612027565b6006811061167f57634e487b7160e01b600052603260045260246000fd5b602002015116901c83866116938585612027565b600681106116b157634e487b7160e01b600052603260045260246000fd5b6020020151901b178582600681106116d957634e487b7160e01b600052603260045260246000fd5b6020020152806116e88161203e565b915050611596565b508451821b85826006811061171557634e487b7160e01b600052603260045260246000fd5b60200201528351821b84826006811061173e57634e487b7160e01b600052603260045260246000fd5b602002015280156117675760008086528452600181111561176757600060208087018290528501525b505050935093915050565b61177a6118d2565b6117826118d2565b8051611790908686866117ec565b815260e061179e8888611830565b82515180519190921b17905260e06117b7601889611ee0565b82515160200180519190921b17905260e06117d3601888611ee0565b82515160400180519190921b1790529695505050505050565b6117f46118e1565b50835177ffffffffffffffffffffffffffffffffffffffffffffffff938416905283519183166020909201919091528251911660409091015290565b6000601061183f601884611ee0565b901b61184c601885611ee0565b179392505050565b50805460008255600302906000526020600020908101906105da91906118f4565b60405180608001604052806118886118d2565b81526020016118956118d2565b81526020016118a26118d2565b81526020016118af6118d2565b905290565b6040518060c001604052806006906020820280368337509192915050565b60405180602001604052806118af5b60405180602001604052806118af611919565b808211156119155760008082556001820181905560028201556003016118f4565b5090565b60405180606001604052806003906020820280368337509192915050565b60008083601f840112611948578182fd5b50813567ffffffffffffffff81111561195f578182fd5b602083019150836020808302850101111561197957600080fd5b9250929050565b600082601f830112611990578081fd5b815160206119a56119a083611ea4565b611e73565b82815281810190858301838502870184018810156119c1578586fd5b855b858110156119df578151845292840192908401906001016119c3565b5090979650505050505050565b6000602082840312156119fd578081fd5b81516105bc816120c6565b600080600060408486031215611a1c578182fd5b8335611a27816120c6565b9250602084013567ffffffffffffffff811115611a42578283fd5b611a4e86828701611937565b9497909650939450505050565b600060208284031215611a6c578081fd5b813567ffffffffffffffff811115611a82578182fd5b8201606081018410156105bc578182fd5b60008060208385031215611aa5578182fd5b823567ffffffffffffffff80821115611abc578384fd5b818501915085601f830112611acf578384fd5b813581811115611add578485fd5b866020606083028501011115611af1578485fd5b60209290920196919550909350505050565b60008060006040808587031215611b18578384fd5b843567ffffffffffffffff80821115611b2f578586fd5b611b3b88838901611937565b9096509450602091508682013581811115611b54578485fd5b87019050601f81018813611b66578384fd5b8035611b746119a082611ea4565b818152838101908385016080808502860187018d1015611b92578889fd5b8895505b84861015611be95780828e031215611bac578889fd5b611bb581611e73565b8235815287830135888201528883013589820152606080840135908201528452600195909501949286019290810190611b96565b50508096505050505050509250925092565b600060208284031215611c0c578081fd5b815180151581146105bc578182fd5b6000808284036080811215611c2e578283fd5b6060811215611c3b578283fd5b506020611c4781611e73565b85601f860112611c55578384fd5b611c5f6060611e73565b80866060880189811115611c71578788fd5b875b6003811015611c9057825185529386019391860191600101611c73565b5091845250519194509091505067ffffffffffffffff811115611cb1578182fd5b611cbd85828601611980565b9150509250929050565b600060208284031215611cd8578081fd5b5035919050565b600060208284031215611cf0578081fd5b5051919050565b600080600060608486031215611d0b578081fd5b505081359360208301359350604090920135919050565b60008060008060808587031215611d37578182fd5b5050823594602084013594506040840135936060013592509050565b8051518260005b6003811015610241578251825260209283019290910190600101611d5a565b83815260406020820181905281018290526000606080830185835b868110156119df57838284379183018481529190830190600101611d94565b60006101a082019050838252611dcd602083018451611d53565b6020830151611ddf6080840182611d53565b506040830151611df260e0840182611d53565b506060830151611e06610140840182611d53565b509392505050565b60008083357fffffffffffffffffffffffffffffffffffffffffffffffffffffffffffffffe1843603018112611e42578283fd5b83018035915067ffffffffffffffff821115611e5c578283fd5b602090810192508102360382131561197957600080fd5b604051601f8201601f1916810167ffffffffffffffff81118282101715611e9c57611e9c6120b0565b604052919050565b600067ffffffffffffffff821115611ebe57611ebe6120b0565b5060209081020190565b60008219821115611edb57611edb612084565b500190565b600082611eef57611eef61209a565b500490565b80825b6001808611611f065750611f31565b818704821115611f1857611f18612084565b80861615611f2557918102915b9490941c938002611ef7565b94509492505050565b60006105bc6000198484600082611f53575060016105bc565b81611f60575060006105bc565b8160018114611f765760028114611f8057611fad565b60019150506105bc565b60ff841115611f9157611f91612084565b6001841b915084821115611fa757611fa7612084565b506105bc565b5060208310610133831016604e8410600b8410161715611fe0575081810a83811115611fdb57611fdb612084565b6105bc565b611fed8484846001611ef4565b808604821115611fff57611fff612084565b02949350505050565b600081600019048311821515161561202257612022612084565b500290565b60008282101561203957612039612084565b500390565b60008161204d5761204d612084565b506000190190565b600060001982141561206957612069612084565b5060010190565b60008261207f5761207f61209a565b500690565b634e487b7160e01b600052601160045260246000fd5b634e487b7160e01b600052601260045260246000fd5b634e487b7160e01b600052604160045260246000fd5b6001600160a01b03811681146105da57600080fdfea26469706673582212202fb45120717672b5ffb911e1133798c272443e34f0b55b5e401faac93a3e661c64736f6c63430008020033",
  "deployedBytecode": "0x608060405234801561001057600080fd5b50600436106100c95760003560e01c8063ad51dacb11610081578063cb1ada7c1161005b578063cb1ada7c14610195578063d6c6cfde146101a8578063e67af1b1146101bb576100c9565b8063ad51dacb1461015c578063b44468fb1461016f578063c396d7b414610182576100c9565b80631a07585d116100b25780631a07585d146100f657806320a23e34146101265780633cbe399714610149576100c9565b8063108487fc146100ce57806312202d0a146100e3575b600080fd5b6100e16100dc366004611b03565b6101ce565b005b6100e16100f1366004611a08565b610248565b600054610109906001600160a01b031681565b6040516001600160a01b0390911681526020015b60405180910390f35b610139610134366004611cc7565b6102b7565b604051901515815260200161011d565b610139610157366004611a5b565b61034e565b61013961016a366004611a93565b610515565b600254610109906001600160a01b031681565b6100e1610190366004611cf7565b6105c3565b6100e16101a3366004611cc7565b6105d0565b6100e16101b6366004611d22565b6105dd565b600154610109906001600160a01b031681565b6101d93384846105ef565b805160005b8181101561024157600083828151811061020857634e487b7160e01b600052603260045260246000fd5b6020026020010151905061022e816000015182602001518360400151846060015161063d565b508061023981612055565b9150506101de565b5050505050565b6001546001600160a01b031633146102a75760405162461bcd60e51b815260206004820152601c60248201527f63616e2062652063616c6c6564206f6e6c79206279206573746174650000000060448201526064015b60405180910390fd5b6102b28383836105ef565b505050565b600080546040516321ab0c7160e01b81526004810184905282916001600160a01b0316906321ab0c719060240160206040518083038186803b1580156102fc57600080fd5b505afa158015610310573d6000803e3d6000fd5b505050506040513d601f19601f820116820180604052508101906103349190611cdf565b60009081526003602052604090205415159150505b919050565b60008061035b8380611e0e565b9050905060005b8181101561050b5773__$c8b13b5401e105a03ccb2d5c98950fab3b$__6372ba788860046103936020880188611e0e565b858181106103b157634e487b7160e01b600052603260045260246000fd5b90506020020135876002600381106103d957634e487b7160e01b600052603260045260246000fd5b6020028101906103e99190611e0e565b8681811061040757634e487b7160e01b600052603260045260246000fd5b905060200201358860006003811061042f57634e487b7160e01b600052603260045260246000fd5b60200281019061043f9190611e0e565b8781811061045d57634e487b7160e01b600052603260045260246000fd5b905060200201356040518563ffffffff1660e01b8152600401610499949392919093845260208401929092526040830152606082015260800190565b60206040518083038186803b1580156104b157600080fd5b505af41580156104c5573d6000803e3d6000fd5b505050506040513d601f19601f820116820180604052508101906104e99190611bfb565b156104f957600192505050610349565b8061050381612055565b915050610362565b5060009392505050565b6040517fcca0f3b700000000000000000000000000000000000000000000000000000000815260009073__$c8b13b5401e105a03ccb2d5c98950fab3b$__9063cca0f3b79061056c90600490879087908301611d79565b60206040518083038186803b15801561058457600080fd5b505af4158015610598573d6000803e3d6000fd5b505050506040513d601f19601f820116820180604052508101906105bc9190611bfb565b9392505050565b6102b2600084848461063d565b6105da3382610f27565b50565b6105e98484848461063d565b50505050565b8060005b818110156102415761062b8585858481811061061f57634e487b7160e01b600052603260045260246000fd5b90506020020135610f27565b8061063581612055565b9150506105f3565b600080546040516321ab0c7160e01b8152600481018690526001600160a01b03909116906321ab0c719060240160206040518083038186803b15801561068257600080fd5b505afa158015610696573d6000803e3d6000fd5b505050506040513d601f19601f820116820180604052508101906106ba9190611cdf565b600080546040517f31543cf400000000000000000000000000000000000000000000000000000000815260048101849052929350909182916001600160a01b0316906331543cf49060240160006040518083038186803b15801561071d57600080fd5b505afa158015610731573d6000803e3d6000fd5b505050506040513d6000823e601f3d908101601f191682016040526107599190810190611c1b565b9150915060008151116107ae5760405162461bcd60e51b815260206004820152600e60248201527f656d7074792074656d706c617465000000000000000000000000000000000000604482015260640161029e565b600083815260036020526040902080541561080b5760405162461bcd60e51b815260206004820152601260248201527f45787020616c726561647920696e207573650000000000000000000000000000604482015260640161029e565b87610b435781516001146108615760405162461bcd60e51b815260206004820152601a60248201527f6d75737420626520646f6e6520696e7369646520657374617465000000000000604482015260640161029e565b600061086f86610198612008565b878460008151811061089157634e487b7160e01b600052603260045260246000fd5b60200260200101516108a39190611ec8565b6108ad9190611ec8565b905060006108bd61019883612070565b905060006108cd61019884611ee0565b9050336002546040517f6352211e000000000000000000000000000000000000000000000000000000008152600481018690526001600160a01b039283169290911690636352211e9060240160206040518083038186803b15801561093157600080fd5b505afa158015610945573d6000803e3d6000fd5b505050506040513d601f19601f8201168201806040525081019061096991906119ec565b6001600160a01b0316146109ae5760405162461bcd60e51b815260206004820152600c60248201526b34b73b30b634b2103ab9b2b960a11b604482015260640161029e565b6040517f3362c7cd000000000000000000000000000000000000000000000000000000008152600480820152602481018390526044810182905273__$c8b13b5401e105a03ccb2d5c98950fab3b$__90633362c7cd9060640160206040518083038186803b158015610a1f57600080fd5b505af4158015610a33573d6000803e3d6000fd5b505050506040513d601f19601f82011682018060405250810190610a579190611bfb565b15610aa45760405162461bcd60e51b815260206004820152600e60248201527f616c7265616479206c696e6b6564000000000000000000000000000000000000604482015260640161029e565b6040517ff9b9fec600000000000000000000000000000000000000000000000000000000815260048082015260248101839052604481018290526001606482015273__$c8b13b5401e105a03ccb2d5c98950fab3b$__9063f9b9fec69060840160006040518083038186803b158015610b1c57600080fd5b505af4158015610b30573d6000803e3d6000fd5b5050505050600183019190915550610f11565b336001546040517fd3fec7cf000000000000000000000000000000000000000000000000000000008152600481018b90526001600160a01b03928316929091169063d3fec7cf9060240160206040518083038186803b158015610ba557600080fd5b505afa158015610bb9573d6000803e3d6000fd5b505050506040513d601f19601f82011682018060405250810190610bdd91906119ec565b6001600160a01b031614610c225760405162461bcd60e51b815260206004820152600c60248201526b34b73b30b634b2103ab9b2b960a11b604482015260640161029e565b6000610c2f848888611358565b6040517f552a98a500000000000000000000000000000000000000000000000000000000815290915073__$c8b13b5401e105a03ccb2d5c98950fab3b$__9063552a98a590610c849060049085908201611db3565b60206040518083038186803b158015610c9c57600080fd5b505af4158015610cb0573d6000803e3d6000fd5b505050506040513d601f19601f82011682018060405250810190610cd49190611bfb565b15610d215760405162461bcd60e51b815260206004820152600e60248201527f616c7265616479206c696e6b6564000000000000000000000000000000000000604482015260640161029e565b6040517f74527bfb00000000000000000000000000000000000000000000000000000000815273__$c8b13b5401e105a03ccb2d5c98950fab3b$__906374527bfb90610d739060049085908201611db3565b60006040518083038186803b158015610d8b57600080fd5b505af4158015610d9f573d6000803e3d6000fd5b50506001546040517f8bee92e60000000000000000000000000000000000000000000000000000000081526001600160a01b039091169250638bee92e69150610dee908c908590600401611db3565b60206040518083038186803b158015610e0657600080fd5b505afa158015610e1a573d6000803e3d6000fd5b505050506040513d601f19601f82011682018060405250810190610e3e9190611bfb565b610e8a5760405162461bcd60e51b815260206004820152600f60248201527f6e6f7420656e6f756768206c616e640000000000000000000000000000000000604482015260640161029e565b6040517f74527bfb00000000000000000000000000000000000000000000000000000000815273__$c8b13b5401e105a03ccb2d5c98950fab3b$__906374527bfb90610edf9060028601908590600401611db3565b60006040518083038186803b158015610ef757600080fd5b505af4158015610f0b573d6000803e3d6000fd5b50505050505b610f1c886001611ec8565b905550505050505050565b600080546040516321ab0c7160e01b8152600481018490526001600160a01b03909116906321ab0c719060240160206040518083038186803b158015610f6c57600080fd5b505afa158015610f80573d6000803e3d6000fd5b505050506040513d601f19601f82011682018060405250810190610fa49190611cdf565b60008181526003602052604090208054919250906110045760405162461bcd60e51b815260206004820152601260248201527f756e6b6e6f776e20657870657269656e63650000000000000000000000000000604482015260640161029e565b8054600114156111c95760018101546002546040517f6352211e000000000000000000000000000000000000000000000000000000008152600481018390526001600160a01b03878116921690636352211e9060240160206040518083038186803b15801561107257600080fd5b505afa158015611086573d6000803e3d6000fd5b505050506040513d601f19601f820116820180604052508101906110aa91906119ec565b6001600160a01b0316146110ef5760405162461bcd60e51b815260206004820152600c60248201526b34b73b30b634b2103ab9b2b960a11b604482015260640161029e565b60006110fd61019883612070565b9050600061110d61019884611ee0565b6040517fe8485b0700000000000000000000000000000000000000000000000000000000815260048082015260248101849052604481018290526001606482015290915073__$c8b13b5401e105a03ccb2d5c98950fab3b$__9063e8485b079060840160206040518083038186803b15801561118857600080fd5b505af415801561119c573d6000803e3d6000fd5b505050506040513d601f19601f820116820180604052508101906111c09190611bfb565b50505050611326565b6001805482546001600160a01b038088169392169163d3fec7cf916111ee9190612027565b6040518263ffffffff1660e01b815260040161120c91815260200190565b60206040518083038186803b15801561122457600080fd5b505afa158015611238573d6000803e3d6000fd5b505050506040513d601f19601f8201168201806040525081019061125c91906119ec565b6001600160a01b0316146112a15760405162461bcd60e51b815260206004820152600c60248201526b34b73b30b634b2103ab9b2b960a11b604482015260640161029e565b6040517fca26a6ad00000000000000000000000000000000000000000000000000000000815260048082015260028201602482015273__$c8b13b5401e105a03ccb2d5c98950fab3b$__9063ca26a6ad9060440160006040518083038186803b15801561130d57600080fd5b505af4158015611321573d6000803e3d6000fd5b505050505b60008281526003602052604081208181556001810182905590600282018161134e8282611854565b5050505050505050565b611360611875565b600080611384611371601887612070565b61137c601887612070565b88919061145b565b9150915060405180608001604052806113d48787866000600681106113b957634e487b7160e01b600052603260045260246000fd5b602002015187600160200201518860025b6020020151611772565b81526020016113f96113e7886018611ec8565b845160208601518991908760026113ca565b815260200161141f8761140d886018611ec8565b606087015160808801518860056113ca565b815260200161144f611432886018611ec8565b61143d886018611ec8565b606086015160808701518760056113ca565b90529695505050505050565b6114636118b4565b61146b6118b4565b84515162ffffff851c601881901b17603081901b17606081901b17908116851b835285516020908101518216861b9084015285516040908101518216861b908401528415611524576114d58177ffffffffffffffffffffffffffffffffffffffffffffffff612027565b90506114e2856018612027565b8651518216901c82526114f6856018612027565b8651602090810151831690911c90830152611512856018612027565b8651604090810151831690911c908301525b6000611531600886612070565b61153c906018612008565b9050600061154b600887611ee0565b9050600161155a8360c0612027565b611565906002611f3a565b61156f9190612027565b6115919077ffffffffffffffffffffffffffffffffffffffffffffffff612027565b925060055b818111156116f0576115a98360c0612027565b848760016115b78686612027565b6115c19190612027565b600681106115df57634e487b7160e01b600052603260045260246000fd5b602002015116901c83876115f38585612027565b6006811061161157634e487b7160e01b600052603260045260246000fd5b6020020151901b1786826006811061163957634e487b7160e01b600052603260045260246000fd5b60200201526116498360c0612027565b848660016116578686612027565b6116619190612027565b6006811061167f57634e487b7160e01b600052603260045260246000fd5b602002015116901c83866116938585612027565b600681106116b157634e487b7160e01b600052603260045260246000fd5b6020020151901b178582600681106116d957634e487b7160e01b600052603260045260246000fd5b6020020152806116e88161203e565b915050611596565b508451821b85826006811061171557634e487b7160e01b600052603260045260246000fd5b60200201528351821b84826006811061173e57634e487b7160e01b600052603260045260246000fd5b602002015280156117675760008086528452600181111561176757600060208087018290528501525b505050935093915050565b61177a6118d2565b6117826118d2565b8051611790908686866117ec565b815260e061179e8888611830565b82515180519190921b17905260e06117b7601889611ee0565b82515160200180519190921b17905260e06117d3601888611ee0565b82515160400180519190921b1790529695505050505050565b6117f46118e1565b50835177ffffffffffffffffffffffffffffffffffffffffffffffff938416905283519183166020909201919091528251911660409091015290565b6000601061183f601884611ee0565b901b61184c601885611ee0565b179392505050565b50805460008255600302906000526020600020908101906105da91906118f4565b60405180608001604052806118886118d2565b81526020016118956118d2565b81526020016118a26118d2565b81526020016118af6118d2565b905290565b6040518060c001604052806006906020820280368337509192915050565b60405180602001604052806118af5b60405180602001604052806118af611919565b808211156119155760008082556001820181905560028201556003016118f4565b5090565b60405180606001604052806003906020820280368337509192915050565b60008083601f840112611948578182fd5b50813567ffffffffffffffff81111561195f578182fd5b602083019150836020808302850101111561197957600080fd5b9250929050565b600082601f830112611990578081fd5b815160206119a56119a083611ea4565b611e73565b82815281810190858301838502870184018810156119c1578586fd5b855b858110156119df578151845292840192908401906001016119c3565b5090979650505050505050565b6000602082840312156119fd578081fd5b81516105bc816120c6565b600080600060408486031215611a1c578182fd5b8335611a27816120c6565b9250602084013567ffffffffffffffff811115611a42578283fd5b611a4e86828701611937565b9497909650939450505050565b600060208284031215611a6c578081fd5b813567ffffffffffffffff811115611a82578182fd5b8201606081018410156105bc578182fd5b60008060208385031215611aa5578182fd5b823567ffffffffffffffff80821115611abc578384fd5b818501915085601f830112611acf578384fd5b813581811115611add578485fd5b866020606083028501011115611af1578485fd5b60209290920196919550909350505050565b60008060006040808587031215611b18578384fd5b843567ffffffffffffffff80821115611b2f578586fd5b611b3b88838901611937565b9096509450602091508682013581811115611b54578485fd5b87019050601f81018813611b66578384fd5b8035611b746119a082611ea4565b818152838101908385016080808502860187018d1015611b92578889fd5b8895505b84861015611be95780828e031215611bac578889fd5b611bb581611e73565b8235815287830135888201528883013589820152606080840135908201528452600195909501949286019290810190611b96565b50508096505050505050509250925092565b600060208284031215611c0c578081fd5b815180151581146105bc578182fd5b6000808284036080811215611c2e578283fd5b6060811215611c3b578283fd5b506020611c4781611e73565b85601f860112611c55578384fd5b611c5f6060611e73565b80866060880189811115611c71578788fd5b875b6003811015611c9057825185529386019391860191600101611c73565b5091845250519194509091505067ffffffffffffffff811115611cb1578182fd5b611cbd85828601611980565b9150509250929050565b600060208284031215611cd8578081fd5b5035919050565b600060208284031215611cf0578081fd5b5051919050565b600080600060608486031215611d0b578081fd5b505081359360208301359350604090920135919050565b60008060008060808587031215611d37578182fd5b5050823594602084013594506040840135936060013592509050565b8051518260005b6003811015610241578251825260209283019290910190600101611d5a565b83815260406020820181905281018290526000606080830185835b868110156119df57838284379183018481529190830190600101611d94565b60006101a082019050838252611dcd602083018451611d53565b6020830151611ddf6080840182611d53565b506040830151611df260e0840182611d53565b506060830151611e06610140840182611d53565b509392505050565b60008083357fffffffffffffffffffffffffffffffffffffffffffffffffffffffffffffffe1843603018112611e42578283fd5b83018035915067ffffffffffffffff821115611e5c578283fd5b602090810192508102360382131561197957600080fd5b604051601f8201601f1916810167ffffffffffffffff81118282101715611e9c57611e9c6120b0565b604052919050565b600067ffffffffffffffff821115611ebe57611ebe6120b0565b5060209081020190565b60008219821115611edb57611edb612084565b500190565b600082611eef57611eef61209a565b500490565b80825b6001808611611f065750611f31565b818704821115611f1857611f18612084565b80861615611f2557918102915b9490941c938002611ef7565b94509492505050565b60006105bc6000198484600082611f53575060016105bc565b81611f60575060006105bc565b8160018114611f765760028114611f8057611fad565b60019150506105bc565b60ff841115611f9157611f91612084565b6001841b915084821115611fa757611fa7612084565b506105bc565b5060208310610133831016604e8410600b8410161715611fe0575081810a83811115611fdb57611fdb612084565b6105bc565b611fed8484846001611ef4565b808604821115611fff57611fff612084565b02949350505050565b600081600019048311821515161561202257612022612084565b500290565b60008282101561203957612039612084565b500390565b60008161204d5761204d612084565b506000190190565b600060001982141561206957612069612084565b5060010190565b60008261207f5761207f61209a565b500690565b634e487b7160e01b600052601160045260246000fd5b634e487b7160e01b600052601260045260246000fd5b634e487b7160e01b600052604160045260246000fd5b6001600160a01b03811681146105da57600080fdfea26469706673582212202fb45120717672b5ffb911e1133798c272443e34f0b55b5e401faac93a3e661c64736f6c63430008020033",
  "libraries": {
    "MapLib": "0xf23B8c9debCdCEa2a40E81c3f6d786987069D40d"
  },
  "devdoc": {
    "kind": "dev",
    "methods": {},
    "version": 1
  },
  "userdoc": {
    "kind": "user",
    "methods": {},
    "notice": "Contract managing tExperiences and Estates",
    "version": 1
  },
  "storageLayout": {
    "storage": [
      {
        "astId": 53278,
        "contract": "src/solc_0.8/polygon/child/estate/ExperienceEstateRegistry.sol:ExperienceEstateRegistry",
        "label": "experienceToken",
        "offset": 0,
        "slot": "0",
        "type": "t_contract(IExperienceToken)47505"
      },
      {
        "astId": 53281,
        "contract": "src/solc_0.8/polygon/child/estate/ExperienceEstateRegistry.sol:ExperienceEstateRegistry",
        "label": "estateToken",
        "offset": 0,
        "slot": "1",
        "type": "t_contract(IEstateToken)47482"
      },
      {
        "astId": 53284,
        "contract": "src/solc_0.8/polygon/child/estate/ExperienceEstateRegistry.sol:ExperienceEstateRegistry",
        "label": "landToken",
        "offset": 0,
        "slot": "2",
        "type": "t_contract(IERC721)4258"
      },
      {
        "astId": 53297,
        "contract": "src/solc_0.8/polygon/child/estate/ExperienceEstateRegistry.sol:ExperienceEstateRegistry",
        "label": "links",
        "offset": 0,
        "slot": "3",
        "type": "t_mapping(t_uint256,t_struct(EstateAndLands)53292_storage)"
      },
      {
        "astId": 53300,
        "contract": "src/solc_0.8/polygon/child/estate/ExperienceEstateRegistry.sol:ExperienceEstateRegistry",
        "label": "linkedLands",
        "offset": 0,
        "slot": "4",
        "type": "t_struct(Map)40675_storage"
      }
    ],
    "types": {
      "t_array(t_struct(TileWithCoord)45754_storage)dyn_storage": {
        "base": "t_struct(TileWithCoord)45754_storage",
        "encoding": "dynamic_array",
        "label": "struct TileWithCoordLib.TileWithCoord[]",
        "numberOfBytes": "32"
      },
      "t_array(t_uint256)3_storage": {
        "base": "t_uint256",
        "encoding": "inplace",
        "label": "uint256[3]",
        "numberOfBytes": "96"
      },
      "t_contract(IERC721)4258": {
        "encoding": "inplace",
        "label": "contract IERC721",
        "numberOfBytes": "20"
      },
      "t_contract(IEstateToken)47482": {
        "encoding": "inplace",
        "label": "contract IEstateToken",
        "numberOfBytes": "20"
      },
      "t_contract(IExperienceToken)47505": {
        "encoding": "inplace",
        "label": "contract IExperienceToken",
        "numberOfBytes": "20"
      },
      "t_mapping(t_uint256,t_struct(EstateAndLands)53292_storage)": {
        "encoding": "mapping",
        "key": "t_uint256",
        "label": "mapping(uint256 => struct ExperienceEstateRegistry.EstateAndLands)",
        "numberOfBytes": "32",
        "value": "t_struct(EstateAndLands)53292_storage"
      },
      "t_mapping(t_uint256,t_uint256)": {
        "encoding": "mapping",
        "key": "t_uint256",
        "label": "mapping(uint256 => uint256)",
        "numberOfBytes": "32",
        "value": "t_uint256"
      },
      "t_struct(EstateAndLands)53292_storage": {
        "encoding": "inplace",
        "label": "struct ExperienceEstateRegistry.EstateAndLands",
        "members": [
          {
            "astId": 53286,
            "contract": "src/solc_0.8/polygon/child/estate/ExperienceEstateRegistry.sol:ExperienceEstateRegistry",
            "label": "estateId",
            "offset": 0,
            "slot": "0",
            "type": "t_uint256"
          },
          {
            "astId": 53288,
            "contract": "src/solc_0.8/polygon/child/estate/ExperienceEstateRegistry.sol:ExperienceEstateRegistry",
            "label": "singleLand",
            "offset": 0,
            "slot": "1",
            "type": "t_uint256"
          },
          {
            "astId": 53291,
            "contract": "src/solc_0.8/polygon/child/estate/ExperienceEstateRegistry.sol:ExperienceEstateRegistry",
            "label": "multiLand",
            "offset": 0,
            "slot": "2",
            "type": "t_struct(Map)40675_storage"
          }
        ],
        "numberOfBytes": "128"
      },
      "t_struct(Map)40675_storage": {
        "encoding": "inplace",
        "label": "struct MapLib.Map",
        "members": [
          {
            "astId": 40670,
            "contract": "src/solc_0.8/polygon/child/estate/ExperienceEstateRegistry.sol:ExperienceEstateRegistry",
            "label": "values",
            "offset": 0,
            "slot": "0",
            "type": "t_array(t_struct(TileWithCoord)45754_storage)dyn_storage"
          },
          {
            "astId": 40674,
            "contract": "src/solc_0.8/polygon/child/estate/ExperienceEstateRegistry.sol:ExperienceEstateRegistry",
            "label": "indexes",
            "offset": 0,
            "slot": "1",
            "type": "t_mapping(t_uint256,t_uint256)"
          }
        ],
        "numberOfBytes": "64"
      },
      "t_struct(Tile)44049_storage": {
        "encoding": "inplace",
        "label": "struct TileLib.Tile",
        "members": [
          {
            "astId": 44048,
            "contract": "src/solc_0.8/polygon/child/estate/ExperienceEstateRegistry.sol:ExperienceEstateRegistry",
            "label": "data",
            "offset": 0,
            "slot": "0",
            "type": "t_array(t_uint256)3_storage"
          }
        ],
        "numberOfBytes": "96"
      },
      "t_struct(TileWithCoord)45754_storage": {
        "encoding": "inplace",
        "label": "struct TileWithCoordLib.TileWithCoord",
        "members": [
          {
            "astId": 45753,
            "contract": "src/solc_0.8/polygon/child/estate/ExperienceEstateRegistry.sol:ExperienceEstateRegistry",
            "label": "tile",
            "offset": 0,
            "slot": "0",
            "type": "t_struct(Tile)44049_storage"
          }
        ],
        "numberOfBytes": "96"
      },
      "t_uint256": {
        "encoding": "inplace",
        "label": "uint256",
        "numberOfBytes": "32"
      }
    }
  }
}